{
  "contractName": "DavinciToken",
  "abi": [
    {
      "inputs": [
        {
          "internalType": "string",
          "name": "name",
          "type": "string"
        },
        {
          "internalType": "string",
          "name": "symbol",
          "type": "string"
        },
        {
          "internalType": "address",
          "name": "newOwner",
          "type": "address"
        },
        {
          "internalType": "string",
          "name": "contractURI",
          "type": "string"
        },
        {
          "internalType": "string",
          "name": "tokenURIPrefix",
          "type": "string"
        }
      ],
      "stateMutability": "nonpayable",
      "type": "constructor"
    },
    {
      "anonymous": false,
      "inputs": [
        {
          "indexed": true,
          "internalType": "address",
          "name": "owner",
          "type": "address"
        },
        {
          "indexed": true,
          "internalType": "address",
          "name": "approved",
          "type": "address"
        },
        {
          "indexed": true,
          "internalType": "uint256",
          "name": "tokenId",
          "type": "uint256"
        }
      ],
      "name": "Approval",
      "type": "event"
    },
    {
      "anonymous": false,
      "inputs": [
        {
          "indexed": true,
          "internalType": "address",
          "name": "owner",
          "type": "address"
        },
        {
          "indexed": true,
          "internalType": "address",
          "name": "operator",
          "type": "address"
        },
        {
          "indexed": false,
          "internalType": "bool",
          "name": "approved",
          "type": "bool"
        }
      ],
      "name": "ApprovalForAll",
      "type": "event"
    },
    {
      "anonymous": false,
      "inputs": [
        {
          "indexed": true,
          "internalType": "address",
          "name": "previousOwner",
          "type": "address"
        },
        {
          "indexed": true,
          "internalType": "address",
          "name": "newOwner",
          "type": "address"
        }
      ],
      "name": "OwnershipTransferred",
      "type": "event"
    },
    {
      "anonymous": false,
      "inputs": [
        {
          "indexed": false,
          "internalType": "uint256",
          "name": "tokenId",
          "type": "uint256"
        },
        {
          "indexed": false,
          "internalType": "address[]",
          "name": "recipients",
          "type": "address[]"
        },
        {
          "indexed": false,
          "internalType": "uint256[]",
          "name": "bps",
          "type": "uint256[]"
        }
      ],
      "name": "SecondarySaleFees",
      "type": "event"
    },
    {
      "anonymous": false,
      "inputs": [
        {
          "indexed": true,
          "internalType": "address",
          "name": "from",
          "type": "address"
        },
        {
          "indexed": true,
          "internalType": "address",
          "name": "to",
          "type": "address"
        },
        {
          "indexed": true,
          "internalType": "uint256",
          "name": "tokenId",
          "type": "uint256"
        }
      ],
      "name": "Transfer",
      "type": "event"
    },
    {
      "inputs": [
        {
          "internalType": "address",
          "name": "to",
          "type": "address"
        },
        {
          "internalType": "uint256",
          "name": "tokenId",
          "type": "uint256"
        }
      ],
      "name": "approve",
      "outputs": [],
      "stateMutability": "nonpayable",
      "type": "function"
    },
    {
      "inputs": [
        {
          "internalType": "address",
          "name": "owner",
          "type": "address"
        }
      ],
      "name": "balanceOf",
      "outputs": [
        {
          "internalType": "uint256",
          "name": "",
          "type": "uint256"
        }
      ],
      "stateMutability": "view",
      "type": "function"
    },
    {
      "inputs": [
        {
          "internalType": "uint256",
          "name": "tokenId",
          "type": "uint256"
        }
      ],
      "name": "burn",
      "outputs": [],
      "stateMutability": "nonpayable",
      "type": "function"
    },
    {
      "inputs": [],
      "name": "contractURI",
      "outputs": [
        {
          "internalType": "string",
          "name": "",
          "type": "string"
        }
      ],
      "stateMutability": "view",
      "type": "function"
    },
    {
      "inputs": [
        {
          "internalType": "uint256",
          "name": "",
          "type": "uint256"
        },
        {
          "internalType": "uint256",
          "name": "",
          "type": "uint256"
        }
      ],
      "name": "fees",
      "outputs": [
        {
          "internalType": "address payable",
          "name": "recipient",
          "type": "address"
        },
        {
          "internalType": "uint256",
          "name": "value",
          "type": "uint256"
        }
      ],
      "stateMutability": "view",
      "type": "function"
    },
    {
      "inputs": [
        {
          "internalType": "uint256",
          "name": "tokenId",
          "type": "uint256"
        }
      ],
      "name": "getApproved",
      "outputs": [
        {
          "internalType": "address",
          "name": "",
          "type": "address"
        }
      ],
      "stateMutability": "view",
      "type": "function"
    },
    {
      "inputs": [
        {
          "internalType": "uint256",
          "name": "id",
          "type": "uint256"
        }
      ],
      "name": "getFeeBps",
      "outputs": [
        {
          "internalType": "uint256[]",
          "name": "",
          "type": "uint256[]"
        }
      ],
      "stateMutability": "view",
      "type": "function"
    },
    {
      "inputs": [
        {
          "internalType": "uint256",
          "name": "id",
          "type": "uint256"
        }
      ],
      "name": "getFeeRecipients",
      "outputs": [
        {
          "internalType": "address payable[]",
          "name": "",
          "type": "address[]"
        }
      ],
      "stateMutability": "view",
      "type": "function"
    },
    {
      "inputs": [
        {
          "internalType": "address",
          "name": "owner",
          "type": "address"
        },
        {
          "internalType": "address",
          "name": "operator",
          "type": "address"
        }
      ],
      "name": "isApprovedForAll",
      "outputs": [
        {
          "internalType": "bool",
          "name": "",
          "type": "bool"
        }
      ],
      "stateMutability": "view",
      "type": "function"
    },
    {
      "inputs": [],
      "name": "name",
      "outputs": [
        {
          "internalType": "string",
          "name": "",
          "type": "string"
        }
      ],
      "stateMutability": "view",
      "type": "function"
    },
    {
      "inputs": [],
      "name": "owner",
      "outputs": [
        {
          "internalType": "address",
          "name": "",
          "type": "address"
        }
      ],
      "stateMutability": "view",
      "type": "function"
    },
    {
      "inputs": [
        {
          "internalType": "uint256",
          "name": "tokenId",
          "type": "uint256"
        }
      ],
      "name": "ownerOf",
      "outputs": [
        {
          "internalType": "address",
          "name": "",
          "type": "address"
        }
      ],
      "stateMutability": "view",
      "type": "function"
    },
    {
      "inputs": [],
      "name": "renounceOwnership",
      "outputs": [],
      "stateMutability": "nonpayable",
      "type": "function"
    },
    {
      "inputs": [
        {
          "internalType": "address",
          "name": "from",
          "type": "address"
        },
        {
          "internalType": "address",
          "name": "to",
          "type": "address"
        },
        {
          "internalType": "uint256",
          "name": "tokenId",
          "type": "uint256"
        }
      ],
      "name": "safeTransferFrom",
      "outputs": [],
      "stateMutability": "nonpayable",
      "type": "function"
    },
    {
      "inputs": [
        {
          "internalType": "address",
          "name": "from",
          "type": "address"
        },
        {
          "internalType": "address",
          "name": "to",
          "type": "address"
        },
        {
          "internalType": "uint256",
          "name": "tokenId",
          "type": "uint256"
        },
        {
          "internalType": "bytes",
          "name": "_data",
          "type": "bytes"
        }
      ],
      "name": "safeTransferFrom",
      "outputs": [],
      "stateMutability": "nonpayable",
      "type": "function"
    },
    {
      "inputs": [
        {
          "internalType": "address",
          "name": "to",
          "type": "address"
        },
        {
          "internalType": "bool",
          "name": "approved",
          "type": "bool"
        }
      ],
      "name": "setApprovalForAll",
      "outputs": [],
      "stateMutability": "nonpayable",
      "type": "function"
    },
    {
      "inputs": [
        {
          "internalType": "bytes4",
          "name": "interfaceId",
          "type": "bytes4"
        }
      ],
      "name": "supportsInterface",
      "outputs": [
        {
          "internalType": "bool",
          "name": "",
          "type": "bool"
        }
      ],
      "stateMutability": "view",
      "type": "function"
    },
    {
      "inputs": [],
      "name": "symbol",
      "outputs": [
        {
          "internalType": "string",
          "name": "",
          "type": "string"
        }
      ],
      "stateMutability": "view",
      "type": "function"
    },
    {
      "inputs": [
        {
          "internalType": "uint256",
          "name": "index",
          "type": "uint256"
        }
      ],
      "name": "tokenByIndex",
      "outputs": [
        {
          "internalType": "uint256",
          "name": "",
          "type": "uint256"
        }
      ],
      "stateMutability": "view",
      "type": "function"
    },
    {
      "inputs": [
        {
          "internalType": "address",
          "name": "owner",
          "type": "address"
        },
        {
          "internalType": "uint256",
          "name": "index",
          "type": "uint256"
        }
      ],
      "name": "tokenOfOwnerByIndex",
      "outputs": [
        {
          "internalType": "uint256",
          "name": "",
          "type": "uint256"
        }
      ],
      "stateMutability": "view",
      "type": "function"
    },
    {
      "inputs": [
        {
          "internalType": "uint256",
          "name": "tokenId",
          "type": "uint256"
        }
      ],
      "name": "tokenURI",
      "outputs": [
        {
          "internalType": "string",
          "name": "",
          "type": "string"
        }
      ],
      "stateMutability": "view",
      "type": "function"
    },
    {
      "inputs": [],
      "name": "tokenURIPrefix",
      "outputs": [
        {
          "internalType": "string",
          "name": "",
          "type": "string"
        }
      ],
      "stateMutability": "view",
      "type": "function"
    },
    {
      "inputs": [],
      "name": "totalSupply",
      "outputs": [
        {
          "internalType": "uint256",
          "name": "",
          "type": "uint256"
        }
      ],
      "stateMutability": "view",
      "type": "function"
    },
    {
      "inputs": [
        {
          "internalType": "address",
          "name": "from",
          "type": "address"
        },
        {
          "internalType": "address",
          "name": "to",
          "type": "address"
        },
        {
          "internalType": "uint256",
          "name": "tokenId",
          "type": "uint256"
        }
      ],
      "name": "transferFrom",
      "outputs": [],
      "stateMutability": "nonpayable",
      "type": "function"
    },
    {
      "inputs": [
        {
          "internalType": "address",
          "name": "newOwner",
          "type": "address"
        }
      ],
      "name": "transferOwnership",
      "outputs": [],
      "stateMutability": "nonpayable",
      "type": "function"
    },
    {
      "inputs": [
        {
          "internalType": "uint256",
          "name": "tokenId",
          "type": "uint256"
        },
        {
          "components": [
            {
              "internalType": "address payable",
              "name": "recipient",
              "type": "address"
            },
            {
              "internalType": "uint256",
              "name": "value",
              "type": "uint256"
            }
          ],
          "internalType": "struct ERC721Base.Fee[]",
          "name": "_fees",
          "type": "tuple[]"
        },
        {
          "internalType": "string",
          "name": "tokenURI",
          "type": "string"
        }
      ],
      "name": "mint",
      "outputs": [],
      "stateMutability": "nonpayable",
      "type": "function"
    },
    {
      "inputs": [
        {
          "internalType": "string",
          "name": "tokenURIPrefix",
          "type": "string"
        }
      ],
      "name": "setTokenURIPrefix",
      "outputs": [],
      "stateMutability": "nonpayable",
      "type": "function"
    },
    {
      "inputs": [
        {
          "internalType": "string",
          "name": "contractURI",
          "type": "string"
        }
      ],
      "name": "setContractURI",
      "outputs": [],
      "stateMutability": "nonpayable",
      "type": "function"
    }
  ],
  "bytecode": "0x60806040523480156200001157600080fd5b5060405162002fea38038062002fea8339810160408190526200003491620003fe565b84848383808260006200004662000191565b600080546001600160a01b0319166001600160a01b03831690811782556040519293509160008051602062002fca833981519152908290a350620000916301ffc9a760e01b62000195565b620000a3632dde656160e21b62000195565b8051620000b8906002906020840190620002bb565b50620000cb63e8a3d48560e01b62000195565b508051620000e1906003906020840190620002bb565b50620000f690506380ac58cd60e01b62000195565b6200010863780e9d6360e01b62000195565b83516200011d90600d906020870190620002bb565b5082516200013390600e906020860190620002bb565b5062000146635b5e139f60e01b62000195565b505050506200017b7fe37243f27916e395706434720b54132b80ef5cc8c56f39b0df6485e8dfb697cf6200019560201b60201c565b6200018683620001f3565b505050505062000585565b3390565b6001600160e01b03198082161415620001cb5760405162461bcd60e51b8152600401620001c29062000519565b60405180910390fd5b6001600160e01b0319166000908152600160208190526040909120805460ff19169091179055565b620001fd62000191565b6001600160a01b031662000210620002ac565b6001600160a01b031614620002395760405162461bcd60e51b8152600401620001c29062000550565b6001600160a01b038116620002625760405162461bcd60e51b8152600401620001c290620004d3565b600080546040516001600160a01b038085169392169160008051602062002fca83398151915291a3600080546001600160a01b0319166001600160a01b0392909216919091179055565b6000546001600160a01b031690565b828054600181600116156101000203166002900490600052602060002090601f016020900481019282601f10620002fe57805160ff19168380011785556200032e565b828001600101855582156200032e579182015b828111156200032e57825182559160200191906001019062000311565b506200033c92915062000340565b5090565b5b808211156200033c576000815560010162000341565b600082601f83011262000368578081fd5b81516001600160401b03808211156200037f578283fd5b6040516020601f8401601f1916820181018381118382101715620003a1578586fd5b80604052508194508382528681858801011115620003be57600080fd5b600092505b83831015620003e25785830181015182840182015291820191620003c3565b83831115620003f45760008185840101525b5050505092915050565b600080600080600060a0868803121562000416578081fd5b85516001600160401b03808211156200042d578283fd5b6200043b89838a0162000357565b9650602088015191508082111562000451578283fd5b6200045f89838a0162000357565b604089015190965091506001600160a01b03821682146200047e578283fd5b60608801519194508082111562000493578283fd5b620004a189838a0162000357565b93506080880151915080821115620004b7578283fd5b50620004c68882890162000357565b9150509295509295909350565b60208082526026908201527f4f776e61626c653a206e6577206f776e657220697320746865207a65726f206160408201526564647265737360d01b606082015260800190565b6020808252601c908201527f4552433136353a20696e76616c696420696e7465726661636520696400000000604082015260600190565b6020808252818101527f4f776e61626c653a2063616c6c6572206973206e6f7420746865206f776e6572604082015260600190565b612a3580620005956000396000f3fe608060405234801561001057600080fd5b50600436106101c45760003560e01c8063715018a6116100f9578063b9c4d9fb11610097578063c87b56dd11610071578063c87b56dd146103b6578063e8a3d485146103c9578063e985e9c5146103d1578063f2fde38b146103e4576101c4565b8063b9c4d9fb1461037b578063bd442c3b1461039b578063c0ac9983146103ae576101c4565b806395d89b41116100d357806395d89b411461033a57806399e0dd7c14610342578063a22cb46514610355578063b88d4fde14610368576101c4565b8063715018a6146103175780638da5cb5b1461031f578063938e3d7b14610327576101c4565b80632f745c59116101665780634f6ccce7116101405780634f6ccce7146102bd5780636308f1cd146102d05780636352211e146102f157806370a0823114610304576101c4565b80632f745c591461028457806342842e0e1461029757806342966c68146102aa576101c4565b8063095ea7b3116101a2578063095ea7b3146102275780630ebd4c7f1461023c57806318160ddd1461025c57806323b872dd14610271576101c4565b806301ffc9a7146101c957806306fdde03146101f2578063081812fc14610207575b600080fd5b6101dc6101d7366004611ea5565b6103f7565b6040516101e9919061215a565b60405180910390f35b6101fa610416565b6040516101e99190612165565b61021a610215366004611f10565b6104a4565b6040516101e9919061209d565b61023a610235366004611e7a565b6104f0565b005b61024f61024a366004611f10565b6105d5565b6040516101e99190612147565b6102646106df565b6040516101e991906128ef565b61023a61027f366004611d9f565b6106e5565b610264610292366004611e7a565b610722565b61023a6102a5366004611d9f565b610782565b61023a6102b8366004611f10565b61079d565b6102646102cb366004611f10565b6107d0565b6102e36102de366004611ffa565b610817565b6040516101e99291906120ed565b61021a6102ff366004611f10565b61085a565b610264610312366004611d44565b610895565b61023a6108de565b61021a610967565b61023a610335366004611edd565b610976565b6101fa6109be565b61023a610350366004611edd565b610a19565b61023a610363366004611e49565b610a61565b61023a610376366004611ddf565b610b2f565b61038e610389366004611f10565b610b6e565b6040516101e99190612106565b61023a6103a9366004611f28565b610c7d565b6101fa610c92565b6101fa6103c4366004611f10565b610ced565b6101fa610d1d565b6101dc6103df366004611d67565b610d75565b61023a6103f2366004611d44565b610da3565b6001600160e01b03191660009081526001602052604090205460ff1690565b600d805460408051602060026001851615610100026000190190941693909304601f8101849004840282018401909252818152929183018282801561049c5780601f106104715761010080835404028352916020019161049c565b820191906000526020600020905b81548152906001019060200180831161047f57829003601f168201915b505050505081565b60006104af82610e63565b6104d45760405162461bcd60e51b81526004016104cb90612560565b60405180910390fd5b506000908152600660205260409020546001600160a01b031690565b60006104fb8261085a565b9050806001600160a01b0316836001600160a01b0316141561052f5760405162461bcd60e51b81526004016104cb906126e7565b806001600160a01b0316610541610e80565b6001600160a01b0316148061055d575061055d816103df610e80565b6105795760405162461bcd60e51b81526004016104cb90612414565b60008281526006602052604080822080546001600160a01b0319166001600160a01b0387811691821790925591518593918516917f8c5be1e5ebec7d5bd14f71427d1e84f3dd0314c0f7b2291e5b200ac8c7c3b92591a4505050565b6000818152600f602090815260408083208054825181850281018501909352808352606094859484015b82821015610647576000848152602090819020604080518082019091526002850290910180546001600160a01b031682526001908101548284015290835290920191016105ff565b5050505090506060815167ffffffffffffffff8111801561066757600080fd5b50604051908082528060200260200182016040528015610691578160200160208202803683370190505b50905060005b82518110156106d7578281815181106106ac57fe5b6020026020010151602001518282815181106106c457fe5b6020908102919091010152600101610697565b509392505050565b600b5490565b6106f66106f0610e80565b82610e84565b6107125760405162461bcd60e51b81526004016104cb90612744565b61071d838383610f09565b505050565b600061072d83610895565b821061074b5760405162461bcd60e51b81526004016104cb906121af565b6001600160a01b038316600090815260096020526040902080548390811061076f57fe5b9060005260206000200154905092915050565b61071d83838360405180602001604052806000815250610b2f565b6107a86106f0610e80565b6107c45760405162461bcd60e51b81526004016104cb90612892565b6107cd81610f28565b50565b60006107da6106df565b82106107f85760405162461bcd60e51b81526004016104cb906127a1565b600b828154811061080557fe5b90600052602060002001549050919050565b600f602052816000526040600020818154811061083057fe5b6000918252602090912060029091020180546001909101546001600160a01b039091169250905082565b6000818152600560205260408120546001600160a01b03168061088f5760405162461bcd60e51b81526004016104cb906124ce565b92915050565b60006001600160a01b0382166108bd5760405162461bcd60e51b81526004016104cb90612471565b6001600160a01b038216600090815260076020526040902061088f90610f3a565b6108e6610e80565b6001600160a01b03166108f7610967565b6001600160a01b03161461091d5760405162461bcd60e51b81526004016104cb906125f8565b600080546040516001600160a01b03909116907f8be0079c531659141344cd1fd0a4f28419497f9722a3daafe3b4186f6b6457e0908390a3600080546001600160a01b0319169055565b6000546001600160a01b031690565b61097e610e80565b6001600160a01b031661098f610967565b6001600160a01b0316146109b55760405162461bcd60e51b81526004016104cb906125f8565b6107cd81610f3e565b600e805460408051602060026001851615610100026000190190941693909304601f8101849004840282018401909252818152929183018282801561049c5780601f106104715761010080835404028352916020019161049c565b610a21610e80565b6001600160a01b0316610a32610967565b6001600160a01b031614610a585760405162461bcd60e51b81526004016104cb906125f8565b6107cd81610f55565b610a69610e80565b6001600160a01b0316826001600160a01b03161415610a9a5760405162461bcd60e51b81526004016104cb9061235a565b8060086000610aa7610e80565b6001600160a01b03908116825260208083019390935260409182016000908120918716808252919093529120805460ff191692151592909217909155610aeb610e80565b6001600160a01b03167f17307eab39ab6107e8899845ad3d59bd9653f200f220920489ca2b5937696c3183604051610b23919061215a565b60405180910390a35050565b610b40610b3a610e80565b83610e84565b610b5c5760405162461bcd60e51b81526004016104cb90612744565b610b6884848484610f68565b50505050565b6000818152600f602090815260408083208054825181850281018501909352808352606094859484015b82821015610be0576000848152602090819020604080518082019091526002850290910180546001600160a01b03168252600190810154828401529083529092019101610b98565b5050505090506060815167ffffffffffffffff81118015610c0057600080fd5b50604051908082528060200260200182016040528015610c2a578160200160208202803683370190505b50905060005b82518110156106d757828181518110610c4557fe5b602002602001015160000151828281518110610c5d57fe5b6001600160a01b0390921660209283029190910190910152600101610c30565b610c88338484610f9b565b61071d83826111ee565b6003805460408051602060026001851615610100026000190190941693909304601f8101849004840282018401909252818152929183018282801561049c5780601f106104715761010080835404028352916020019161049c565b6060610cf882610e63565b610d145760405162461bcd60e51b81526004016104cb9061268a565b61088f8261121d565b6002805460408051602060018416156101000260001901909316849004601f8101849004840282018401909252818152929183018282801561049c5780601f106104715761010080835404028352916020019161049c565b6001600160a01b03918216600090815260086020908152604080832093909416825291909152205460ff1690565b610dab610e80565b6001600160a01b0316610dbc610967565b6001600160a01b031614610de25760405162461bcd60e51b81526004016104cb906125f8565b6001600160a01b038116610e085760405162461bcd60e51b81526004016104cb90612269565b600080546040516001600160a01b03808516939216917f8be0079c531659141344cd1fd0a4f28419497f9722a3daafe3b4186f6b6457e091a3600080546001600160a01b0319166001600160a01b0392909216919091179055565b6000908152600560205260409020546001600160a01b0316151590565b3390565b6000610e8f82610e63565b610eab5760405162461bcd60e51b81526004016104cb906123c8565b6000610eb68361085a565b9050806001600160a01b0316846001600160a01b03161480610ef15750836001600160a01b0316610ee6846104a4565b6001600160a01b0316145b80610f015750610f018185610d75565b949350505050565b610f14838383611358565b610f1e838261145e565b61071d828261155a565b6107cd610f348261085a565b82611598565b5490565b8051610f51906002906020840190611bcc565b5050565b8051610f51906003906020840190611bcc565b610f73848484610f09565b610f7f848484846115ab565b610b685760405162461bcd60e51b81526004016104cb9061220c565b610fa583836116fa565b6060815167ffffffffffffffff81118015610fbf57600080fd5b50604051908082528060200260200182016040528015610fe9578160200160208202803683370190505b5090506060825167ffffffffffffffff8111801561100657600080fd5b50604051908082528060200260200182016040528015611030578160200160208202803683370190505b50905060005b83518110156111a35760006001600160a01b031684828151811061105657fe5b6020026020010151600001516001600160a01b031614156110895760405162461bcd60e51b81526004016104cb9061285b565b83818151811061109557fe5b602002602001015160200151600014156110c15760405162461bcd60e51b81526004016104cb90612178565b6000858152600f6020526040902084518590839081106110dd57fe5b602090810291909101810151825460018082018555600094855293839020825160029092020180546001600160a01b0319166001600160a01b03909216919091178155910151910155835184908290811061113457fe5b60200260200101516000015183828151811061114c57fe5b60200260200101906001600160a01b031690816001600160a01b03168152505083818151811061117857fe5b60200260200101516020015182828151811061119057fe5b6020908102919091010152600101611036565b508251156111e7577f99aba1d63749cfd5ad1afda7c4663840924d54eb5f005bbbeadedc6ec13674b28483836040516111de939291906128f8565b60405180910390a15b5050505050565b6111f782610e63565b6112135760405162461bcd60e51b81526004016104cb906125ac565b610f518282611717565b6000818152600460209081526040918290208054835160026001831615610100026000190190921691909104601f810184900484028201840190945283815260609361088f939192918301828280156112b75780601f1061128c576101008083540402835291602001916112b7565b820191906000526020600020905b81548152906001019060200180831161129a57829003601f168201915b505060038054604080516020601f60026000196101006001881615020190951694909404938401819004810282018101909252828152955091935091508301828280156113455780601f1061131a57610100808354040283529160200191611345565b820191906000526020600020905b81548152906001019060200180831161132857829003601f168201915b505050505061173690919063ffffffff16565b826001600160a01b031661136b8261085a565b6001600160a01b0316146113915760405162461bcd60e51b81526004016104cb9061262d565b6001600160a01b0382166113b75760405162461bcd60e51b81526004016104cb906122fd565b6113c08161186e565b6001600160a01b03831660009081526007602052604090206113e1906118a9565b6001600160a01b0382166000908152600760205260409020611402906118ba565b60008181526005602052604080822080546001600160a01b0319166001600160a01b0386811691821790925591518493918716917fddf252ad1be2c89b69c2b068fc378daa952ba7f163c4a11628f55a4df523b3ef91a4505050565b6001600160a01b0382166000908152600960205260408120546114829060016118c3565b6000838152600a602052604090205490915080821461151d576001600160a01b03841660009081526009602052604081208054849081106114bf57fe5b906000526020600020015490508060096000876001600160a01b03166001600160a01b0316815260200190815260200160002083815481106114fd57fe5b6000918252602080832090910192909255918252600a9052604090208190555b6001600160a01b038416600090815260096020526040902080548061153e57fe5b6001900381819060005260206000200160009055905550505050565b6001600160a01b0390911660009081526009602081815260408084208054868652600a84529185208290559282526001810183559183529091200155565b6115a282826118eb565b610f5181611917565b60006115bf846001600160a01b0316611955565b6115cb57506001610f01565b600060606001600160a01b038616630a85bd0160e11b6115e9610e80565b8988886040516024016115ff94939291906120b1565b60408051601f198184030181529181526020820180517bffffffffffffffffffffffffffffffffffffffffffffffffffffffff166001600160e01b03199094169390931790925290516116529190612081565b6000604051808303816000865af19150503d806000811461168f576040519150601f19603f3d011682016040523d82523d6000602084013e611694565b606091505b5091509150816116c6578051156116ae5780518082602001fd5b60405162461bcd60e51b81526004016104cb9061220c565b6000818060200190518101906116dc9190611ec1565b6001600160e01b031916630a85bd0160e11b149350610f0192505050565b611704828261195b565b61170e828261155a565b610f5181611a22565b6000828152600460209081526040909120825161071d92840190611bcc565b805182516060918491849184910167ffffffffffffffff8111801561175a57600080fd5b506040519080825280601f01601f191660200182016040528015611785576020820181803683370190505b5090506000805b84518110156117f5578481815181106117a157fe5b602001015160f81c60f81b8383806001019450815181106117be57fe5b60200101907effffffffffffffffffffffffffffffffffffffffffffffffffffffffffffff1916908160001a90535060010161178c565b5060005b83518110156118625783818151811061180e57fe5b602001015160f81c60f81b83838060010194508151811061182b57fe5b60200101907effffffffffffffffffffffffffffffffffffffffffffffffffffffffffffff1916908160001a9053506001016117f9565b50909695505050505050565b6000818152600660205260409020546001600160a01b0316156107cd57600090815260066020526040902080546001600160a01b0319169055565b80546118b69060016118c3565b9055565b80546001019055565b6000828211156118e55760405162461bcd60e51b81526004016104cb90612391565b50900390565b6118f58282611a66565b6118ff828261145e565b6000818152600a6020526040812055610f5181611b1e565b60008181526004602052604090205460026000196101006001841615020190911604156107cd5760008181526004602052604081206107cd91611c4a565b3b151590565b6001600160a01b0382166119815760405162461bcd60e51b81526004016104cb9061252b565b61198a81610e63565b156119a75760405162461bcd60e51b81526004016104cb906122c6565b600081815260056020908152604080832080546001600160a01b0319166001600160a01b0387169081179091558352600790915290206119e6906118ba565b60405181906001600160a01b038416906000907fddf252ad1be2c89b69c2b068fc378daa952ba7f163c4a11628f55a4df523b3ef908290a45050565b600b80546000838152600c60205260408120829055600182018355919091527f0175b7a638427703f0dbe7bb9bbf987a2551717b34e79f33b5b1008d1fa01db90155565b816001600160a01b0316611a798261085a565b6001600160a01b031614611a9f5760405162461bcd60e51b81526004016104cb906127fe565b611aa88161186e565b6001600160a01b0382166000908152600760205260409020611ac9906118a9565b60008181526005602052604080822080546001600160a01b0319169055518291906001600160a01b038516907fddf252ad1be2c89b69c2b068fc378daa952ba7f163c4a11628f55a4df523b3ef908390a45050565b600b54600090611b2f9060016118c3565b6000838152600c6020526040812054600b8054939450909284908110611b5157fe5b9060005260206000200154905080600b8381548110611b6c57fe5b6000918252602080832090910192909255828152600c90915260409020829055600b805480611b9757fe5b600190038181906000526020600020016000905590556000600c60008681526020019081526020016000208190555050505050565b828054600181600116156101000203166002900490600052602060002090601f016020900481019282601f10611c0d57805160ff1916838001178555611c3a565b82800160010185558215611c3a579182015b82811115611c3a578251825591602001919060010190611c1f565b50611c46929150611c8a565b5090565b50805460018160011615610100020316600290046000825580601f10611c7057506107cd565b601f0160209004906000526020600020908101906107cd91905b5b80821115611c465760008155600101611c8b565b600082601f830112611caf578081fd5b813567ffffffffffffffff811115611cc5578182fd5b611cd8601f8201601f1916602001612961565b9150808252836020828501011115611cef57600080fd5b8060208401602084013760009082016020015292915050565b600060408284031215611d19578081fd5b611d236040612961565b90508135611d30816129d4565b808252506020820135602082015292915050565b600060208284031215611d55578081fd5b8135611d60816129d4565b9392505050565b60008060408385031215611d79578081fd5b8235611d84816129d4565b91506020830135611d94816129d4565b809150509250929050565b600080600060608486031215611db3578081fd5b8335611dbe816129d4565b92506020840135611dce816129d4565b929592945050506040919091013590565b60008060008060808587031215611df4578081fd5b8435611dff816129d4565b93506020850135611e0f816129d4565b925060408501359150606085013567ffffffffffffffff811115611e31578182fd5b611e3d87828801611c9f565b91505092959194509250565b60008060408385031215611e5b578182fd5b8235611e66816129d4565b915060208301358015158114611d94578182fd5b60008060408385031215611e8c578182fd5b8235611e97816129d4565b946020939093013593505050565b600060208284031215611eb6578081fd5b8135611d60816129e9565b600060208284031215611ed2578081fd5b8151611d60816129e9565b600060208284031215611eee578081fd5b813567ffffffffffffffff811115611f04578182fd5b610f0184828501611c9f565b600060208284031215611f21578081fd5b5035919050565b600080600060608486031215611f3c578283fd5b8335925060208085013567ffffffffffffffff80821115611f5b578485fd5b818701915087601f830112611f6e578485fd5b8135611f81611f7c82612988565b612961565b818152848101908486016040808502870188018d1015611f9f57898afd5b8996505b84871015611fcb57611fb58d83611d08565b8452600196909601959287019290810190611fa3565b919850508901359450505080831115611fe2578384fd5b5050611ff086828701611c9f565b9150509250925092565b6000806040838503121561200c578182fd5b50508035926020909101359150565b6000815180845260208085019450808401835b8381101561204a5781518752958201959082019060010161202e565b509495945050505050565b6000815180845261206d8160208601602086016129a8565b601f01601f19169290920160200192915050565b600082516120938184602087016129a8565b9190910192915050565b6001600160a01b0391909116815260200190565b60006001600160a01b038087168352808616602084015250836040830152608060608301526120e36080830184612055565b9695505050505050565b6001600160a01b03929092168252602082015260400190565b6020808252825182820181905260009190848201906040850190845b818110156118625783516001600160a01b031683529284019291840191600101612122565b600060208252611d60602083018461201b565b901515815260200190565b600060208252611d606020830184612055565b6020808252601c908201527f4665652076616c75652073686f756c6420626520706f73697469766500000000604082015260600190565b6020808252602b908201527f455243373231456e756d657261626c653a206f776e657220696e646578206f7560408201527f74206f6620626f756e6473000000000000000000000000000000000000000000606082015260800190565b60208082526032908201527f4552433732313a207472616e7366657220746f206e6f6e20455243373231526560408201527f63656976657220696d706c656d656e7465720000000000000000000000000000606082015260800190565b60208082526026908201527f4f776e61626c653a206e6577206f776e657220697320746865207a65726f206160408201527f6464726573730000000000000000000000000000000000000000000000000000606082015260800190565b6020808252601c908201527f4552433732313a20746f6b656e20616c7265616479206d696e74656400000000604082015260600190565b60208082526024908201527f4552433732313a207472616e7366657220746f20746865207a65726f2061646460408201527f7265737300000000000000000000000000000000000000000000000000000000606082015260800190565b60208082526019908201527f4552433732313a20617070726f766520746f2063616c6c657200000000000000604082015260600190565b6020808252601e908201527f536166654d6174683a207375627472616374696f6e206f766572666c6f770000604082015260600190565b6020808252602c908201527f4552433732313a206f70657261746f7220717565727920666f72206e6f6e657860408201526b34b9ba32b73a103a37b5b2b760a11b606082015260800190565b60208082526038908201527f4552433732313a20617070726f76652063616c6c6572206973206e6f74206f7760408201527f6e6572206e6f7220617070726f76656420666f7220616c6c0000000000000000606082015260800190565b6020808252602a908201527f4552433732313a2062616c616e636520717565727920666f7220746865207a6560408201527f726f206164647265737300000000000000000000000000000000000000000000606082015260800190565b60208082526029908201527f4552433732313a206f776e657220717565727920666f72206e6f6e657869737460408201527f656e7420746f6b656e0000000000000000000000000000000000000000000000606082015260800190565b6020808252818101527f4552433732313a206d696e7420746f20746865207a65726f2061646472657373604082015260600190565b6020808252602c908201527f4552433732313a20617070726f76656420717565727920666f72206e6f6e657860408201526b34b9ba32b73a103a37b5b2b760a11b606082015260800190565b6020808252602c908201527f4552433732314d657461646174613a2055524920736574206f66206e6f6e657860408201526b34b9ba32b73a103a37b5b2b760a11b606082015260800190565b6020808252818101527f4f776e61626c653a2063616c6c6572206973206e6f7420746865206f776e6572604082015260600190565b60208082526029908201527f4552433732313a207472616e73666572206f6620746f6b656e2074686174206960408201527f73206e6f74206f776e0000000000000000000000000000000000000000000000606082015260800190565b6020808252602f908201527f4552433732314d657461646174613a2055524920717565727920666f72206e6f60408201527f6e6578697374656e7420746f6b656e0000000000000000000000000000000000606082015260800190565b60208082526021908201527f4552433732313a20617070726f76616c20746f2063757272656e74206f776e6560408201527f7200000000000000000000000000000000000000000000000000000000000000606082015260800190565b60208082526031908201527f4552433732313a207472616e736665722063616c6c6572206973206e6f74206f60408201527f776e6572206e6f7220617070726f766564000000000000000000000000000000606082015260800190565b6020808252602c908201527f455243373231456e756d657261626c653a20676c6f62616c20696e646578206f60408201527f7574206f6620626f756e64730000000000000000000000000000000000000000606082015260800190565b60208082526025908201527f4552433732313a206275726e206f6620746f6b656e2074686174206973206e6f60408201527f74206f776e000000000000000000000000000000000000000000000000000000606082015260800190565b6020808252601b908201527f526563697069656e742073686f756c642062652070726573656e740000000000604082015260600190565b60208082526030908201527f4552433732314275726e61626c653a2063616c6c6572206973206e6f74206f7760408201527f6e6572206e6f7220617070726f76656400000000000000000000000000000000606082015260800190565b90815260200190565b60006060820185835260206060818501528186518084526080860191508288019350845b818110156129415784516001600160a01b03168352938301939183019160010161291c565b50508481036040860152612955818761201b565b98975050505050505050565b60405181810167ffffffffffffffff8111828210171561298057600080fd5b604052919050565b600067ffffffffffffffff82111561299e578081fd5b5060209081020190565b60005b838110156129c35781810151838201526020016129ab565b83811115610b685750506000910152565b6001600160a01b03811681146107cd57600080fd5b6001600160e01b0319811681146107cd57600080fdfea2646970667358221220e2240260bec13b13010da3b3c96ebaa02118bd6cfbfb6401f06b7b3c06f8d07e64736f6c634300060c00338be0079c531659141344cd1fd0a4f28419497f9722a3daafe3b4186f6b6457e0",
  "immutableReferences": {},
  "source": "pragma solidity ^0.6.12;\npragma experimental ABIEncoderV2;\n\nimport \"../lib/interface/IERC721.sol\";\nimport \"../lib/contracts/ERC721Base.sol\";\nimport \"@openzeppelin/contracts/access/Ownable.sol\";\n\n/**\n * @title DavinciToken\n * @dev anyone can mint token.\n */\ncontract DavinciToken is Ownable, IERC721, ERC721Base {\n\n    constructor (string memory name, string memory symbol, address newOwner, string memory contractURI, string memory tokenURIPrefix) public ERC721Base(name, symbol, contractURI, tokenURIPrefix) {\n        _registerInterface(bytes4(keccak256('MINT_WITH_ADDRESS')));\n        transferOwnership(newOwner);\n    }\n    \n    function mint(uint256 tokenId, Fee[] memory _fees, string memory tokenURI) public {        \n        _mint(msg.sender, tokenId, _fees);\n        _setTokenURI(tokenId, tokenURI);\n    }\n\n    function setTokenURIPrefix(string memory tokenURIPrefix) public onlyOwner {\n        _setTokenURIPrefix(tokenURIPrefix);\n    }\n\n    function setContractURI(string memory contractURI) public onlyOwner {\n        _setContractURI(contractURI);\n    }\n}",
  "sourcePath": "/Users/jenya/IdeaProjects/davinci_nft_marketplace/contracts/token/DavinciToken.sol",
  "compiler": {
    "name": "solc",
    "version": "0.6.12+commit.27d51765.Emscripten.clang"
  },
  "schemaVersion": "3.3.4",
  "updatedAt": "2021-03-04T15:37:43.995Z",
  "devdoc": {
    "details": "anyone can mint token.",
    "kind": "dev",
    "methods": {
      "approve(address,uint256)": {
        "details": "Approves another address to transfer the given token ID The zero address indicates there is no approved address. There can only be one approved address per token at a given time. Can only be called by the token owner or an approved operator.",
        "params": {
          "to": "address to be approved for the given token ID",
          "tokenId": "uint256 ID of the token to be approved"
        }
      },
      "balanceOf(address)": {
        "details": "Gets the balance of the specified address.",
        "params": {
          "owner": "address to query the balance of"
        },
        "returns": {
          "_0": "uint256 representing the amount owned by the passed address"
        }
      },
      "burn(uint256)": {
        "details": "Burns a specific ERC721 token.",
        "params": {
          "tokenId": "uint256 id of the ERC721 token to be burned."
        }
      },
      "getApproved(uint256)": {
        "details": "Gets the approved address for a token ID, or zero if no address set Reverts if the token ID does not exist.",
        "params": {
          "tokenId": "uint256 ID of the token to query the approval of"
        },
        "returns": {
          "_0": "address currently approved for the given token ID"
        }
      },
      "isApprovedForAll(address,address)": {
        "details": "Tells whether an operator is approved by a given owner.",
        "params": {
          "operator": "operator address which you want to query the approval of",
          "owner": "owner address which you want to query the approval of"
        },
        "returns": {
          "_0": "bool whether the given operator is approved by the given owner"
        }
      },
      "owner()": {
        "details": "Returns the address of the current owner."
      },
      "ownerOf(uint256)": {
        "details": "Gets the owner of the specified token ID.",
        "params": {
          "tokenId": "uint256 ID of the token to query the owner of"
        },
        "returns": {
          "_0": "address currently marked as the owner of the given token ID"
        }
      },
      "renounceOwnership()": {
        "details": "Leaves the contract without owner. It will not be possible to call `onlyOwner` functions anymore. Can only be called by the current owner. NOTE: Renouncing ownership will leave the contract without an owner, thereby removing any functionality that is only available to the owner."
      },
      "safeTransferFrom(address,address,uint256)": {
        "details": "Safely transfers the ownership of a given token ID to another address If the target address is a contract, it must implement {IERC721Receiver-onERC721Received}, which is called upon a safe transfer, and return the magic value `bytes4(keccak256(\"onERC721Received(address,address,uint256,bytes)\"))`; otherwise, the transfer is reverted. Requires the msg.sender to be the owner, approved, or operator",
        "params": {
          "from": "current owner of the token",
          "to": "address to receive the ownership of the given token ID",
          "tokenId": "uint256 ID of the token to be transferred"
        }
      },
      "safeTransferFrom(address,address,uint256,bytes)": {
        "details": "Safely transfers the ownership of a given token ID to another address If the target address is a contract, it must implement {IERC721Receiver-onERC721Received}, which is called upon a safe transfer, and return the magic value `bytes4(keccak256(\"onERC721Received(address,address,uint256,bytes)\"))`; otherwise, the transfer is reverted. Requires the _msgSender() to be the owner, approved, or operator",
        "params": {
          "_data": "bytes data to send along with a safe transfer check",
          "from": "current owner of the token",
          "to": "address to receive the ownership of the given token ID",
          "tokenId": "uint256 ID of the token to be transferred"
        }
      },
      "setApprovalForAll(address,bool)": {
        "details": "Sets or unsets the approval of a given operator An operator is allowed to transfer all tokens of the sender on their behalf.",
        "params": {
          "approved": "representing the status of the approval to be set",
          "to": "operator address to set the approval"
        }
      },
      "supportsInterface(bytes4)": {
        "details": "See {IERC165-supportsInterface}. Time complexity O(1), guaranteed to always use less than 30 000 gas."
      },
      "tokenByIndex(uint256)": {
        "details": "Gets the token ID at a given index of all the tokens in this contract Reverts if the index is greater or equal to the total number of tokens.",
        "params": {
          "index": "uint256 representing the index to be accessed of the tokens list"
        },
        "returns": {
          "_0": "uint256 token ID at the given index of the tokens list"
        }
      },
      "tokenOfOwnerByIndex(address,uint256)": {
        "details": "Gets the token ID at a given index of the tokens list of the requested owner.",
        "params": {
          "index": "uint256 representing the index to be accessed of the requested tokens list",
          "owner": "address owning the tokens list to be accessed"
        },
        "returns": {
          "_0": "uint256 token ID at the given index of the tokens list owned by the requested address"
        }
      },
      "tokenURI(uint256)": {
        "details": "Returns an URI for a given token ID. Throws if the token ID does not exist. May return an empty string.",
        "params": {
          "tokenId": "uint256 ID of the token to query"
        }
      },
      "totalSupply()": {
        "details": "Gets the total amount of tokens stored by the contract.",
        "returns": {
          "_0": "uint256 representing the total amount of tokens"
        }
      },
      "transferFrom(address,address,uint256)": {
        "details": "Transfers the ownership of a given token ID to another address. Usage of this method is discouraged, use {safeTransferFrom} whenever possible. Requires the msg.sender to be the owner, approved, or operator.",
        "params": {
          "from": "current owner of the token",
          "to": "address to receive the ownership of the given token ID",
          "tokenId": "uint256 ID of the token to be transferred"
        }
      },
      "transferOwnership(address)": {
        "details": "Transfers ownership of the contract to a new account (`newOwner`). Can only be called by the current owner."
      }
    },
    "title": "DavinciToken",
    "version": 1
  },
  "userdoc": {
    "kind": "user",
    "methods": {},
    "version": 1
  }
}