{
  "contractName": "DavinciMultipleToken",
  "abi": [
    {
      "inputs": [
        {
          "internalType": "string",
          "name": "_name",
          "type": "string"
        },
        {
          "internalType": "string",
          "name": "_symbol",
          "type": "string"
        },
        {
          "internalType": "address",
          "name": "newOwner",
          "type": "address"
        },
        {
          "internalType": "string",
          "name": "contractURI",
          "type": "string"
        },
        {
          "internalType": "string",
          "name": "tokenURIPrefix",
          "type": "string"
        }
      ],
      "stateMutability": "nonpayable",
      "type": "constructor"
    },
    {
      "anonymous": false,
      "inputs": [
        {
          "indexed": true,
          "internalType": "address",
          "name": "_owner",
          "type": "address"
        },
        {
          "indexed": true,
          "internalType": "address",
          "name": "_operator",
          "type": "address"
        },
        {
          "indexed": false,
          "internalType": "bool",
          "name": "_approved",
          "type": "bool"
        }
      ],
      "name": "ApprovalForAll",
      "type": "event"
    },
    {
      "anonymous": false,
      "inputs": [
        {
          "indexed": true,
          "internalType": "address",
          "name": "previousOwner",
          "type": "address"
        },
        {
          "indexed": true,
          "internalType": "address",
          "name": "newOwner",
          "type": "address"
        }
      ],
      "name": "OwnershipTransferred",
      "type": "event"
    },
    {
      "anonymous": false,
      "inputs": [
        {
          "indexed": false,
          "internalType": "uint256",
          "name": "tokenId",
          "type": "uint256"
        },
        {
          "indexed": false,
          "internalType": "address[]",
          "name": "recipients",
          "type": "address[]"
        },
        {
          "indexed": false,
          "internalType": "uint256[]",
          "name": "bps",
          "type": "uint256[]"
        }
      ],
      "name": "SecondarySaleFees",
      "type": "event"
    },
    {
      "anonymous": false,
      "inputs": [
        {
          "indexed": true,
          "internalType": "address",
          "name": "account",
          "type": "address"
        }
      ],
      "name": "SignerAdded",
      "type": "event"
    },
    {
      "anonymous": false,
      "inputs": [
        {
          "indexed": true,
          "internalType": "address",
          "name": "account",
          "type": "address"
        }
      ],
      "name": "SignerRemoved",
      "type": "event"
    },
    {
      "anonymous": false,
      "inputs": [
        {
          "indexed": true,
          "internalType": "address",
          "name": "_operator",
          "type": "address"
        },
        {
          "indexed": true,
          "internalType": "address",
          "name": "_from",
          "type": "address"
        },
        {
          "indexed": true,
          "internalType": "address",
          "name": "_to",
          "type": "address"
        },
        {
          "indexed": false,
          "internalType": "uint256[]",
          "name": "_ids",
          "type": "uint256[]"
        },
        {
          "indexed": false,
          "internalType": "uint256[]",
          "name": "_values",
          "type": "uint256[]"
        }
      ],
      "name": "TransferBatch",
      "type": "event"
    },
    {
      "anonymous": false,
      "inputs": [
        {
          "indexed": true,
          "internalType": "address",
          "name": "_operator",
          "type": "address"
        },
        {
          "indexed": true,
          "internalType": "address",
          "name": "_from",
          "type": "address"
        },
        {
          "indexed": true,
          "internalType": "address",
          "name": "_to",
          "type": "address"
        },
        {
          "indexed": false,
          "internalType": "uint256",
          "name": "_id",
          "type": "uint256"
        },
        {
          "indexed": false,
          "internalType": "uint256",
          "name": "_value",
          "type": "uint256"
        }
      ],
      "name": "TransferSingle",
      "type": "event"
    },
    {
      "anonymous": false,
      "inputs": [
        {
          "indexed": false,
          "internalType": "string",
          "name": "_value",
          "type": "string"
        },
        {
          "indexed": true,
          "internalType": "uint256",
          "name": "_id",
          "type": "uint256"
        }
      ],
      "name": "URI",
      "type": "event"
    },
    {
      "inputs": [
        {
          "internalType": "address",
          "name": "_owner",
          "type": "address"
        },
        {
          "internalType": "uint256",
          "name": "_id",
          "type": "uint256"
        }
      ],
      "name": "balanceOf",
      "outputs": [
        {
          "internalType": "uint256",
          "name": "",
          "type": "uint256"
        }
      ],
      "stateMutability": "view",
      "type": "function"
    },
    {
      "inputs": [
        {
          "internalType": "address[]",
          "name": "_owners",
          "type": "address[]"
        },
        {
          "internalType": "uint256[]",
          "name": "_ids",
          "type": "uint256[]"
        }
      ],
      "name": "balanceOfBatch",
      "outputs": [
        {
          "internalType": "uint256[]",
          "name": "",
          "type": "uint256[]"
        }
      ],
      "stateMutability": "view",
      "type": "function"
    },
    {
      "inputs": [
        {
          "internalType": "address",
          "name": "_owner",
          "type": "address"
        },
        {
          "internalType": "uint256",
          "name": "_id",
          "type": "uint256"
        },
        {
          "internalType": "uint256",
          "name": "_value",
          "type": "uint256"
        }
      ],
      "name": "burn",
      "outputs": [],
      "stateMutability": "nonpayable",
      "type": "function"
    },
    {
      "inputs": [],
      "name": "contractURI",
      "outputs": [
        {
          "internalType": "string",
          "name": "",
          "type": "string"
        }
      ],
      "stateMutability": "view",
      "type": "function"
    },
    {
      "inputs": [
        {
          "internalType": "uint256",
          "name": "",
          "type": "uint256"
        }
      ],
      "name": "creators",
      "outputs": [
        {
          "internalType": "address",
          "name": "",
          "type": "address"
        }
      ],
      "stateMutability": "view",
      "type": "function"
    },
    {
      "inputs": [
        {
          "internalType": "uint256",
          "name": "",
          "type": "uint256"
        },
        {
          "internalType": "uint256",
          "name": "",
          "type": "uint256"
        }
      ],
      "name": "fees",
      "outputs": [
        {
          "internalType": "address payable",
          "name": "recipient",
          "type": "address"
        },
        {
          "internalType": "uint256",
          "name": "value",
          "type": "uint256"
        }
      ],
      "stateMutability": "view",
      "type": "function"
    },
    {
      "inputs": [
        {
          "internalType": "uint256",
          "name": "id",
          "type": "uint256"
        }
      ],
      "name": "getFeeBps",
      "outputs": [
        {
          "internalType": "uint256[]",
          "name": "",
          "type": "uint256[]"
        }
      ],
      "stateMutability": "view",
      "type": "function"
    },
    {
      "inputs": [
        {
          "internalType": "uint256",
          "name": "id",
          "type": "uint256"
        }
      ],
      "name": "getFeeRecipients",
      "outputs": [
        {
          "internalType": "address payable[]",
          "name": "",
          "type": "address[]"
        }
      ],
      "stateMutability": "view",
      "type": "function"
    },
    {
      "inputs": [
        {
          "internalType": "address",
          "name": "_owner",
          "type": "address"
        },
        {
          "internalType": "address",
          "name": "_operator",
          "type": "address"
        }
      ],
      "name": "isApprovedForAll",
      "outputs": [
        {
          "internalType": "bool",
          "name": "",
          "type": "bool"
        }
      ],
      "stateMutability": "view",
      "type": "function"
    },
    {
      "inputs": [
        {
          "internalType": "address",
          "name": "account",
          "type": "address"
        }
      ],
      "name": "isSigner",
      "outputs": [
        {
          "internalType": "bool",
          "name": "",
          "type": "bool"
        }
      ],
      "stateMutability": "view",
      "type": "function"
    },
    {
      "inputs": [],
      "name": "name",
      "outputs": [
        {
          "internalType": "string",
          "name": "",
          "type": "string"
        }
      ],
      "stateMutability": "view",
      "type": "function"
    },
    {
      "inputs": [],
      "name": "owner",
      "outputs": [
        {
          "internalType": "address",
          "name": "",
          "type": "address"
        }
      ],
      "stateMutability": "view",
      "type": "function"
    },
    {
      "inputs": [],
      "name": "renounceOwnership",
      "outputs": [],
      "stateMutability": "nonpayable",
      "type": "function"
    },
    {
      "inputs": [],
      "name": "renounceSigner",
      "outputs": [],
      "stateMutability": "nonpayable",
      "type": "function"
    },
    {
      "inputs": [
        {
          "internalType": "address",
          "name": "_from",
          "type": "address"
        },
        {
          "internalType": "address",
          "name": "_to",
          "type": "address"
        },
        {
          "internalType": "uint256[]",
          "name": "_ids",
          "type": "uint256[]"
        },
        {
          "internalType": "uint256[]",
          "name": "_values",
          "type": "uint256[]"
        },
        {
          "internalType": "bytes",
          "name": "_data",
          "type": "bytes"
        }
      ],
      "name": "safeBatchTransferFrom",
      "outputs": [],
      "stateMutability": "nonpayable",
      "type": "function"
    },
    {
      "inputs": [
        {
          "internalType": "address",
          "name": "_from",
          "type": "address"
        },
        {
          "internalType": "address",
          "name": "_to",
          "type": "address"
        },
        {
          "internalType": "uint256",
          "name": "_id",
          "type": "uint256"
        },
        {
          "internalType": "uint256",
          "name": "_value",
          "type": "uint256"
        },
        {
          "internalType": "bytes",
          "name": "_data",
          "type": "bytes"
        }
      ],
      "name": "safeTransferFrom",
      "outputs": [],
      "stateMutability": "nonpayable",
      "type": "function"
    },
    {
      "inputs": [
        {
          "internalType": "address",
          "name": "_operator",
          "type": "address"
        },
        {
          "internalType": "bool",
          "name": "_approved",
          "type": "bool"
        }
      ],
      "name": "setApprovalForAll",
      "outputs": [],
      "stateMutability": "nonpayable",
      "type": "function"
    },
    {
      "inputs": [
        {
          "internalType": "string",
          "name": "contractURI",
          "type": "string"
        }
      ],
      "name": "setContractURI",
      "outputs": [],
      "stateMutability": "nonpayable",
      "type": "function"
    },
    {
      "inputs": [
        {
          "internalType": "string",
          "name": "tokenURIPrefix",
          "type": "string"
        }
      ],
      "name": "setTokenURIPrefix",
      "outputs": [],
      "stateMutability": "nonpayable",
      "type": "function"
    },
    {
      "inputs": [
        {
          "internalType": "bytes4",
          "name": "interfaceId",
          "type": "bytes4"
        }
      ],
      "name": "supportsInterface",
      "outputs": [
        {
          "internalType": "bool",
          "name": "",
          "type": "bool"
        }
      ],
      "stateMutability": "view",
      "type": "function"
    },
    {
      "inputs": [],
      "name": "symbol",
      "outputs": [
        {
          "internalType": "string",
          "name": "",
          "type": "string"
        }
      ],
      "stateMutability": "view",
      "type": "function"
    },
    {
      "inputs": [],
      "name": "tokenURIPrefix",
      "outputs": [
        {
          "internalType": "string",
          "name": "",
          "type": "string"
        }
      ],
      "stateMutability": "view",
      "type": "function"
    },
    {
      "inputs": [
        {
          "internalType": "address",
          "name": "newOwner",
          "type": "address"
        }
      ],
      "name": "transferOwnership",
      "outputs": [],
      "stateMutability": "nonpayable",
      "type": "function"
    },
    {
      "inputs": [
        {
          "internalType": "uint256",
          "name": "_id",
          "type": "uint256"
        }
      ],
      "name": "uri",
      "outputs": [
        {
          "internalType": "string",
          "name": "",
          "type": "string"
        }
      ],
      "stateMutability": "view",
      "type": "function"
    },
    {
      "inputs": [
        {
          "internalType": "address",
          "name": "account",
          "type": "address"
        }
      ],
      "name": "addSigner",
      "outputs": [],
      "stateMutability": "nonpayable",
      "type": "function"
    },
    {
      "inputs": [
        {
          "internalType": "address",
          "name": "account",
          "type": "address"
        }
      ],
      "name": "removeSigner",
      "outputs": [],
      "stateMutability": "nonpayable",
      "type": "function"
    },
    {
      "inputs": [
        {
          "internalType": "uint256",
          "name": "id",
          "type": "uint256"
        },
        {
          "components": [
            {
              "internalType": "address payable",
              "name": "recipient",
              "type": "address"
            },
            {
              "internalType": "uint256",
              "name": "value",
              "type": "uint256"
            }
          ],
          "internalType": "struct ERC1155Base.Fee[]",
          "name": "fees",
          "type": "tuple[]"
        },
        {
          "internalType": "uint256",
          "name": "supply",
          "type": "uint256"
        },
        {
          "internalType": "string",
          "name": "uri",
          "type": "string"
        }
      ],
      "name": "mint",
      "outputs": [],
      "stateMutability": "nonpayable",
      "type": "function"
    }
  ],
  "bytecode": "0x60806040523480156200001157600080fd5b50604051620031df380380620031df8339810160408190526200003491620004d5565b81818181806200004b6301ffc9a760e01b6200017c565b6200005d632dde656160e21b6200017c565b600062000069620001d7565b600180546001600160a01b0319166001600160a01b03831690811790915560405191925090600090600080516020620031bf833981519152908290a350620000ba620000b4620001d7565b620001db565b8051620000cf90600390602084019062000392565b50508151620000e79150600590602084019062000392565b50620000fa63e8a3d48560e01b6200017c565b506200010d636cdb3d1360e11b6200017c565b505084516200012490600a90602088019062000392565b5083516200013a90600b90602087019062000392565b50620001667fe37243f27916e395706434720b54132b80ef5cc8c56f39b0df6485e8dfb697cf6200017c565b62000171836200022d565b5050505050620006d5565b6001600160e01b03198082161415620001b25760405162461bcd60e51b8152600401620001a99062000627565b60405180910390fd5b6001600160e01b0319166000908152602081905260409020805460ff19166001179055565b3390565b620001f6816002620002e760201b6200123f1790919060201c565b6040516001600160a01b038216907f47d1c22a25bb3a5d4e481b9b1e6944c2eade3181a0a20b495ed61d35b5323f2490600090a250565b62000237620001d7565b6001600160a01b03166200024a62000338565b6001600160a01b031614620002735760405162461bcd60e51b8152600401620001a9906200065e565b6001600160a01b0381166200029c5760405162461bcd60e51b8152600401620001a990620005e1565b6001546040516001600160a01b03808416921690600080516020620031bf83398151915290600090a3600180546001600160a01b0319166001600160a01b0392909216919091179055565b620002f3828262000347565b15620003135760405162461bcd60e51b8152600401620001a990620005aa565b6001600160a01b0316600090815260209190915260409020805460ff19166001179055565b6001546001600160a01b031690565b60006001600160a01b038216620003725760405162461bcd60e51b8152600401620001a99062000693565b506001600160a01b03166000908152602091909152604090205460ff1690565b828054600181600116156101000203166002900490600052602060002090601f016020900481019282601f10620003d557805160ff191683800117855562000405565b8280016001018555821562000405579182015b8281111562000405578251825591602001919060010190620003e8565b506200041392915062000417565b5090565b5b8082111562000413576000815560010162000418565b600082601f8301126200043f578081fd5b81516001600160401b038082111562000456578283fd5b6040516020601f8401601f191682018101838111838210171562000478578586fd5b806040525081945083825286818588010111156200049557600080fd5b600092505b83831015620004b957858301810151828401820152918201916200049a565b83831115620004cb5760008185840101525b5050505092915050565b600080600080600060a08688031215620004ed578081fd5b85516001600160401b038082111562000504578283fd5b6200051289838a016200042e565b9650602088015191508082111562000528578283fd5b6200053689838a016200042e565b604089015190965091506001600160a01b038216821462000555578283fd5b6060880151919450808211156200056a578283fd5b6200057889838a016200042e565b935060808801519150808211156200058e578283fd5b506200059d888289016200042e565b9150509295509295909350565b6020808252601f908201527f526f6c65733a206163636f756e7420616c72656164792068617320726f6c6500604082015260600190565b60208082526026908201527f4f776e61626c653a206e6577206f776e657220697320746865207a65726f206160408201526564647265737360d01b606082015260800190565b6020808252601c908201527f4552433136353a20696e76616c696420696e7465726661636520696400000000604082015260600190565b6020808252818101527f4f776e61626c653a2063616c6c6572206973206e6f7420746865206f776e6572604082015260600190565b60208082526022908201527f526f6c65733a206163636f756e7420697320746865207a65726f206164647265604082015261737360f01b606082015260800190565b612ada80620006e56000396000f3fe608060405234801561001057600080fd5b50600436106101b85760003560e01c806395d89b41116100f9578063e8a3d48511610097578063f0cc52a011610071578063f0cc52a01461038c578063f242432a1461039f578063f2fde38b146103b2578063f5298aca146103c5576101b8565b8063e8a3d4851461035e578063e985e9c514610366578063eb12d61e14610379576101b8565b8063b9c4d9fb116100d3578063b9c4d9fb1461031b578063c0ac99831461033b578063cd53d08e14610343578063e5c8b03d14610356576101b8565b806395d89b41146102ed57806399e0dd7c146102f5578063a22cb46514610308576101b8565b80632eb2c2d611610166578063715018a611610140578063715018a6146102aa5780637df73e27146102b25780638da5cb5b146102c5578063938e3d7b146102da576101b8565b80632eb2c2d6146102635780634e1273f4146102765780636308f1cd14610289576101b8565b80630e316ab7116101975780630e316ab71461021b5780630e89341c146102305780630ebd4c7f14610243576101b8565b8062fdd58e146101bd57806301ffc9a7146101e657806306fdde0314610206575b600080fd5b6101d06101cb366004611f97565b6103d8565b6040516101dd91906129be565b60405180910390f35b6101f96101f436600461205f565b6103ff565b6040516101dd9190612402565b61020e61041e565b6040516101dd919061240d565b61022e610229366004611ddd565b6104ac565b005b61020e61023e3660046120d2565b610500565b6102566102513660046120d2565b610511565b6040516101dd91906123ef565b61022e610271366004611e31565b61061b565b610256610284366004611ff6565b610911565b61029c6102973660046121c6565b610a02565b6040516101dd9291906122cd565b61022e610a45565b6101f96102c0366004611ddd565b610adb565b6102cd610ae8565b6040516101dd91906122b9565b61022e6102e8366004612097565b610af7565b61020e610b3f565b61022e610303366004612097565b610b9a565b61022e610316366004611f66565b610be2565b61032e6103293660046120d2565b610c51565b6040516101dd9190612387565b61020e610d60565b6102cd6103513660046120d2565b610dbb565b61022e610dd6565b61020e610de8565b6101f9610374366004611df9565b610e43565b61022e610387366004611ddd565b610e71565b61022e61039a3660046120ea565b610eb9565b61022e6103ad366004611eec565b610ecb565b61022e6103c0366004611ddd565b61107f565b61022e6103d3366004611fc2565b61114d565b60009081526006602090815260408083206001600160a01b03949094168352929052205490565b6001600160e01b03191660009081526020819052604090205460ff1690565b600a805460408051602060026001851615610100026000190190941693909304601f810184900484028201840190925281815292918301828280156104a45780601f10610479576101008083540402835291602001916104a4565b820191906000526020600020905b81548152906001019060200180831161048757829003601f168201915b505050505081565b6104b461128b565b6001600160a01b03166104c5610ae8565b6001600160a01b0316146104f45760405162461bcd60e51b81526004016104eb9061275f565b60405180910390fd5b6104fd8161128f565b50565b606061050b826112d1565b92915050565b60008181526009602090815260408083208054825181850281018501909352808352606094859484015b82821015610583576000848152602090819020604080518082019091526002850290910180546001600160a01b0316825260019081015482840152908352909201910161053b565b5050505090506060815167ffffffffffffffff811180156105a357600080fd5b506040519080825280602002602001820160405280156105cd578160200160208202803683370190505b50905060005b8251811015610613578281815181106105e857fe5b60200260200101516020015182828151811061060057fe5b60209081029190910101526001016105d3565b509392505050565b6001600160a01b0387166106415760405162461bcd60e51b81526004016104eb9061258e565b8483146106605760405162461bcd60e51b81526004016104eb9061285f565b6001600160a01b03881633148061069f57506001600160a01b038816600090815260076020908152604080832033845290915290205460ff1615156001145b6106bb5760405162461bcd60e51b81526004016104eb906126a5565b60005b858110156107f05760008787838181106106d457fe5b90506020020135905060008686848181106106eb57fe5b90506020020135905061073d816006600085815260200190815260200160002060008e6001600160a01b03166001600160a01b031681526020019081526020016000205461140c90919063ffffffff16565b6006600084815260200190815260200160002060008d6001600160a01b03166001600160a01b03168152602001908152602001600020819055506107c06006600084815260200190815260200160002060008c6001600160a01b03166001600160a01b03168152602001908152602001600020548261143490919063ffffffff16565b60009283526006602090815260408085206001600160a01b038e16865290915290922091909155506001016106be565b50866001600160a01b0316886001600160a01b0316336001600160a01b03167f4a39dc06d4c0dbc64b70af90fd698a233a518aa5d07e595d983b8c0526c8f7fb8989898960405161084494939291906123c8565b60405180910390a461085e876001600160a01b0316611460565b156109075761090733898989898080602002602001604051908101604052809392919081815260200183836020028082843760009201919091525050604080516020808d0282810182019093528c82529093508c92508b91829185019084908082843760009201919091525050604080516020601f8c018190048102820181019092528a815292508a915089908190840183828082843760009201919091525061146692505050565b5050505050505050565b606083821461091f57600080fd5b60608467ffffffffffffffff8111801561093857600080fd5b50604051908082528060200260200182016040528015610962578160200160208202803683370190505b50905060005b858110156109f8576006600086868481811061098057fe5b90506020020135815260200190815260200160002060008888848181106109a357fe5b90506020020160208101906109b89190611ddd565b6001600160a01b03166001600160a01b03168152602001908152602001600020548282815181106109e557fe5b6020908102919091010152600101610968565b5095945050505050565b60096020528160005260406000208181548110610a1b57fe5b6000918252602090912060029091020180546001909101546001600160a01b039091169250905082565b610a4d61128b565b6001600160a01b0316610a5e610ae8565b6001600160a01b031614610a845760405162461bcd60e51b81526004016104eb9061275f565b6001546040516000916001600160a01b0316907f8be0079c531659141344cd1fd0a4f28419497f9722a3daafe3b4186f6b6457e0908390a36001805473ffffffffffffffffffffffffffffffffffffffff19169055565b600061050b60028361152e565b6001546001600160a01b031690565b610aff61128b565b6001600160a01b0316610b10610ae8565b6001600160a01b031614610b365760405162461bcd60e51b81526004016104eb9061275f565b6104fd81611576565b600b805460408051602060026001851615610100026000190190941693909304601f810184900484028201840190925281815292918301828280156104a45780601f10610479576101008083540402835291602001916104a4565b610ba261128b565b6001600160a01b0316610bb3610ae8565b6001600160a01b031614610bd95760405162461bcd60e51b81526004016104eb9061275f565b6104fd8161158d565b3360008181526007602090815260408083206001600160a01b038716808552925291829020805460ff191685151517905590519091907f17307eab39ab6107e8899845ad3d59bd9653f200f220920489ca2b5937696c3190610c45908590612402565b60405180910390a35050565b60008181526009602090815260408083208054825181850281018501909352808352606094859484015b82821015610cc3576000848152602090819020604080518082019091526002850290910180546001600160a01b03168252600190810154828401529083529092019101610c7b565b5050505090506060815167ffffffffffffffff81118015610ce357600080fd5b50604051908082528060200260200182016040528015610d0d578160200160208202803683370190505b50905060005b825181101561061357828181518110610d2857fe5b602002602001015160000151828281518110610d4057fe5b6001600160a01b0390921660209283029190910190910152600101610d13565b6003805460408051602060026001851615610100026000190190941693909304601f810184900484028201840190925281815292918301828280156104a45780601f10610479576101008083540402835291602001916104a4565b6008602052600090815260409020546001600160a01b031681565b610de6610de161128b565b61128f565b565b6005805460408051602060026001851615610100026000190190941693909304601f810184900484028201840190925281815292918301828280156104a45780601f10610479576101008083540402835291602001916104a4565b6001600160a01b03918216600090815260076020908152604080832093909416825291909152205460ff1690565b610e7961128b565b6001600160a01b0316610e8a610ae8565b6001600160a01b031614610eb05760405162461bcd60e51b81526004016104eb9061275f565b6104fd816115a0565b610ec5848484846115e2565b50505050565b6001600160a01b038516610ef15760405162461bcd60e51b81526004016104eb90612950565b6001600160a01b038616331480610f3057506001600160a01b038616600090815260076020908152604080832033845290915290205460ff1615156001145b610f4c5760405162461bcd60e51b81526004016104eb906126a5565b60008481526006602090815260408083206001600160a01b038a168452909152902054610f79908461140c565b60008581526006602090815260408083206001600160a01b038b81168552925280832093909355871681522054610fb1908490611434565b60008581526006602090815260408083206001600160a01b03808b168086529190935292819020939093559151909188169033907fc3d58168c5ae7397731d063d5bbf3d657854427343f4c083240f7aacaa2d0f62906110149089908990612a24565b60405180910390a461102e856001600160a01b0316611460565b1561107757611077338787878787878080601f01602080910402602001604051908101604052809392919081815260200183838082843760009201919091525061197792505050565b505050505050565b61108761128b565b6001600160a01b0316611098610ae8565b6001600160a01b0316146110be5760405162461bcd60e51b81526004016104eb9061275f565b6001600160a01b0381166110e45760405162461bcd60e51b81526004016104eb9061248e565b6001546040516001600160a01b038084169216907f8be0079c531659141344cd1fd0a4f28419497f9722a3daafe3b4186f6b6457e090600090a36001805473ffffffffffffffffffffffffffffffffffffffff19166001600160a01b0392909216919091179055565b6001600160a01b03831633148061118c57506001600160a01b038316600090815260076020908152604080832033845290915290205460ff1615156001145b6111a85760405162461bcd60e51b81526004016104eb90612648565b60008281526006602090815260408083206001600160a01b03871684529091529020546111d5908261140c565b60008381526006602090815260408083206001600160a01b038816808552925280832093909355915190919033907fc3d58168c5ae7397731d063d5bbf3d657854427343f4c083240f7aacaa2d0f62906112329087908790612a24565b60405180910390a4505050565b611249828261152e565b156112665760405162461bcd60e51b81526004016104eb90612457565b6001600160a01b0316600090815260209190915260409020805460ff19166001179055565b3390565b61129a600282611a3f565b6040516001600160a01b038216907f3525e22824a8a7df2c9a6029941c824cf95b6447f1e13d5128fd3826d35afe8b90600090a250565b6000818152600460209081526040918290208054835160026001831615610100026000190190921691909104601f810184900484028201840190945283815260609361050b9391929183018282801561136b5780601f106113405761010080835404028352916020019161136b565b820191906000526020600020905b81548152906001019060200180831161134e57829003601f168201915b505060038054604080516020601f60026000196101006001881615020190951694909404938401819004810282018101909252828152955091935091508301828280156113f95780601f106113ce576101008083540402835291602001916113f9565b820191906000526020600020905b8154815290600101906020018083116113dc57829003601f168201915b5050505050611a8790919063ffffffff16565b60008282111561142e5760405162461bcd60e51b81526004016104eb90612557565b50900390565b6000828201838110156114595760405162461bcd60e51b81526004016104eb906124eb565b9392505050565b3b151590565b6040517fbc197c8100000000000000000000000000000000000000000000000000000000808252906001600160a01b0386169063bc197c81906114b5908a908a908990899089906004016122e6565b602060405180830381600087803b1580156114cf57600080fd5b505af11580156114e3573d6000803e3d6000fd5b505050506040513d601f19601f82011682018060405250810190611507919061207b565b6001600160e01b031916146110775760405162461bcd60e51b81526004016104eb90612702565b60006001600160a01b0382166115565760405162461bcd60e51b81526004016104eb90612794565b506001600160a01b03166000908152602091909152604090205460ff1690565b8051611589906005906020840190611c1c565b5050565b8051611589906003906020840190611c1c565b6115ab60028261123f565b6040516001600160a01b038216907f47d1c22a25bb3a5d4e481b9b1e6944c2eade3181a0a20b495ed61d35b5323f2490600090a250565b6000848152600860205260409020546001600160a01b0316156116175760405162461bcd60e51b81526004016104eb906127f1565b816116345760405162461bcd60e51b81526004016104eb90612828565b60008151116116555760405162461bcd60e51b81526004016104eb90612987565b6000848152600860205260409020805473ffffffffffffffffffffffffffffffffffffffff191633179055825160609067ffffffffffffffff8111801561169b57600080fd5b506040519080825280602002602001820160405280156116c5578160200160208202803683370190505b5090506060845167ffffffffffffffff811180156116e257600080fd5b5060405190808252806020026020018201604052801561170c578160200160208202803683370190505b50905060005b855181101561188c5760006001600160a01b031686828151811061173257fe5b6020026020010151600001516001600160a01b031614156117655760405162461bcd60e51b81526004016104eb906128bc565b85818151811061177157fe5b6020026020010151602001516000141561179d5760405162461bcd60e51b81526004016104eb90612420565b600087815260096020526040902086518790839081106117b957fe5b6020908102919091018101518254600180820185556000948552938390208251600290920201805473ffffffffffffffffffffffffffffffffffffffff19166001600160a01b03909216919091178155910151910155855186908290811061181d57fe5b60200260200101516000015183828151811061183557fe5b60200260200101906001600160a01b031690816001600160a01b03168152505085818151811061186157fe5b60200260200101516020015182828151811061187957fe5b6020908102919091010152600101611712565b508451156118d0577f99aba1d63749cfd5ad1afda7c4663840924d54eb5f005bbbeadedc6ec13674b28683836040516118c7939291906129c7565b60405180910390a15b600086815260066020908152604080832033845290915290208490556118f68684611bbf565b604051339060009082907fc3d58168c5ae7397731d063d5bbf3d657854427343f4c083240f7aacaa2d0f629061192f908b908a90612a24565b60405180910390a4857f6bb7ff708619ba0610cba295a58592e0451dee2622938c8755667688daf3529b84604051611967919061240d565b60405180910390a2505050505050565b6040517ff23a6e6100000000000000000000000000000000000000000000000000000000808252906001600160a01b0386169063f23a6e61906119c6908a908a90899089908990600401612344565b602060405180830381600087803b1580156119e057600080fd5b505af11580156119f4573d6000803e3d6000fd5b505050506040513d601f19601f82011682018060405250810190611a18919061207b565b6001600160e01b031916146110775760405162461bcd60e51b81526004016104eb906128f3565b611a49828261152e565b611a655760405162461bcd60e51b81526004016104eb906125eb565b6001600160a01b0316600090815260209190915260409020805460ff19169055565b805182516060918491849184910167ffffffffffffffff81118015611aab57600080fd5b506040519080825280601f01601f191660200182016040528015611ad6576020820181803683370190505b5090506000805b8451811015611b4657848181518110611af257fe5b602001015160f81c60f81b838380600101945081518110611b0f57fe5b60200101907effffffffffffffffffffffffffffffffffffffffffffffffffffffffffffff1916908160001a905350600101611add565b5060005b8351811015611bb357838181518110611b5f57fe5b602001015160f81c60f81b838380600101945081518110611b7c57fe5b60200101907effffffffffffffffffffffffffffffffffffffffffffffffffffffffffffff1916908160001a905350600101611b4a565b50909695505050505050565b6000828152600860205260409020546001600160a01b0316611bf35760405162461bcd60e51b81526004016104eb90612522565b611589828260008281526004602090815260409091208251611c1792840190611c1c565b505050565b828054600181600116156101000203166002900490600052602060002090601f016020900481019282601f10611c5d57805160ff1916838001178555611c8a565b82800160010185558215611c8a579182015b82811115611c8a578251825591602001919060010190611c6f565b50611c96929150611c9a565b5090565b5b80821115611c965760008155600101611c9b565b60008083601f840112611cc0578182fd5b50813567ffffffffffffffff811115611cd7578182fd5b6020830191508360208083028501011115611cf157600080fd5b9250929050565b60008083601f840112611d09578182fd5b50813567ffffffffffffffff811115611d20578182fd5b602083019150836020828501011115611cf157600080fd5b600082601f830112611d48578081fd5b813567ffffffffffffffff811115611d5e578182fd5b611d71601f8201601f1916602001612a32565b9150808252836020828501011115611d8857600080fd5b8060208401602084013760009082016020015292915050565b600060408284031215611db2578081fd5b611dbc6040612a32565b90508135611dc981612a79565b808252506020820135602082015292915050565b600060208284031215611dee578081fd5b813561145981612a79565b60008060408385031215611e0b578081fd5b8235611e1681612a79565b91506020830135611e2681612a79565b809150509250929050565b60008060008060008060008060a0898b031215611e4c578384fd5b8835611e5781612a79565b97506020890135611e6781612a79565b9650604089013567ffffffffffffffff80821115611e83578586fd5b611e8f8c838d01611caf565b909850965060608b0135915080821115611ea7578586fd5b611eb38c838d01611caf565b909650945060808b0135915080821115611ecb578384fd5b50611ed88b828c01611cf8565b999c989b5096995094979396929594505050565b60008060008060008060a08789031215611f04578182fd5b8635611f0f81612a79565b95506020870135611f1f81612a79565b94506040870135935060608701359250608087013567ffffffffffffffff811115611f48578283fd5b611f5489828a01611cf8565b979a9699509497509295939492505050565b60008060408385031215611f78578182fd5b8235611f8381612a79565b915060208301358015158114611e26578182fd5b60008060408385031215611fa9578182fd5b8235611fb481612a79565b946020939093013593505050565b600080600060608486031215611fd6578283fd5b8335611fe181612a79565b95602085013595506040909401359392505050565b6000806000806040858703121561200b578384fd5b843567ffffffffffffffff80821115612022578586fd5b61202e88838901611caf565b90965094506020870135915080821115612046578384fd5b5061205387828801611caf565b95989497509550505050565b600060208284031215612070578081fd5b813561145981612a8e565b60006020828403121561208c578081fd5b815161145981612a8e565b6000602082840312156120a8578081fd5b813567ffffffffffffffff8111156120be578182fd5b6120ca84828501611d38565b949350505050565b6000602082840312156120e3578081fd5b5035919050565b600080600080608085870312156120ff578182fd5b8435935060208086013567ffffffffffffffff8082111561211e578485fd5b818801915088601f830112612131578485fd5b813561214461213f82612a59565b612a32565b818152848101908486016040808502870188018e101561216257898afd5b8996505b8487101561218e576121788e83611da1565b8452600196909601959287019290810190612166565b919950508a01359650505060608801359250808311156121ac578384fd5b50506121ba87828801611d38565b91505092959194509250565b600080604083850312156121d8578182fd5b50508035926020909101359150565b60008284527f07ffffffffffffffffffffffffffffffffffffffffffffffffffffffffffffff831115612218578081fd5b6020830280836020870137939093016020019283525090919050565b6000815180845260208085019450808401835b8381101561226357815187529582019590820190600101612247565b509495945050505050565b60008151808452815b8181101561229357602081850181015186830182015201612277565b818111156122a45782602083870101525b50601f01601f19169290920160200192915050565b6001600160a01b0391909116815260200190565b6001600160a01b03929092168252602082015260400190565b60006001600160a01b03808816835280871660208401525060a0604083015261231260a0830186612234565b82810360608401526123248186612234565b90508281036080840152612338818561226e565b98975050505050505050565b60006001600160a01b03808816835280871660208401525084604083015283606083015260a0608083015261237c60a083018461226e565b979650505050505050565b6020808252825182820181905260009190848201906040850190845b81811015611bb35783516001600160a01b0316835292840192918401916001016123a3565b6000604082526123dc6040830186886121e7565b828103602084015261237c8185876121e7565b6000602082526114596020830184612234565b901515815260200190565b600060208252611459602083018461226e565b6020808252601c908201527f4665652076616c75652073686f756c6420626520706f73697469766500000000604082015260600190565b6020808252601f908201527f526f6c65733a206163636f756e7420616c72656164792068617320726f6c6500604082015260600190565b60208082526026908201527f4f776e61626c653a206e6577206f776e657220697320746865207a65726f206160408201527f6464726573730000000000000000000000000000000000000000000000000000606082015260800190565b6020808252601b908201527f536166654d6174683a206164646974696f6e206f766572666c6f770000000000604082015260600190565b6020808252818101527f5f736574546f6b656e5552493a20546f6b656e2073686f756c64206578697374604082015260600190565b6020808252601e908201527f536166654d6174683a207375627472616374696f6e206f766572666c6f770000604082015260600190565b60208082526025908201527f64657374696e6174696f6e2061646472657373206d757374206265206e6f6e2d60408201527f7a65726f2e000000000000000000000000000000000000000000000000000000606082015260800190565b60208082526021908201527f526f6c65733a206163636f756e7420646f6573206e6f74206861766520726f6c60408201527f6500000000000000000000000000000000000000000000000000000000000000606082015260800190565b6020808252602b908201527f4e656564206f70657261746f7220617070726f76616c20666f7220337264207060408201527f61727479206275726e732e000000000000000000000000000000000000000000606082015260800190565b6020808252602f908201527f4e656564206f70657261746f7220617070726f76616c20666f7220337264207060408201527f61727479207472616e73666572732e0000000000000000000000000000000000606082015260800190565b6020808252603e908201527f636f6e74726163742072657475726e656420616e20756e6b6e6f776e2076616c60408201527f75652066726f6d206f6e45524331313535426174636852656365697665640000606082015260800190565b6020808252818101527f4f776e61626c653a2063616c6c6572206973206e6f7420746865206f776e6572604082015260600190565b60208082526022908201527f526f6c65733a206163636f756e7420697320746865207a65726f20616464726560408201527f7373000000000000000000000000000000000000000000000000000000000000606082015260800190565b60208082526017908201527f546f6b656e20697320616c7265616479206d696e746564000000000000000000604082015260600190565b60208082526019908201527f537570706c792073686f756c6420626520706f73697469766500000000000000604082015260600190565b60208082526029908201527f5f69647320616e64205f76616c756573206172726179206c656e676874206d7560408201527f7374206d617463682e0000000000000000000000000000000000000000000000606082015260800190565b6020808252601b908201527f526563697069656e742073686f756c642062652070726573656e740000000000604082015260600190565b60208082526039908201527f636f6e74726163742072657475726e656420616e20756e6b6e6f776e2076616c60408201527f75652066726f6d206f6e45524331313535526563656976656400000000000000606082015260800190565b60208082526015908201527f5f746f206d757374206265206e6f6e2d7a65726f2e0000000000000000000000604082015260600190565b60208082526011908201527f7572692073686f756c6420626520736574000000000000000000000000000000604082015260600190565b90815260200190565b60006060820185835260206060818501528186518084526080860191508288019350845b81811015612a105784516001600160a01b0316835293830193918301916001016129eb565b505084810360408601526123388187612234565b918252602082015260400190565b60405181810167ffffffffffffffff81118282101715612a5157600080fd5b604052919050565b600067ffffffffffffffff821115612a6f578081fd5b5060209081020190565b6001600160a01b03811681146104fd57600080fd5b6001600160e01b0319811681146104fd57600080fdfea264697066735822122096a2b30bd0f5c53e2cbf4bf81840a02e69d4ddee666a5e1e1fac471fccb033e164736f6c634300060c00338be0079c531659141344cd1fd0a4f28419497f9722a3daafe3b4186f6b6457e0",
  "immutableReferences": {},
  "source": "\npragma solidity ^0.6.12;\npragma experimental ABIEncoderV2;\n\nimport \"@openzeppelin/contracts/access/Ownable.sol\";\nimport \"../lib/utils/SignerRole.sol\";\nimport \"../lib/contracts/ERC1155Base.sol\";\n\ncontract DavinciMultipleToken is Ownable, SignerRole, ERC1155Base {\n    string public name;\n    string public symbol;\n\n    constructor(string memory _name, string memory _symbol, address newOwner, string memory contractURI, string memory tokenURIPrefix) ERC1155Base(contractURI, tokenURIPrefix) public {\n        name = _name;\n        symbol = _symbol;\n\n        _registerInterface(bytes4(keccak256('MINT_WITH_ADDRESS')));\n        transferOwnership(newOwner);\n    }\n\n    function addSigner(address account) public override onlyOwner {\n        _addSigner(account);\n    }\n\n    function removeSigner(address account) public onlyOwner {\n        _removeSigner(account);\n    }\n\n    function mint(uint256 id, Fee[] memory fees, uint256 supply, string memory uri) public {\n        _mint(id, fees, supply, uri);\n    }\n}",
  "sourcePath": "/Users/jenya/IdeaProjects/davinci_nft_marketplace/contracts/token/DavinciMultipleToken.sol",
  "compiler": {
    "name": "solc",
    "version": "0.6.12+commit.27d51765.Emscripten.clang"
  },
  "schemaVersion": "3.3.4",
  "updatedAt": "2021-03-04T15:37:43.978Z",
  "devdoc": {
    "kind": "dev",
    "methods": {
      "balanceOf(address,uint256)": {
        "params": {
          "_id": "ID of the Token",
          "_owner": "The address of the token holder"
        },
        "returns": {
          "_0": "The _owner's balance of the Token type requested"
        }
      },
      "balanceOfBatch(address[],uint256[])": {
        "params": {
          "_ids": "ID of the Tokens",
          "_owners": "The addresses of the token holders"
        },
        "returns": {
          "_0": "The _owner's balance of the Token types requested (i.e. balance for each (owner, id) pair)"
        }
      },
      "isApprovedForAll(address,address)": {
        "params": {
          "_operator": "Address of authorized operator",
          "_owner": "The owner of the Tokens"
        },
        "returns": {
          "_0": "True if the operator is approved, false if not"
        }
      },
      "owner()": {
        "details": "Returns the address of the current owner."
      },
      "renounceOwnership()": {
        "details": "Leaves the contract without owner. It will not be possible to call `onlyOwner` functions anymore. Can only be called by the current owner. NOTE: Renouncing ownership will leave the contract without an owner, thereby removing any functionality that is only available to the owner."
      },
      "safeBatchTransferFrom(address,address,uint256[],uint256[],bytes)": {
        "details": "Caller must be approved to manage the tokens being transferred out of the `_from` account (see \"Approval\" section of the standard). MUST revert if `_to` is the zero address. MUST revert if length of `_ids` is not the same as length of `_values`. MUST revert if any of the balance(s) of the holder(s) for token(s) in `_ids` is lower than the respective amount(s) in `_values` sent to the recipient. MUST revert on any other error. MUST emit `TransferSingle` or `TransferBatch` event(s) such that all the balance changes are reflected (see \"Safe Transfer Rules\" section of the standard). Balance changes and events MUST follow the ordering of the arrays (_ids[0]/_values[0] before _ids[1]/_values[1], etc). After the above conditions for the transfer(s) in the batch are met, this function MUST check if `_to` is a smart contract (e.g. code size > 0). If so, it MUST call the relevant `ERC1155TokenReceiver` hook(s) on `_to` and act appropriately (see \"Safe Transfer Rules\" section of the standard).",
        "params": {
          "_data": "Additional data with no specified format, MUST be sent unaltered in call to the `ERC1155TokenReceiver` hook(s) on `_to`",
          "_from": "Source address",
          "_ids": "IDs of each token type (order and length must match _values array)",
          "_to": "Target address",
          "_values": "Transfer amounts per token type (order and length must match _ids array)"
        }
      },
      "safeTransferFrom(address,address,uint256,uint256,bytes)": {
        "details": "Caller must be approved to manage the tokens being transferred out of the `_from` account (see \"Approval\" section of the standard). MUST revert if `_to` is the zero address. MUST revert if balance of holder for token `_id` is lower than the `_value` sent. MUST revert on any other error. MUST emit the `TransferSingle` event to reflect the balance change (see \"Safe Transfer Rules\" section of the standard). After the above conditions are met, this function MUST check if `_to` is a smart contract (e.g. code size > 0). If so, it MUST call `onERC1155Received` on `_to` and act appropriately (see \"Safe Transfer Rules\" section of the standard).",
        "params": {
          "_data": "Additional data with no specified format, MUST be sent unaltered in call to `onERC1155Received` on `_to`",
          "_from": "Source address",
          "_id": "ID of the token type",
          "_to": "Target address",
          "_value": "Transfer amount"
        }
      },
      "setApprovalForAll(address,bool)": {
        "details": "MUST emit the ApprovalForAll event on success.",
        "params": {
          "_approved": "True if the operator is approved, false to revoke approval",
          "_operator": "Address to add to the set of authorized operators"
        }
      },
      "supportsInterface(bytes4)": {
        "details": "See {IERC165-supportsInterface}. Time complexity O(1), guaranteed to always use less than 30 000 gas."
      },
      "transferOwnership(address)": {
        "details": "Transfers ownership of the contract to a new account (`newOwner`). Can only be called by the current owner."
      },
      "uri(uint256)": {
        "details": "URIs are defined in RFC 3986. The URI may point to a JSON file that conforms to the \"ERC-1155 Metadata URI JSON Schema\".",
        "returns": {
          "_0": "URI string"
        }
      }
    },
    "version": 1
  },
  "userdoc": {
    "kind": "user",
    "methods": {
      "balanceOf(address,uint256)": {
        "notice": "Get the balance of an account's Tokens."
      },
      "balanceOfBatch(address[],uint256[])": {
        "notice": "Get the balance of multiple account/token pairs"
      },
      "isApprovedForAll(address,address)": {
        "notice": "Queries the approval status of an operator for a given owner."
      },
      "safeBatchTransferFrom(address,address,uint256[],uint256[],bytes)": {
        "notice": "Transfers `_values` amount(s) of `_ids` from the `_from` address to the `_to` address specified (with safety call)."
      },
      "safeTransferFrom(address,address,uint256,uint256,bytes)": {
        "notice": "Transfers `_value` amount of an `_id` from the `_from` address to the `_to` address specified (with safety call)."
      },
      "setApprovalForAll(address,bool)": {
        "notice": "Enable or disable approval for a third party (\"operator\") to manage all of the caller's tokens."
      },
      "uri(uint256)": {
        "notice": "A distinct Uniform Resource Identifier (URI) for a given token."
      }
    },
    "version": 1
  }
}