{
  "contractName": "DavinciToken",
  "abi": [
    {
      "inputs": [
        {
          "internalType": "string",
          "name": "name",
          "type": "string"
        },
        {
          "internalType": "string",
          "name": "symbol",
          "type": "string"
        },
        {
          "internalType": "address",
          "name": "newOwner",
          "type": "address"
        },
        {
          "internalType": "string",
          "name": "contractURI",
          "type": "string"
        },
        {
          "internalType": "string",
          "name": "tokenURIPrefix",
          "type": "string"
        }
      ],
      "stateMutability": "nonpayable",
      "type": "constructor"
    },
    {
      "anonymous": false,
      "inputs": [
        {
          "indexed": true,
          "internalType": "address",
          "name": "owner",
          "type": "address"
        },
        {
          "indexed": true,
          "internalType": "address",
          "name": "approved",
          "type": "address"
        },
        {
          "indexed": true,
          "internalType": "uint256",
          "name": "tokenId",
          "type": "uint256"
        }
      ],
      "name": "Approval",
      "type": "event"
    },
    {
      "anonymous": false,
      "inputs": [
        {
          "indexed": true,
          "internalType": "address",
          "name": "owner",
          "type": "address"
        },
        {
          "indexed": true,
          "internalType": "address",
          "name": "operator",
          "type": "address"
        },
        {
          "indexed": false,
          "internalType": "bool",
          "name": "approved",
          "type": "bool"
        }
      ],
      "name": "ApprovalForAll",
      "type": "event"
    },
    {
      "anonymous": false,
      "inputs": [
        {
          "indexed": true,
          "internalType": "address",
          "name": "previousOwner",
          "type": "address"
        },
        {
          "indexed": true,
          "internalType": "address",
          "name": "newOwner",
          "type": "address"
        }
      ],
      "name": "OwnershipTransferred",
      "type": "event"
    },
    {
      "anonymous": false,
      "inputs": [
        {
          "indexed": false,
          "internalType": "uint256",
          "name": "tokenId",
          "type": "uint256"
        },
        {
          "indexed": false,
          "internalType": "address[]",
          "name": "recipients",
          "type": "address[]"
        },
        {
          "indexed": false,
          "internalType": "uint256[]",
          "name": "bps",
          "type": "uint256[]"
        }
      ],
      "name": "SecondarySaleFees",
      "type": "event"
    },
    {
      "anonymous": false,
      "inputs": [
        {
          "indexed": true,
          "internalType": "address",
          "name": "from",
          "type": "address"
        },
        {
          "indexed": true,
          "internalType": "address",
          "name": "to",
          "type": "address"
        },
        {
          "indexed": true,
          "internalType": "uint256",
          "name": "tokenId",
          "type": "uint256"
        }
      ],
      "name": "Transfer",
      "type": "event"
    },
    {
      "inputs": [
        {
          "internalType": "address",
          "name": "to",
          "type": "address"
        },
        {
          "internalType": "uint256",
          "name": "tokenId",
          "type": "uint256"
        }
      ],
      "name": "approve",
      "outputs": [],
      "stateMutability": "nonpayable",
      "type": "function"
    },
    {
      "inputs": [
        {
          "internalType": "address",
          "name": "owner",
          "type": "address"
        }
      ],
      "name": "balanceOf",
      "outputs": [
        {
          "internalType": "uint256",
          "name": "",
          "type": "uint256"
        }
      ],
      "stateMutability": "view",
      "type": "function"
    },
    {
      "inputs": [
        {
          "internalType": "uint256",
          "name": "tokenId",
          "type": "uint256"
        }
      ],
      "name": "burn",
      "outputs": [],
      "stateMutability": "nonpayable",
      "type": "function"
    },
    {
      "inputs": [],
      "name": "contractURI",
      "outputs": [
        {
          "internalType": "string",
          "name": "",
          "type": "string"
        }
      ],
      "stateMutability": "view",
      "type": "function"
    },
    {
      "inputs": [
        {
          "internalType": "uint256",
          "name": "",
          "type": "uint256"
        },
        {
          "internalType": "uint256",
          "name": "",
          "type": "uint256"
        }
      ],
      "name": "fees",
      "outputs": [
        {
          "internalType": "address payable",
          "name": "recipient",
          "type": "address"
        },
        {
          "internalType": "uint256",
          "name": "value",
          "type": "uint256"
        }
      ],
      "stateMutability": "view",
      "type": "function"
    },
    {
      "inputs": [
        {
          "internalType": "uint256",
          "name": "tokenId",
          "type": "uint256"
        }
      ],
      "name": "getApproved",
      "outputs": [
        {
          "internalType": "address",
          "name": "",
          "type": "address"
        }
      ],
      "stateMutability": "view",
      "type": "function"
    },
    {
      "inputs": [
        {
          "internalType": "uint256",
          "name": "id",
          "type": "uint256"
        }
      ],
      "name": "getFeeBps",
      "outputs": [
        {
          "internalType": "uint256[]",
          "name": "",
          "type": "uint256[]"
        }
      ],
      "stateMutability": "view",
      "type": "function"
    },
    {
      "inputs": [
        {
          "internalType": "uint256",
          "name": "id",
          "type": "uint256"
        }
      ],
      "name": "getFeeRecipients",
      "outputs": [
        {
          "internalType": "address payable[]",
          "name": "",
          "type": "address[]"
        }
      ],
      "stateMutability": "view",
      "type": "function"
    },
    {
      "inputs": [
        {
          "internalType": "address",
          "name": "owner",
          "type": "address"
        },
        {
          "internalType": "address",
          "name": "operator",
          "type": "address"
        }
      ],
      "name": "isApprovedForAll",
      "outputs": [
        {
          "internalType": "bool",
          "name": "",
          "type": "bool"
        }
      ],
      "stateMutability": "view",
      "type": "function"
    },
    {
      "inputs": [],
      "name": "name",
      "outputs": [
        {
          "internalType": "string",
          "name": "",
          "type": "string"
        }
      ],
      "stateMutability": "view",
      "type": "function"
    },
    {
      "inputs": [],
      "name": "owner",
      "outputs": [
        {
          "internalType": "address",
          "name": "",
          "type": "address"
        }
      ],
      "stateMutability": "view",
      "type": "function"
    },
    {
      "inputs": [
        {
          "internalType": "uint256",
          "name": "tokenId",
          "type": "uint256"
        }
      ],
      "name": "ownerOf",
      "outputs": [
        {
          "internalType": "address",
          "name": "",
          "type": "address"
        }
      ],
      "stateMutability": "view",
      "type": "function"
    },
    {
      "inputs": [],
      "name": "renounceOwnership",
      "outputs": [],
      "stateMutability": "nonpayable",
      "type": "function"
    },
    {
      "inputs": [
        {
          "internalType": "address",
          "name": "from",
          "type": "address"
        },
        {
          "internalType": "address",
          "name": "to",
          "type": "address"
        },
        {
          "internalType": "uint256",
          "name": "tokenId",
          "type": "uint256"
        }
      ],
      "name": "safeTransferFrom",
      "outputs": [],
      "stateMutability": "nonpayable",
      "type": "function"
    },
    {
      "inputs": [
        {
          "internalType": "address",
          "name": "from",
          "type": "address"
        },
        {
          "internalType": "address",
          "name": "to",
          "type": "address"
        },
        {
          "internalType": "uint256",
          "name": "tokenId",
          "type": "uint256"
        },
        {
          "internalType": "bytes",
          "name": "_data",
          "type": "bytes"
        }
      ],
      "name": "safeTransferFrom",
      "outputs": [],
      "stateMutability": "nonpayable",
      "type": "function"
    },
    {
      "inputs": [
        {
          "internalType": "address",
          "name": "to",
          "type": "address"
        },
        {
          "internalType": "bool",
          "name": "approved",
          "type": "bool"
        }
      ],
      "name": "setApprovalForAll",
      "outputs": [],
      "stateMutability": "nonpayable",
      "type": "function"
    },
    {
      "inputs": [
        {
          "internalType": "bytes4",
          "name": "interfaceId",
          "type": "bytes4"
        }
      ],
      "name": "supportsInterface",
      "outputs": [
        {
          "internalType": "bool",
          "name": "",
          "type": "bool"
        }
      ],
      "stateMutability": "view",
      "type": "function"
    },
    {
      "inputs": [],
      "name": "symbol",
      "outputs": [
        {
          "internalType": "string",
          "name": "",
          "type": "string"
        }
      ],
      "stateMutability": "view",
      "type": "function"
    },
    {
      "inputs": [
        {
          "internalType": "uint256",
          "name": "index",
          "type": "uint256"
        }
      ],
      "name": "tokenByIndex",
      "outputs": [
        {
          "internalType": "uint256",
          "name": "",
          "type": "uint256"
        }
      ],
      "stateMutability": "view",
      "type": "function"
    },
    {
      "inputs": [
        {
          "internalType": "address",
          "name": "owner",
          "type": "address"
        },
        {
          "internalType": "uint256",
          "name": "index",
          "type": "uint256"
        }
      ],
      "name": "tokenOfOwnerByIndex",
      "outputs": [
        {
          "internalType": "uint256",
          "name": "",
          "type": "uint256"
        }
      ],
      "stateMutability": "view",
      "type": "function"
    },
    {
      "inputs": [
        {
          "internalType": "uint256",
          "name": "tokenId",
          "type": "uint256"
        }
      ],
      "name": "tokenURI",
      "outputs": [
        {
          "internalType": "string",
          "name": "",
          "type": "string"
        }
      ],
      "stateMutability": "view",
      "type": "function"
    },
    {
      "inputs": [],
      "name": "tokenURIPrefix",
      "outputs": [
        {
          "internalType": "string",
          "name": "",
          "type": "string"
        }
      ],
      "stateMutability": "view",
      "type": "function"
    },
    {
      "inputs": [],
      "name": "totalSupply",
      "outputs": [
        {
          "internalType": "uint256",
          "name": "",
          "type": "uint256"
        }
      ],
      "stateMutability": "view",
      "type": "function"
    },
    {
      "inputs": [
        {
          "internalType": "address",
          "name": "from",
          "type": "address"
        },
        {
          "internalType": "address",
          "name": "to",
          "type": "address"
        },
        {
          "internalType": "uint256",
          "name": "tokenId",
          "type": "uint256"
        }
      ],
      "name": "transferFrom",
      "outputs": [],
      "stateMutability": "nonpayable",
      "type": "function"
    },
    {
      "inputs": [
        {
          "internalType": "address",
          "name": "newOwner",
          "type": "address"
        }
      ],
      "name": "transferOwnership",
      "outputs": [],
      "stateMutability": "nonpayable",
      "type": "function"
    },
    {
      "inputs": [
        {
          "internalType": "uint256",
          "name": "tokenId",
          "type": "uint256"
        },
        {
          "internalType": "uint8",
          "name": "v",
          "type": "uint8"
        },
        {
          "internalType": "bytes32",
          "name": "r",
          "type": "bytes32"
        },
        {
          "internalType": "bytes32",
          "name": "s",
          "type": "bytes32"
        },
        {
          "components": [
            {
              "internalType": "address payable",
              "name": "recipient",
              "type": "address"
            },
            {
              "internalType": "uint256",
              "name": "value",
              "type": "uint256"
            }
          ],
          "internalType": "struct ERC721Base.Fee[]",
          "name": "_fees",
          "type": "tuple[]"
        },
        {
          "internalType": "string",
          "name": "tokenURI",
          "type": "string"
        }
      ],
      "name": "mint",
      "outputs": [],
      "stateMutability": "nonpayable",
      "type": "function"
    },
    {
      "inputs": [
        {
          "internalType": "string",
          "name": "tokenURIPrefix",
          "type": "string"
        }
      ],
      "name": "setTokenURIPrefix",
      "outputs": [],
      "stateMutability": "nonpayable",
      "type": "function"
    },
    {
      "inputs": [
        {
          "internalType": "string",
          "name": "contractURI",
          "type": "string"
        }
      ],
      "name": "setContractURI",
      "outputs": [],
      "stateMutability": "nonpayable",
      "type": "function"
    }
  ],
  "bytecode": "0x60806040523480156200001157600080fd5b50604051620052ef380380620052ef833981810160405281019062000037919062000615565b84848383808260006200004f6200023460201b60201c565b9050806000806101000a81548173ffffffffffffffffffffffffffffffffffffffff021916908373ffffffffffffffffffffffffffffffffffffffff1602179055508073ffffffffffffffffffffffffffffffffffffffff16600073ffffffffffffffffffffffffffffffffffffffff167f8be0079c531659141344cd1fd0a4f28419497f9722a3daafe3b4186f6b6457e060405160405180910390a350620001056301ffc9a760e01b6200023c60201b60201c565b6200011d63b779958460e01b6200023c60201b60201c565b806002908051906020019062000135929190620004fc565b506200014e63e8a3d48560e01b6200023c60201b60201c565b50806003908051906020019062000167929190620004fc565b5050620001816380ac58cd60e01b6200023c60201b60201c565b6200019963780e9d6360e01b6200023c60201b60201c565b83600d9080519060200190620001b1929190620004fc565b5082600e9080519060200190620001ca929190620004fc565b50620001e3635b5e139f60e01b6200023c60201b60201c565b50505050620002187fe37243f27916e395706434720b54132b80ef5cc8c56f39b0df6485e8dfb697cf6200023c60201b60201c565b62000229836200031460201b60201c565b50505050506200093d565b600033905090565b63ffffffff60e01b817bffffffffffffffffffffffffffffffffffffffffffffffffffffffff19161415620002a8576040517f08c379a00000000000000000000000000000000000000000000000000000000081526004016200029f9062000809565b60405180910390fd5b6001806000837bffffffffffffffffffffffffffffffffffffffffffffffffffffffff19167bffffffffffffffffffffffffffffffffffffffffffffffffffffffff1916815260200190815260200160002060006101000a81548160ff02191690831515021790555050565b620003246200023460201b60201c565b73ffffffffffffffffffffffffffffffffffffffff166200034a620004d360201b60201c565b73ffffffffffffffffffffffffffffffffffffffff1614620003a3576040517f08c379a00000000000000000000000000000000000000000000000000000000081526004016200039a906200082b565b60405180910390fd5b600073ffffffffffffffffffffffffffffffffffffffff168173ffffffffffffffffffffffffffffffffffffffff16141562000416576040517f08c379a00000000000000000000000000000000000000000000000000000000081526004016200040d90620007e7565b60405180910390fd5b8073ffffffffffffffffffffffffffffffffffffffff1660008054906101000a900473ffffffffffffffffffffffffffffffffffffffff1673ffffffffffffffffffffffffffffffffffffffff167f8be0079c531659141344cd1fd0a4f28419497f9722a3daafe3b4186f6b6457e060405160405180910390a3806000806101000a81548173ffffffffffffffffffffffffffffffffffffffff021916908373ffffffffffffffffffffffffffffffffffffffff16021790555050565b60008060009054906101000a900473ffffffffffffffffffffffffffffffffffffffff16905090565b828054600181600116156101000203166002900490600052602060002090601f016020900481019282601f106200053f57805160ff191683800117855562000570565b8280016001018555821562000570579182015b828111156200056f57825182559160200191906001019062000552565b5b5090506200057f919062000583565b5090565b5b808211156200059e57600081600090555060010162000584565b5090565b600081519050620005b38162000923565b92915050565b600082601f830112620005cb57600080fd5b8151620005e2620005dc826200087b565b6200084d565b91508082526020830160208301858383011115620005ff57600080fd5b6200060c838284620008ed565b50505092915050565b600080600080600060a086880312156200062e57600080fd5b600086015167ffffffffffffffff8111156200064957600080fd5b6200065788828901620005b9565b955050602086015167ffffffffffffffff8111156200067557600080fd5b6200068388828901620005b9565b94505060406200069688828901620005a2565b935050606086015167ffffffffffffffff811115620006b457600080fd5b620006c288828901620005b9565b925050608086015167ffffffffffffffff811115620006e057600080fd5b620006ee88828901620005b9565b9150509295509295909350565b60006200070a602683620008a8565b91507f4f776e61626c653a206e6577206f776e657220697320746865207a65726f206160008301527f64647265737300000000000000000000000000000000000000000000000000006020830152604082019050919050565b600062000772601c83620008a8565b91507f4552433136353a20696e76616c696420696e74657266616365206964000000006000830152602082019050919050565b6000620007b4602083620008a8565b91507f4f776e61626c653a2063616c6c6572206973206e6f7420746865206f776e65726000830152602082019050919050565b600060208201905081810360008301526200080281620006fb565b9050919050565b60006020820190508181036000830152620008248162000763565b9050919050565b600060208201905081810360008301526200084681620007a5565b9050919050565b6000604051905081810181811067ffffffffffffffff821117156200087157600080fd5b8060405250919050565b600067ffffffffffffffff8211156200089357600080fd5b601f19601f8301169050602081019050919050565b600082825260208201905092915050565b6000620008c682620008cd565b9050919050565b600073ffffffffffffffffffffffffffffffffffffffff82169050919050565b60005b838110156200090d578082015181840152602081019050620008f0565b838111156200091d576000848401525b50505050565b6200092e81620008b9565b81146200093a57600080fd5b50565b6149a2806200094d6000396000f3fe608060405234801561001057600080fd5b50600436106101c45760003560e01c806370a08231116100f9578063b88d4fde11610097578063c87b56dd11610071578063c87b56dd14610516578063e8a3d48514610546578063e985e9c514610564578063f2fde38b14610594576101c4565b8063b88d4fde146104ac578063b9c4d9fb146104c8578063c0ac9983146104f8576101c4565b8063938e3d7b116100d3578063938e3d7b1461043a57806395d89b411461045657806399e0dd7c14610474578063a22cb46514610490576101c4565b806370a08231146103e2578063715018a6146104125780638da5cb5b1461041c576101c4565b80632f745c59116101665780634f6ccce7116101405780634f6ccce7146103355780636308f1cd146103655780636352211e14610396578063672a9400146103c6576101c4565b80632f745c59146102cd57806342842e0e146102fd57806342966c6814610319576101c4565b8063095ea7b3116101a2578063095ea7b3146102475780630ebd4c7f1461026357806318160ddd1461029357806323b872dd146102b1576101c4565b806301ffc9a7146101c957806306fdde03146101f9578063081812fc14610217575b600080fd5b6101e360048036038101906101de9190613397565b6105b0565b6040516101f091906141df565b60405180910390f35b610201610618565b60405161020e919061423f565b60405180910390f35b610231600480360381019061022c919061342a565b6106b6565b60405161023e919061410b565b60405180910390f35b610261600480360381019061025c919061335b565b61073b565b005b61027d6004803603810190610278919061342a565b6108f6565b60405161028a91906141bd565b60405180910390f35b61029b610a64565b6040516102a89190614581565b60405180910390f35b6102cb60048036038101906102c69190613255565b610a71565b005b6102e760048036038101906102e2919061335b565b610ad1565b6040516102f49190614581565b60405180910390f35b61031760048036038101906103129190613255565b610b7a565b005b610333600480360381019061032e919061342a565b610b9a565b005b61034f600480360381019061034a919061342a565b610bf6565b60405161035c9190614581565b60405180910390f35b61037f600480360381019061037a9190613453565b610c60565b60405161038d929190614172565b60405180910390f35b6103b060048036038101906103ab919061342a565b610cbe565b6040516103bd919061410b565b60405180910390f35b6103e060048036038101906103db919061348f565b610d70565b005b6103fc60048036038101906103f791906131f0565b610e78565b6040516104099190614581565b60405180910390f35b61041a610f37565b005b610424611071565b604051610431919061410b565b60405180910390f35b610454600480360381019061044f91906133e9565b61109a565b005b61045e611122565b60405161046b919061423f565b60405180910390f35b61048e600480360381019061048991906133e9565b6111c0565b005b6104aa60048036038101906104a5919061331f565b611248565b005b6104c660048036038101906104c191906132a4565b6113c9565b005b6104e260048036038101906104dd919061342a565b61142b565b6040516104ef919061419b565b60405180910390f35b6105006115c7565b60405161050d919061423f565b60405180910390f35b610530600480360381019061052b919061342a565b611665565b60405161053d919061423f565b60405180910390f35b61054e6116bf565b60405161055b919061423f565b60405180910390f35b61057e60048036038101906105799190613219565b61175d565b60405161058b91906141df565b60405180910390f35b6105ae60048036038101906105a991906131f0565b6117f1565b005b600060016000837bffffffffffffffffffffffffffffffffffffffffffffffffffffffff19167bffffffffffffffffffffffffffffffffffffffffffffffffffffffff1916815260200190815260200160002060009054906101000a900460ff169050919050565b600d8054600181600116156101000203166002900480601f0160208091040260200160405190810160405280929190818152602001828054600181600116156101000203166002900480156106ae5780601f10610683576101008083540402835291602001916106ae565b820191906000526020600020905b81548152906001019060200180831161069157829003601f168201915b505050505081565b60006106c18261199a565b610700576040517f08c379a00000000000000000000000000000000000000000000000000000000081526004016106f790614421565b60405180910390fd5b6006600083815260200190815260200160002060009054906101000a900473ffffffffffffffffffffffffffffffffffffffff169050919050565b600061074682610cbe565b90508073ffffffffffffffffffffffffffffffffffffffff168373ffffffffffffffffffffffffffffffffffffffff1614156107b7576040517f08c379a00000000000000000000000000000000000000000000000000000000081526004016107ae906144c1565b60405180910390fd5b8073ffffffffffffffffffffffffffffffffffffffff166107d6611a0c565b73ffffffffffffffffffffffffffffffffffffffff1614806108055750610804816107ff611a0c565b61175d565b5b610844576040517f08c379a000000000000000000000000000000000000000000000000000000000815260040161083b906143a1565b60405180910390fd5b826006600084815260200190815260200160002060006101000a81548173ffffffffffffffffffffffffffffffffffffffff021916908373ffffffffffffffffffffffffffffffffffffffff160217905550818373ffffffffffffffffffffffffffffffffffffffff168273ffffffffffffffffffffffffffffffffffffffff167f8c5be1e5ebec7d5bd14f71427d1e84f3dd0314c0f7b2291e5b200ac8c7c3b92560405160405180910390a4505050565b606080600f6000848152602001908152602001600020805480602002602001604051908101604052809291908181526020016000905b828210156109be57838290600052602060002090600202016040518060400160405290816000820160009054906101000a900473ffffffffffffffffffffffffffffffffffffffff1673ffffffffffffffffffffffffffffffffffffffff1673ffffffffffffffffffffffffffffffffffffffff1681526020016001820154815250508152602001906001019061092c565b5050505090506060815167ffffffffffffffff811180156109de57600080fd5b50604051908082528060200260200182016040528015610a0d5781602001602082028036833780820191505090505b50905060005b8251811015610a5957828181518110610a2857fe5b602002602001015160200151828281518110610a4057fe5b6020026020010181815250508080600101915050610a13565b508092505050919050565b6000600b80549050905090565b610a82610a7c611a0c565b82611a14565b610ac1576040517f08c379a0000000000000000000000000000000000000000000000000000000008152600401610ab8906144e1565b60405180910390fd5b610acc838383611af2565b505050565b6000610adc83610e78565b8210610b1d576040517f08c379a0000000000000000000000000000000000000000000000000000000008152600401610b1490614281565b60405180910390fd5b600960008473ffffffffffffffffffffffffffffffffffffffff1673ffffffffffffffffffffffffffffffffffffffff1681526020019081526020016000208281548110610b6757fe5b9060005260206000200154905092915050565b610b95838383604051806020016040528060008152506113c9565b505050565b610bab610ba5611a0c565b82611a14565b610bea576040517f08c379a0000000000000000000000000000000000000000000000000000000008152600401610be190614561565b60405180910390fd5b610bf381611b16565b50565b6000610c00610a64565b8210610c41576040517f08c379a0000000000000000000000000000000000000000000000000000000008152600401610c3890614501565b60405180910390fd5b600b8281548110610c4e57fe5b90600052602060002001549050919050565b600f6020528160005260406000208181548110610c7957fe5b9060005260206000209060020201600091509150508060000160009054906101000a900473ffffffffffffffffffffffffffffffffffffffff16908060010154905082565b6000806005600084815260200190815260200160002060009054906101000a900473ffffffffffffffffffffffffffffffffffffffff169050600073ffffffffffffffffffffffffffffffffffffffff168173ffffffffffffffffffffffffffffffffffffffff161415610d67576040517f08c379a0000000000000000000000000000000000000000000000000000000008152600401610d5e906143e1565b60405180910390fd5b80915050919050565b60013087604051602001610d859291906140df565b6040516020818303038152906040528051906020012086868660405160008152602001604052604051610dbb94939291906141fa565b6020604051602081039080840390855afa158015610ddd573d6000803e3d6000fd5b5050506020604051035173ffffffffffffffffffffffffffffffffffffffff16610e05611071565b73ffffffffffffffffffffffffffffffffffffffff1614610e5b576040517f08c379a0000000000000000000000000000000000000000000000000000000008152600401610e5290614381565b60405180910390fd5b610e66338784611b2b565b610e708682611e47565b505050505050565b60008073ffffffffffffffffffffffffffffffffffffffff168273ffffffffffffffffffffffffffffffffffffffff161415610ee9576040517f08c379a0000000000000000000000000000000000000000000000000000000008152600401610ee0906143c1565b60405180910390fd5b610f30600760008473ffffffffffffffffffffffffffffffffffffffff1673ffffffffffffffffffffffffffffffffffffffff168152602001908152602001600020611e9d565b9050919050565b610f3f611a0c565b73ffffffffffffffffffffffffffffffffffffffff16610f5d611071565b73ffffffffffffffffffffffffffffffffffffffff1614610fb3576040517f08c379a0000000000000000000000000000000000000000000000000000000008152600401610faa90614461565b60405180910390fd5b600073ffffffffffffffffffffffffffffffffffffffff1660008054906101000a900473ffffffffffffffffffffffffffffffffffffffff1673ffffffffffffffffffffffffffffffffffffffff167f8be0079c531659141344cd1fd0a4f28419497f9722a3daafe3b4186f6b6457e060405160405180910390a360008060006101000a81548173ffffffffffffffffffffffffffffffffffffffff021916908373ffffffffffffffffffffffffffffffffffffffff160217905550565b60008060009054906101000a900473ffffffffffffffffffffffffffffffffffffffff16905090565b6110a2611a0c565b73ffffffffffffffffffffffffffffffffffffffff166110c0611071565b73ffffffffffffffffffffffffffffffffffffffff1614611116576040517f08c379a000000000000000000000000000000000000000000000000000000000815260040161110d90614461565b60405180910390fd5b61111f81611eab565b50565b600e8054600181600116156101000203166002900480601f0160208091040260200160405190810160405280929190818152602001828054600181600116156101000203166002900480156111b85780601f1061118d576101008083540402835291602001916111b8565b820191906000526020600020905b81548152906001019060200180831161119b57829003601f168201915b505050505081565b6111c8611a0c565b73ffffffffffffffffffffffffffffffffffffffff166111e6611071565b73ffffffffffffffffffffffffffffffffffffffff161461123c576040517f08c379a000000000000000000000000000000000000000000000000000000000815260040161123390614461565b60405180910390fd5b61124581611ec5565b50565b611250611a0c565b73ffffffffffffffffffffffffffffffffffffffff168273ffffffffffffffffffffffffffffffffffffffff1614156112be576040517f08c379a00000000000000000000000000000000000000000000000000000000081526004016112b590614321565b60405180910390fd5b80600860006112cb611a0c565b73ffffffffffffffffffffffffffffffffffffffff1673ffffffffffffffffffffffffffffffffffffffff16815260200190815260200160002060008473ffffffffffffffffffffffffffffffffffffffff1673ffffffffffffffffffffffffffffffffffffffff16815260200190815260200160002060006101000a81548160ff0219169083151502179055508173ffffffffffffffffffffffffffffffffffffffff16611378611a0c565b73ffffffffffffffffffffffffffffffffffffffff167f17307eab39ab6107e8899845ad3d59bd9653f200f220920489ca2b5937696c31836040516113bd91906141df565b60405180910390a35050565b6113da6113d4611a0c565b83611a14565b611419576040517f08c379a0000000000000000000000000000000000000000000000000000000008152600401611410906144e1565b60405180910390fd5b61142584848484611edf565b50505050565b606080600f6000848152602001908152602001600020805480602002602001604051908101604052809291908181526020016000905b828210156114f357838290600052602060002090600202016040518060400160405290816000820160009054906101000a900473ffffffffffffffffffffffffffffffffffffffff1673ffffffffffffffffffffffffffffffffffffffff1673ffffffffffffffffffffffffffffffffffffffff16815260200160018201548152505081526020019060010190611461565b5050505090506060815167ffffffffffffffff8111801561151357600080fd5b506040519080825280602002602001820160405280156115425781602001602082028036833780820191505090505b50905060005b82518110156115bc5782818151811061155d57fe5b60200260200101516000015182828151811061157557fe5b602002602001019073ffffffffffffffffffffffffffffffffffffffff16908173ffffffffffffffffffffffffffffffffffffffff16815250508080600101915050611548565b508092505050919050565b60038054600181600116156101000203166002900480601f01602080910402602001604051908101604052809291908181526020018280546001816001161561010002031660029004801561165d5780601f106116325761010080835404028352916020019161165d565b820191906000526020600020905b81548152906001019060200180831161164057829003601f168201915b505050505081565b60606116708261199a565b6116af576040517f08c379a00000000000000000000000000000000000000000000000000000000081526004016116a6906144a1565b60405180910390fd5b6116b882611f3b565b9050919050565b60028054600181600116156101000203166002900480601f0160208091040260200160405190810160405280929190818152602001828054600181600116156101000203166002900480156117555780601f1061172a57610100808354040283529160200191611755565b820191906000526020600020905b81548152906001019060200180831161173857829003601f168201915b505050505081565b6000600860008473ffffffffffffffffffffffffffffffffffffffff1673ffffffffffffffffffffffffffffffffffffffff16815260200190815260200160002060008373ffffffffffffffffffffffffffffffffffffffff1673ffffffffffffffffffffffffffffffffffffffff16815260200190815260200160002060009054906101000a900460ff16905092915050565b6117f9611a0c565b73ffffffffffffffffffffffffffffffffffffffff16611817611071565b73ffffffffffffffffffffffffffffffffffffffff161461186d576040517f08c379a000000000000000000000000000000000000000000000000000000000815260040161186490614461565b60405180910390fd5b600073ffffffffffffffffffffffffffffffffffffffff168173ffffffffffffffffffffffffffffffffffffffff1614156118dd576040517f08c379a00000000000000000000000000000000000000000000000000000000081526004016118d4906142c1565b60405180910390fd5b8073ffffffffffffffffffffffffffffffffffffffff1660008054906101000a900473ffffffffffffffffffffffffffffffffffffffff1673ffffffffffffffffffffffffffffffffffffffff167f8be0079c531659141344cd1fd0a4f28419497f9722a3daafe3b4186f6b6457e060405160405180910390a3806000806101000a81548173ffffffffffffffffffffffffffffffffffffffff021916908373ffffffffffffffffffffffffffffffffffffffff16021790555050565b6000806005600084815260200190815260200160002060009054906101000a900473ffffffffffffffffffffffffffffffffffffffff169050600073ffffffffffffffffffffffffffffffffffffffff168173ffffffffffffffffffffffffffffffffffffffff161415915050919050565b600033905090565b6000611a1f8261199a565b611a5e576040517f08c379a0000000000000000000000000000000000000000000000000000000008152600401611a5590614361565b60405180910390fd5b6000611a6983610cbe565b90508073ffffffffffffffffffffffffffffffffffffffff168473ffffffffffffffffffffffffffffffffffffffff161480611ad857508373ffffffffffffffffffffffffffffffffffffffff16611ac0846106b6565b73ffffffffffffffffffffffffffffffffffffffff16145b80611ae95750611ae8818561175d565b5b91505092915050565b611afd83838361209c565b611b0783826122cb565b611b118282612474565b505050565b611b28611b2282610cbe565b82612538565b50565b611b35838361254f565b6060815167ffffffffffffffff81118015611b4f57600080fd5b50604051908082528060200260200182016040528015611b7e5781602001602082028036833780820191505090505b5090506060825167ffffffffffffffff81118015611b9b57600080fd5b50604051908082528060200260200182016040528015611bca5781602001602082028036833780820191505090505b50905060005b8351811015611df957600073ffffffffffffffffffffffffffffffffffffffff16848281518110611bfd57fe5b60200260200101516000015173ffffffffffffffffffffffffffffffffffffffff161415611c60576040517f08c379a0000000000000000000000000000000000000000000000000000000008152600401611c5790614541565b60405180910390fd5b6000848281518110611c6e57fe5b6020026020010151602001511415611cbb576040517f08c379a0000000000000000000000000000000000000000000000000000000008152600401611cb290614261565b60405180910390fd5b600f6000868152602001908152602001600020848281518110611cda57fe5b6020026020010151908060018154018082558091505060019003906000526020600020906002020160009091909190915060008201518160000160006101000a81548173ffffffffffffffffffffffffffffffffffffffff021916908373ffffffffffffffffffffffffffffffffffffffff160217905550602082015181600101555050838181518110611d6a57fe5b602002602001015160000151838281518110611d8257fe5b602002602001019073ffffffffffffffffffffffffffffffffffffffff16908173ffffffffffffffffffffffffffffffffffffffff1681525050838181518110611dc857fe5b602002602001015160200151828281518110611de057fe5b6020026020010181815250508080600101915050611bd0565b50600083511115611e40577f99aba1d63749cfd5ad1afda7c4663840924d54eb5f005bbbeadedc6ec13674b2848383604051611e379392919061459c565b60405180910390a15b5050505050565b611e508261199a565b611e8f576040517f08c379a0000000000000000000000000000000000000000000000000000000008152600401611e8690614441565b60405180910390fd5b611e998282612570565b5050565b600081600001549050919050565b8060029080519060200190611ec1929190612eec565b5050565b8060039080519060200190611edb929190612eec565b5050565b611eea848484611af2565b611ef68484848461259c565b611f35576040517f08c379a0000000000000000000000000000000000000000000000000000000008152600401611f2c906142a1565b60405180910390fd5b50505050565b6060612095600460008481526020019081526020016000208054600181600116156101000203166002900480601f016020809104026020016040519081016040528092919081815260200182805460018160011615610100020316600290048015611fe75780601f10611fbc57610100808354040283529160200191611fe7565b820191906000526020600020905b815481529060010190602001808311611fca57829003601f168201915b505050505060038054600181600116156101000203166002900480601f0160208091040260200160405190810160405280929190818152602001828054600181600116156101000203166002900480156120825780601f1061205757610100808354040283529160200191612082565b820191906000526020600020905b81548152906001019060200180831161206557829003601f168201915b505050505061277d90919063ffffffff16565b9050919050565b8273ffffffffffffffffffffffffffffffffffffffff166120bc82610cbe565b73ffffffffffffffffffffffffffffffffffffffff1614612112576040517f08c379a000000000000000000000000000000000000000000000000000000000815260040161210990614481565b60405180910390fd5b600073ffffffffffffffffffffffffffffffffffffffff168273ffffffffffffffffffffffffffffffffffffffff161415612182576040517f08c379a000000000000000000000000000000000000000000000000000000000815260040161217990614301565b60405180910390fd5b61218b816128cd565b6121d2600760008573ffffffffffffffffffffffffffffffffffffffff1673ffffffffffffffffffffffffffffffffffffffff16815260200190815260200160002061298b565b612219600760008473ffffffffffffffffffffffffffffffffffffffff1673ffffffffffffffffffffffffffffffffffffffff1681526020019081526020016000206129ae565b816005600083815260200190815260200160002060006101000a81548173ffffffffffffffffffffffffffffffffffffffff021916908373ffffffffffffffffffffffffffffffffffffffff160217905550808273ffffffffffffffffffffffffffffffffffffffff168473ffffffffffffffffffffffffffffffffffffffff167fddf252ad1be2c89b69c2b068fc378daa952ba7f163c4a11628f55a4df523b3ef60405160405180910390a4505050565b60006123236001600960008673ffffffffffffffffffffffffffffffffffffffff1673ffffffffffffffffffffffffffffffffffffffff168152602001908152602001600020805490506129c490919063ffffffff16565b90506000600a6000848152602001908152602001600020549050818114612410576000600960008673ffffffffffffffffffffffffffffffffffffffff1673ffffffffffffffffffffffffffffffffffffffff168152602001908152602001600020838154811061239057fe5b9060005260206000200154905080600960008773ffffffffffffffffffffffffffffffffffffffff1673ffffffffffffffffffffffffffffffffffffffff16815260200190815260200160002083815481106123e857fe5b906000526020600020018190555081600a600083815260200190815260200160002081905550505b600960008573ffffffffffffffffffffffffffffffffffffffff1673ffffffffffffffffffffffffffffffffffffffff16815260200190815260200160002080548061245857fe5b6001900381819060005260206000200160009055905550505050565b600960008373ffffffffffffffffffffffffffffffffffffffff1673ffffffffffffffffffffffffffffffffffffffff16815260200190815260200160002080549050600a600083815260200190815260200160002081905550600960008373ffffffffffffffffffffffffffffffffffffffff1673ffffffffffffffffffffffffffffffffffffffff1681526020019081526020016000208190806001815401808255809150506001900390600052602060002001600090919091909150555050565b6125428282612a14565b61254b81612a4e565b5050565b6125598282612aa0565b6125638282612474565b61256c81612c52565b5050565b80600460008481526020019081526020016000209080519060200190612597929190612eec565b505050565b60006125bd8473ffffffffffffffffffffffffffffffffffffffff16612c9b565b6125ca5760019050612775565b600060608573ffffffffffffffffffffffffffffffffffffffff1663150b7a0260e01b6125f5611a0c565b89888860405160240161260b9493929190614126565b604051602081830303815290604052907bffffffffffffffffffffffffffffffffffffffffffffffffffffffff19166020820180517bffffffffffffffffffffffffffffffffffffffffffffffffffffffff838183161783525050505060405161267591906140c8565b6000604051808303816000865af19150503d80600081146126b2576040519150601f19603f3d011682016040523d82523d6000602084013e6126b7565b606091505b50915091508161270f576000815111156126d45780518082602001fd5b6040517f08c379a0000000000000000000000000000000000000000000000000000000008152600401612706906142a1565b60405180910390fd5b60008180602001905181019061272591906133c0565b905063150b7a0260e01b7bffffffffffffffffffffffffffffffffffffffffffffffffffffffff1916817bffffffffffffffffffffffffffffffffffffffffffffffffffffffff19161493505050505b949350505050565b60608083905060608390506060815183510167ffffffffffffffff811180156127a557600080fd5b506040519080825280601f01601f1916602001820160405280156127d85781602001600182028036833780820191505090505b5090506000805b845181101561284d578481815181106127f457fe5b602001015160f81c60f81b83838060010194508151811061281157fe5b60200101907effffffffffffffffffffffffffffffffffffffffffffffffffffffffffffff1916908160001a90535080806001019150506127df565b5060005b83518110156128bf5783818151811061286657fe5b602001015160f81c60f81b83838060010194508151811061288357fe5b60200101907effffffffffffffffffffffffffffffffffffffffffffffffffffffffffffff1916908160001a9053508080600101915050612851565b508194505050505092915050565b600073ffffffffffffffffffffffffffffffffffffffff166006600083815260200190815260200160002060009054906101000a900473ffffffffffffffffffffffffffffffffffffffff1673ffffffffffffffffffffffffffffffffffffffff16146129885760006006600083815260200190815260200160002060006101000a81548173ffffffffffffffffffffffffffffffffffffffff021916908373ffffffffffffffffffffffffffffffffffffffff1602179055505b50565b6129a3600182600001546129c490919063ffffffff16565b816000018190555050565b6001816000016000828254019250508190555050565b600082821115612a09576040517f08c379a0000000000000000000000000000000000000000000000000000000008152600401612a0090614341565b60405180910390fd5b818303905092915050565b612a1e8282612cae565b612a2882826122cb565b6000600a600083815260200190815260200160002081905550612a4a81612e27565b5050565b60006004600083815260200190815260200160002080546001816001161561010002031660029004905014612a9d57600460008281526020019081526020016000206000612a9c9190612f6c565b5b50565b600073ffffffffffffffffffffffffffffffffffffffff168273ffffffffffffffffffffffffffffffffffffffff161415612b10576040517f08c379a0000000000000000000000000000000000000000000000000000000008152600401612b0790614401565b60405180910390fd5b612b198161199a565b15612b59576040517f08c379a0000000000000000000000000000000000000000000000000000000008152600401612b50906142e1565b60405180910390fd5b816005600083815260200190815260200160002060006101000a81548173ffffffffffffffffffffffffffffffffffffffff021916908373ffffffffffffffffffffffffffffffffffffffff160217905550612bf2600760008473ffffffffffffffffffffffffffffffffffffffff1673ffffffffffffffffffffffffffffffffffffffff1681526020019081526020016000206129ae565b808273ffffffffffffffffffffffffffffffffffffffff16600073ffffffffffffffffffffffffffffffffffffffff167fddf252ad1be2c89b69c2b068fc378daa952ba7f163c4a11628f55a4df523b3ef60405160405180910390a45050565b600b80549050600c600083815260200190815260200160002081905550600b81908060018154018082558091505060019003906000526020600020016000909190919091505550565b600080823b905060008111915050919050565b8173ffffffffffffffffffffffffffffffffffffffff16612cce82610cbe565b73ffffffffffffffffffffffffffffffffffffffff1614612d24576040517f08c379a0000000000000000000000000000000000000000000000000000000008152600401612d1b90614521565b60405180910390fd5b612d2d816128cd565b612d74600760008473ffffffffffffffffffffffffffffffffffffffff1673ffffffffffffffffffffffffffffffffffffffff16815260200190815260200160002061298b565b60006005600083815260200190815260200160002060006101000a81548173ffffffffffffffffffffffffffffffffffffffff021916908373ffffffffffffffffffffffffffffffffffffffff16021790555080600073ffffffffffffffffffffffffffffffffffffffff168373ffffffffffffffffffffffffffffffffffffffff167fddf252ad1be2c89b69c2b068fc378daa952ba7f163c4a11628f55a4df523b3ef60405160405180910390a45050565b6000612e426001600b805490506129c490919063ffffffff16565b90506000600c60008481526020019081526020016000205490506000600b8381548110612e6b57fe5b9060005260206000200154905080600b8381548110612e8657fe5b906000526020600020018190555081600c600083815260200190815260200160002081905550600b805480612eb757fe5b600190038181906000526020600020016000905590556000600c60008681526020019081526020016000208190555050505050565b828054600181600116156101000203166002900490600052602060002090601f016020900481019282601f10612f2d57805160ff1916838001178555612f5b565b82800160010185558215612f5b579182015b82811115612f5a578251825591602001919060010190612f3f565b5b509050612f689190612fb4565b5090565b50805460018160011615610100020316600290046000825580601f10612f925750612fb1565b601f016020900490600052602060002090810190612fb09190612fb4565b5b50565b5b80821115612fcd576000816000905550600101612fb5565b5090565b600081359050612fe0816148cb565b92915050565b600081359050612ff5816148e2565b92915050565b600082601f83011261300c57600080fd5b813561301f61301a8261460e565b6145e1565b9150818183526020840193506020810190508385604084028201111561304457600080fd5b60005b83811015613074578161305a888261317a565b845260208401935060408301925050600181019050613047565b5050505092915050565b60008135905061308d816148f9565b92915050565b6000813590506130a281614910565b92915050565b6000813590506130b781614927565b92915050565b6000815190506130cc81614927565b92915050565b600082601f8301126130e357600080fd5b81356130f66130f182614636565b6145e1565b9150808252602083016020830185838301111561311257600080fd5b61311d83828461483d565b50505092915050565b600082601f83011261313757600080fd5b813561314a61314582614662565b6145e1565b9150808252602083016020830185838301111561316657600080fd5b61317183828461483d565b50505092915050565b60006040828403121561318c57600080fd5b61319660406145e1565b905060006131a684828501612fe6565b60008301525060206131ba848285016131c6565b60208301525092915050565b6000813590506131d58161493e565b92915050565b6000813590506131ea81614955565b92915050565b60006020828403121561320257600080fd5b600061321084828501612fd1565b91505092915050565b6000806040838503121561322c57600080fd5b600061323a85828601612fd1565b925050602061324b85828601612fd1565b9150509250929050565b60008060006060848603121561326a57600080fd5b600061327886828701612fd1565b935050602061328986828701612fd1565b925050604061329a868287016131c6565b9150509250925092565b600080600080608085870312156132ba57600080fd5b60006132c887828801612fd1565b94505060206132d987828801612fd1565b93505060406132ea878288016131c6565b925050606085013567ffffffffffffffff81111561330757600080fd5b613313878288016130d2565b91505092959194509250565b6000806040838503121561333257600080fd5b600061334085828601612fd1565b92505060206133518582860161307e565b9150509250929050565b6000806040838503121561336e57600080fd5b600061337c85828601612fd1565b925050602061338d858286016131c6565b9150509250929050565b6000602082840312156133a957600080fd5b60006133b7848285016130a8565b91505092915050565b6000602082840312156133d257600080fd5b60006133e0848285016130bd565b91505092915050565b6000602082840312156133fb57600080fd5b600082013567ffffffffffffffff81111561341557600080fd5b61342184828501613126565b91505092915050565b60006020828403121561343c57600080fd5b600061344a848285016131c6565b91505092915050565b6000806040838503121561346657600080fd5b6000613474858286016131c6565b9250506020613485858286016131c6565b9150509250929050565b60008060008060008060c087890312156134a857600080fd5b60006134b689828a016131c6565b96505060206134c789828a016131db565b95505060406134d889828a01613093565b94505060606134e989828a01613093565b935050608087013567ffffffffffffffff81111561350657600080fd5b61351289828a01612ffb565b92505060a087013567ffffffffffffffff81111561352f57600080fd5b61353b89828a01613126565b9150509295509295509295565b60006135548383613590565b60208301905092915050565b600061356c83836135ae565b60208301905092915050565b60006135848383614084565b60208301905092915050565b6135998161478e565b82525050565b6135a88161478e565b82525050565b6135b78161477c565b82525050565b6135c68161477c565b82525050565b60006135d7826146be565b6135e1818561471c565b93506135ec8361468e565b8060005b8381101561361d5781516136048882613560565b975061360f836146f5565b9250506001810190506135f0565b5085935050505092915050565b6000613635826146c9565b61363f818561472d565b935061364a8361469e565b8060005b8381101561367b5781516136628882613548565b975061366d83614702565b92505060018101905061364e565b5085935050505092915050565b6000613693826146d4565b61369d818561473e565b93506136a8836146ae565b8060005b838110156136d95781516136c08882613578565b97506136cb8361470f565b9250506001810190506136ac565b5085935050505092915050565b6136ef816147a0565b82525050565b6136fe816147ac565b82525050565b600061370f826146df565b613719818561474f565b935061372981856020860161484c565b613732816148ad565b840191505092915050565b6000613748826146df565b6137528185614760565b935061376281856020860161484c565b80840191505092915050565b61377f61377a82614819565b61487f565b82525050565b6000613790826146ea565b61379a818561476b565b93506137aa81856020860161484c565b6137b3816148ad565b840191505092915050565b60006137cb601c8361476b565b91507f4665652076616c75652073686f756c6420626520706f736974697665000000006000830152602082019050919050565b600061380b602b8361476b565b91507f455243373231456e756d657261626c653a206f776e657220696e646578206f7560008301527f74206f6620626f756e64730000000000000000000000000000000000000000006020830152604082019050919050565b600061387160328361476b565b91507f4552433732313a207472616e7366657220746f206e6f6e20455243373231526560008301527f63656976657220696d706c656d656e74657200000000000000000000000000006020830152604082019050919050565b60006138d760268361476b565b91507f4f776e61626c653a206e6577206f776e657220697320746865207a65726f206160008301527f64647265737300000000000000000000000000000000000000000000000000006020830152604082019050919050565b600061393d601c8361476b565b91507f4552433732313a20746f6b656e20616c7265616479206d696e746564000000006000830152602082019050919050565b600061397d60248361476b565b91507f4552433732313a207472616e7366657220746f20746865207a65726f2061646460008301527f72657373000000000000000000000000000000000000000000000000000000006020830152604082019050919050565b60006139e360198361476b565b91507f4552433732313a20617070726f766520746f2063616c6c6572000000000000006000830152602082019050919050565b6000613a23601e8361476b565b91507f536166654d6174683a207375627472616374696f6e206f766572666c6f7700006000830152602082019050919050565b6000613a63602c8361476b565b91507f4552433732313a206f70657261746f7220717565727920666f72206e6f6e657860008301527f697374656e7420746f6b656e00000000000000000000000000000000000000006020830152604082019050919050565b6000613ac960198361476b565b91507f6f776e65722073686f756c64207369676e20746f6b656e4964000000000000006000830152602082019050919050565b6000613b0960388361476b565b91507f4552433732313a20617070726f76652063616c6c6572206973206e6f74206f7760008301527f6e6572206e6f7220617070726f76656420666f7220616c6c00000000000000006020830152604082019050919050565b6000613b6f602a8361476b565b91507f4552433732313a2062616c616e636520717565727920666f7220746865207a6560008301527f726f2061646472657373000000000000000000000000000000000000000000006020830152604082019050919050565b6000613bd560298361476b565b91507f4552433732313a206f776e657220717565727920666f72206e6f6e657869737460008301527f656e7420746f6b656e00000000000000000000000000000000000000000000006020830152604082019050919050565b6000613c3b60208361476b565b91507f4552433732313a206d696e7420746f20746865207a65726f20616464726573736000830152602082019050919050565b6000613c7b602c8361476b565b91507f4552433732313a20617070726f76656420717565727920666f72206e6f6e657860008301527f697374656e7420746f6b656e00000000000000000000000000000000000000006020830152604082019050919050565b6000613ce1602c8361476b565b91507f4552433732314d657461646174613a2055524920736574206f66206e6f6e657860008301527f697374656e7420746f6b656e00000000000000000000000000000000000000006020830152604082019050919050565b6000613d4760208361476b565b91507f4f776e61626c653a2063616c6c6572206973206e6f7420746865206f776e65726000830152602082019050919050565b6000613d8760298361476b565b91507f4552433732313a207472616e73666572206f6620746f6b656e2074686174206960008301527f73206e6f74206f776e00000000000000000000000000000000000000000000006020830152604082019050919050565b6000613ded602f8361476b565b91507f4552433732314d657461646174613a2055524920717565727920666f72206e6f60008301527f6e6578697374656e7420746f6b656e00000000000000000000000000000000006020830152604082019050919050565b6000613e5360218361476b565b91507f4552433732313a20617070726f76616c20746f2063757272656e74206f776e6560008301527f72000000000000000000000000000000000000000000000000000000000000006020830152604082019050919050565b6000613eb960318361476b565b91507f4552433732313a207472616e736665722063616c6c6572206973206e6f74206f60008301527f776e6572206e6f7220617070726f7665640000000000000000000000000000006020830152604082019050919050565b6000613f1f602c8361476b565b91507f455243373231456e756d657261626c653a20676c6f62616c20696e646578206f60008301527f7574206f6620626f756e647300000000000000000000000000000000000000006020830152604082019050919050565b6000613f8560258361476b565b91507f4552433732313a206275726e206f6620746f6b656e2074686174206973206e6f60008301527f74206f776e0000000000000000000000000000000000000000000000000000006020830152604082019050919050565b6000613feb601b8361476b565b91507f526563697069656e742073686f756c642062652070726573656e7400000000006000830152602082019050919050565b600061402b60308361476b565b91507f4552433732314275726e61626c653a2063616c6c6572206973206e6f74206f7760008301527f6e6572206e6f7220617070726f766564000000000000000000000000000000006020830152604082019050919050565b61408d81614802565b82525050565b61409c81614802565b82525050565b6140b36140ae82614802565b6148a3565b82525050565b6140c28161480c565b82525050565b60006140d4828461373d565b915081905092915050565b60006140eb828561376e565b6014820191506140fb82846140a2565b6020820191508190509392505050565b600060208201905061412060008301846135bd565b92915050565b600060808201905061413b600083018761359f565b61414860208301866135bd565b6141556040830185614093565b81810360608301526141678184613704565b905095945050505050565b6000604082019050614187600083018561359f565b6141946020830184614093565b9392505050565b600060208201905081810360008301526141b5818461362a565b905092915050565b600060208201905081810360008301526141d78184613688565b905092915050565b60006020820190506141f460008301846136e6565b92915050565b600060808201905061420f60008301876136f5565b61421c60208301866140b9565b61422960408301856136f5565b61423660608301846136f5565b95945050505050565b600060208201905081810360008301526142598184613785565b905092915050565b6000602082019050818103600083015261427a816137be565b9050919050565b6000602082019050818103600083015261429a816137fe565b9050919050565b600060208201905081810360008301526142ba81613864565b9050919050565b600060208201905081810360008301526142da816138ca565b9050919050565b600060208201905081810360008301526142fa81613930565b9050919050565b6000602082019050818103600083015261431a81613970565b9050919050565b6000602082019050818103600083015261433a816139d6565b9050919050565b6000602082019050818103600083015261435a81613a16565b9050919050565b6000602082019050818103600083015261437a81613a56565b9050919050565b6000602082019050818103600083015261439a81613abc565b9050919050565b600060208201905081810360008301526143ba81613afc565b9050919050565b600060208201905081810360008301526143da81613b62565b9050919050565b600060208201905081810360008301526143fa81613bc8565b9050919050565b6000602082019050818103600083015261441a81613c2e565b9050919050565b6000602082019050818103600083015261443a81613c6e565b9050919050565b6000602082019050818103600083015261445a81613cd4565b9050919050565b6000602082019050818103600083015261447a81613d3a565b9050919050565b6000602082019050818103600083015261449a81613d7a565b9050919050565b600060208201905081810360008301526144ba81613de0565b9050919050565b600060208201905081810360008301526144da81613e46565b9050919050565b600060208201905081810360008301526144fa81613eac565b9050919050565b6000602082019050818103600083015261451a81613f12565b9050919050565b6000602082019050818103600083015261453a81613f78565b9050919050565b6000602082019050818103600083015261455a81613fde565b9050919050565b6000602082019050818103600083015261457a8161401e565b9050919050565b60006020820190506145966000830184614093565b92915050565b60006060820190506145b16000830186614093565b81810360208301526145c381856135cc565b905081810360408301526145d78184613688565b9050949350505050565b6000604051905081810181811067ffffffffffffffff8211171561460457600080fd5b8060405250919050565b600067ffffffffffffffff82111561462557600080fd5b602082029050602081019050919050565b600067ffffffffffffffff82111561464d57600080fd5b601f19601f8301169050602081019050919050565b600067ffffffffffffffff82111561467957600080fd5b601f19601f8301169050602081019050919050565b6000819050602082019050919050565b6000819050602082019050919050565b6000819050602082019050919050565b600081519050919050565b600081519050919050565b600081519050919050565b600081519050919050565b600081519050919050565b6000602082019050919050565b6000602082019050919050565b6000602082019050919050565b600082825260208201905092915050565b600082825260208201905092915050565b600082825260208201905092915050565b600082825260208201905092915050565b600081905092915050565b600082825260208201905092915050565b6000614787826147e2565b9050919050565b6000614799826147e2565b9050919050565b60008115159050919050565b6000819050919050565b60007fffffffff0000000000000000000000000000000000000000000000000000000082169050919050565b600073ffffffffffffffffffffffffffffffffffffffff82169050919050565b6000819050919050565b600060ff82169050919050565b60006148248261482b565b9050919050565b6000614836826147e2565b9050919050565b82818337600083830152505050565b60005b8381101561486a57808201518184015260208101905061484f565b83811115614879576000848401525b50505050565b600061488a82614891565b9050919050565b600061489c826148be565b9050919050565b6000819050919050565b6000601f19601f8301169050919050565b60008160601b9050919050565b6148d48161477c565b81146148df57600080fd5b50565b6148eb8161478e565b81146148f657600080fd5b50565b614902816147a0565b811461490d57600080fd5b50565b614919816147ac565b811461492457600080fd5b50565b614930816147b6565b811461493b57600080fd5b50565b61494781614802565b811461495257600080fd5b50565b61495e8161480c565b811461496957600080fd5b5056fea2646970667358221220a8e10a851f4bf97105509a830f15263802872ab542f0a1579b0a380b6ed3372164736f6c634300060c0033",
  "immutableReferences": {},
  "source": "pragma solidity ^0.6.12;\npragma experimental ABIEncoderV2;\n\nimport \"../lib/interface/IERC721.sol\";\nimport \"../lib/contracts/ERC721Base.sol\";\nimport \"@openzeppelin/contracts/access/Ownable.sol\";\n\n/**\n * @title DavinciToken\n * @dev anyone can mint token.\n */\ncontract DavinciToken is Ownable, IERC721, ERC721Base {\n\n    constructor (string memory name, string memory symbol, address newOwner, string memory contractURI, string memory tokenURIPrefix) public ERC721Base(name, symbol, contractURI, tokenURIPrefix) {\n        _registerInterface(bytes4(keccak256('MINT_WITH_ADDRESS')));\n        transferOwnership(newOwner);\n    }\n\n    function mint(uint256 tokenId, uint8 v, bytes32 r, bytes32 s, Fee[] memory _fees, string memory tokenURI) public {\n        require(owner() == ecrecover(keccak256(abi.encodePacked(this, tokenId)), v, r, s), \"owner should sign tokenId\");\n        _mint(msg.sender, tokenId, _fees);\n        _setTokenURI(tokenId, tokenURI);\n    }\n\n    function setTokenURIPrefix(string memory tokenURIPrefix) public onlyOwner {\n        _setTokenURIPrefix(tokenURIPrefix);\n    }\n\n    function setContractURI(string memory contractURI) public onlyOwner {\n        _setContractURI(contractURI);\n    }\n}",
  "sourcePath": "/Users/jenya/IdeaProjects/davinci_nft_marketplace/contracts/token/DavinciToken.sol",
  "compiler": {
    "name": "solc",
    "version": "0.6.12+commit.27d51765.Emscripten.clang"
  },
  "schemaVersion": "3.3.4",
  "updatedAt": "2021-02-24T18:31:31.702Z",
  "devdoc": {
    "details": "anyone can mint token.",
    "kind": "dev",
    "methods": {
      "approve(address,uint256)": {
        "details": "Approves another address to transfer the given token ID The zero address indicates there is no approved address. There can only be one approved address per token at a given time. Can only be called by the token owner or an approved operator.",
        "params": {
          "to": "address to be approved for the given token ID",
          "tokenId": "uint256 ID of the token to be approved"
        }
      },
      "balanceOf(address)": {
        "details": "Gets the balance of the specified address.",
        "params": {
          "owner": "address to query the balance of"
        },
        "returns": {
          "_0": "uint256 representing the amount owned by the passed address"
        }
      },
      "burn(uint256)": {
        "details": "Burns a specific ERC721 token.",
        "params": {
          "tokenId": "uint256 id of the ERC721 token to be burned."
        }
      },
      "getApproved(uint256)": {
        "details": "Gets the approved address for a token ID, or zero if no address set Reverts if the token ID does not exist.",
        "params": {
          "tokenId": "uint256 ID of the token to query the approval of"
        },
        "returns": {
          "_0": "address currently approved for the given token ID"
        }
      },
      "isApprovedForAll(address,address)": {
        "details": "Tells whether an operator is approved by a given owner.",
        "params": {
          "operator": "operator address which you want to query the approval of",
          "owner": "owner address which you want to query the approval of"
        },
        "returns": {
          "_0": "bool whether the given operator is approved by the given owner"
        }
      },
      "owner()": {
        "details": "Returns the address of the current owner."
      },
      "ownerOf(uint256)": {
        "details": "Gets the owner of the specified token ID.",
        "params": {
          "tokenId": "uint256 ID of the token to query the owner of"
        },
        "returns": {
          "_0": "address currently marked as the owner of the given token ID"
        }
      },
      "renounceOwnership()": {
        "details": "Leaves the contract without owner. It will not be possible to call `onlyOwner` functions anymore. Can only be called by the current owner. NOTE: Renouncing ownership will leave the contract without an owner, thereby removing any functionality that is only available to the owner."
      },
      "safeTransferFrom(address,address,uint256)": {
        "details": "Safely transfers the ownership of a given token ID to another address If the target address is a contract, it must implement {IERC721Receiver-onERC721Received}, which is called upon a safe transfer, and return the magic value `bytes4(keccak256(\"onERC721Received(address,address,uint256,bytes)\"))`; otherwise, the transfer is reverted. Requires the msg.sender to be the owner, approved, or operator",
        "params": {
          "from": "current owner of the token",
          "to": "address to receive the ownership of the given token ID",
          "tokenId": "uint256 ID of the token to be transferred"
        }
      },
      "safeTransferFrom(address,address,uint256,bytes)": {
        "details": "Safely transfers the ownership of a given token ID to another address If the target address is a contract, it must implement {IERC721Receiver-onERC721Received}, which is called upon a safe transfer, and return the magic value `bytes4(keccak256(\"onERC721Received(address,address,uint256,bytes)\"))`; otherwise, the transfer is reverted. Requires the _msgSender() to be the owner, approved, or operator",
        "params": {
          "_data": "bytes data to send along with a safe transfer check",
          "from": "current owner of the token",
          "to": "address to receive the ownership of the given token ID",
          "tokenId": "uint256 ID of the token to be transferred"
        }
      },
      "setApprovalForAll(address,bool)": {
        "details": "Sets or unsets the approval of a given operator An operator is allowed to transfer all tokens of the sender on their behalf.",
        "params": {
          "approved": "representing the status of the approval to be set",
          "to": "operator address to set the approval"
        }
      },
      "supportsInterface(bytes4)": {
        "details": "See {IERC165-supportsInterface}. Time complexity O(1), guaranteed to always use less than 30 000 gas."
      },
      "tokenByIndex(uint256)": {
        "details": "Gets the token ID at a given index of all the tokens in this contract Reverts if the index is greater or equal to the total number of tokens.",
        "params": {
          "index": "uint256 representing the index to be accessed of the tokens list"
        },
        "returns": {
          "_0": "uint256 token ID at the given index of the tokens list"
        }
      },
      "tokenOfOwnerByIndex(address,uint256)": {
        "details": "Gets the token ID at a given index of the tokens list of the requested owner.",
        "params": {
          "index": "uint256 representing the index to be accessed of the requested tokens list",
          "owner": "address owning the tokens list to be accessed"
        },
        "returns": {
          "_0": "uint256 token ID at the given index of the tokens list owned by the requested address"
        }
      },
      "tokenURI(uint256)": {
        "details": "Returns an URI for a given token ID. Throws if the token ID does not exist. May return an empty string.",
        "params": {
          "tokenId": "uint256 ID of the token to query"
        }
      },
      "totalSupply()": {
        "details": "Gets the total amount of tokens stored by the contract.",
        "returns": {
          "_0": "uint256 representing the total amount of tokens"
        }
      },
      "transferFrom(address,address,uint256)": {
        "details": "Transfers the ownership of a given token ID to another address. Usage of this method is discouraged, use {safeTransferFrom} whenever possible. Requires the msg.sender to be the owner, approved, or operator.",
        "params": {
          "from": "current owner of the token",
          "to": "address to receive the ownership of the given token ID",
          "tokenId": "uint256 ID of the token to be transferred"
        }
      },
      "transferOwnership(address)": {
        "details": "Transfers ownership of the contract to a new account (`newOwner`). Can only be called by the current owner."
      }
    },
    "title": "DavinciToken",
    "version": 1
  },
  "userdoc": {
    "kind": "user",
    "methods": {},
    "version": 1
  }
}