{
  "contractName": "DavinciMultipleToken",
  "abi": [
    {
      "inputs": [
        {
          "internalType": "string",
          "name": "_name",
          "type": "string"
        },
        {
          "internalType": "string",
          "name": "_symbol",
          "type": "string"
        },
        {
          "internalType": "address",
          "name": "signer",
          "type": "address"
        },
        {
          "internalType": "string",
          "name": "contractURI",
          "type": "string"
        },
        {
          "internalType": "string",
          "name": "tokenURIPrefix",
          "type": "string"
        }
      ],
      "stateMutability": "nonpayable",
      "type": "constructor"
    },
    {
      "anonymous": false,
      "inputs": [
        {
          "indexed": true,
          "internalType": "address",
          "name": "_owner",
          "type": "address"
        },
        {
          "indexed": true,
          "internalType": "address",
          "name": "_operator",
          "type": "address"
        },
        {
          "indexed": false,
          "internalType": "bool",
          "name": "_approved",
          "type": "bool"
        }
      ],
      "name": "ApprovalForAll",
      "type": "event"
    },
    {
      "anonymous": false,
      "inputs": [
        {
          "indexed": true,
          "internalType": "address",
          "name": "previousOwner",
          "type": "address"
        },
        {
          "indexed": true,
          "internalType": "address",
          "name": "newOwner",
          "type": "address"
        }
      ],
      "name": "OwnershipTransferred",
      "type": "event"
    },
    {
      "anonymous": false,
      "inputs": [
        {
          "indexed": false,
          "internalType": "uint256",
          "name": "tokenId",
          "type": "uint256"
        },
        {
          "indexed": false,
          "internalType": "address[]",
          "name": "recipients",
          "type": "address[]"
        },
        {
          "indexed": false,
          "internalType": "uint256[]",
          "name": "bps",
          "type": "uint256[]"
        }
      ],
      "name": "SecondarySaleFees",
      "type": "event"
    },
    {
      "anonymous": false,
      "inputs": [
        {
          "indexed": true,
          "internalType": "address",
          "name": "account",
          "type": "address"
        }
      ],
      "name": "SignerAdded",
      "type": "event"
    },
    {
      "anonymous": false,
      "inputs": [
        {
          "indexed": true,
          "internalType": "address",
          "name": "account",
          "type": "address"
        }
      ],
      "name": "SignerRemoved",
      "type": "event"
    },
    {
      "anonymous": false,
      "inputs": [
        {
          "indexed": true,
          "internalType": "address",
          "name": "_operator",
          "type": "address"
        },
        {
          "indexed": true,
          "internalType": "address",
          "name": "_from",
          "type": "address"
        },
        {
          "indexed": true,
          "internalType": "address",
          "name": "_to",
          "type": "address"
        },
        {
          "indexed": false,
          "internalType": "uint256[]",
          "name": "_ids",
          "type": "uint256[]"
        },
        {
          "indexed": false,
          "internalType": "uint256[]",
          "name": "_amounts",
          "type": "uint256[]"
        }
      ],
      "name": "TransferBatch",
      "type": "event"
    },
    {
      "anonymous": false,
      "inputs": [
        {
          "indexed": true,
          "internalType": "address",
          "name": "_operator",
          "type": "address"
        },
        {
          "indexed": true,
          "internalType": "address",
          "name": "_from",
          "type": "address"
        },
        {
          "indexed": true,
          "internalType": "address",
          "name": "_to",
          "type": "address"
        },
        {
          "indexed": false,
          "internalType": "uint256",
          "name": "_id",
          "type": "uint256"
        },
        {
          "indexed": false,
          "internalType": "uint256",
          "name": "_amount",
          "type": "uint256"
        }
      ],
      "name": "TransferSingle",
      "type": "event"
    },
    {
      "anonymous": false,
      "inputs": [
        {
          "indexed": false,
          "internalType": "string",
          "name": "_amount",
          "type": "string"
        },
        {
          "indexed": true,
          "internalType": "uint256",
          "name": "_id",
          "type": "uint256"
        }
      ],
      "name": "URI",
      "type": "event"
    },
    {
      "inputs": [
        {
          "internalType": "address",
          "name": "_owner",
          "type": "address"
        },
        {
          "internalType": "uint256",
          "name": "_id",
          "type": "uint256"
        }
      ],
      "name": "balanceOf",
      "outputs": [
        {
          "internalType": "uint256",
          "name": "",
          "type": "uint256"
        }
      ],
      "stateMutability": "view",
      "type": "function"
    },
    {
      "inputs": [
        {
          "internalType": "address[]",
          "name": "_owners",
          "type": "address[]"
        },
        {
          "internalType": "uint256[]",
          "name": "_ids",
          "type": "uint256[]"
        }
      ],
      "name": "balanceOfBatch",
      "outputs": [
        {
          "internalType": "uint256[]",
          "name": "",
          "type": "uint256[]"
        }
      ],
      "stateMutability": "view",
      "type": "function"
    },
    {
      "inputs": [
        {
          "internalType": "address",
          "name": "_owner",
          "type": "address"
        },
        {
          "internalType": "uint256",
          "name": "_id",
          "type": "uint256"
        },
        {
          "internalType": "uint256",
          "name": "_value",
          "type": "uint256"
        }
      ],
      "name": "burn",
      "outputs": [],
      "stateMutability": "nonpayable",
      "type": "function"
    },
    {
      "inputs": [],
      "name": "contractURI",
      "outputs": [
        {
          "internalType": "string",
          "name": "",
          "type": "string"
        }
      ],
      "stateMutability": "view",
      "type": "function"
    },
    {
      "inputs": [
        {
          "internalType": "uint256",
          "name": "",
          "type": "uint256"
        }
      ],
      "name": "creators",
      "outputs": [
        {
          "internalType": "address",
          "name": "",
          "type": "address"
        }
      ],
      "stateMutability": "view",
      "type": "function"
    },
    {
      "inputs": [
        {
          "internalType": "uint256",
          "name": "",
          "type": "uint256"
        },
        {
          "internalType": "uint256",
          "name": "",
          "type": "uint256"
        }
      ],
      "name": "fees",
      "outputs": [
        {
          "internalType": "address payable",
          "name": "recipient",
          "type": "address"
        },
        {
          "internalType": "uint256",
          "name": "value",
          "type": "uint256"
        }
      ],
      "stateMutability": "view",
      "type": "function"
    },
    {
      "inputs": [
        {
          "internalType": "uint256",
          "name": "id",
          "type": "uint256"
        }
      ],
      "name": "getFeeBps",
      "outputs": [
        {
          "internalType": "uint256[]",
          "name": "",
          "type": "uint256[]"
        }
      ],
      "stateMutability": "view",
      "type": "function"
    },
    {
      "inputs": [
        {
          "internalType": "uint256",
          "name": "id",
          "type": "uint256"
        }
      ],
      "name": "getFeeRecipients",
      "outputs": [
        {
          "internalType": "address payable[]",
          "name": "",
          "type": "address[]"
        }
      ],
      "stateMutability": "view",
      "type": "function"
    },
    {
      "inputs": [
        {
          "internalType": "address",
          "name": "_owner",
          "type": "address"
        },
        {
          "internalType": "address",
          "name": "_operator",
          "type": "address"
        }
      ],
      "name": "isApprovedForAll",
      "outputs": [
        {
          "internalType": "bool",
          "name": "",
          "type": "bool"
        }
      ],
      "stateMutability": "view",
      "type": "function"
    },
    {
      "inputs": [
        {
          "internalType": "address",
          "name": "account",
          "type": "address"
        }
      ],
      "name": "isSigner",
      "outputs": [
        {
          "internalType": "bool",
          "name": "",
          "type": "bool"
        }
      ],
      "stateMutability": "view",
      "type": "function"
    },
    {
      "inputs": [],
      "name": "name",
      "outputs": [
        {
          "internalType": "string",
          "name": "",
          "type": "string"
        }
      ],
      "stateMutability": "view",
      "type": "function"
    },
    {
      "inputs": [],
      "name": "owner",
      "outputs": [
        {
          "internalType": "address",
          "name": "",
          "type": "address"
        }
      ],
      "stateMutability": "view",
      "type": "function"
    },
    {
      "inputs": [],
      "name": "renounceOwnership",
      "outputs": [],
      "stateMutability": "nonpayable",
      "type": "function"
    },
    {
      "inputs": [],
      "name": "renounceSigner",
      "outputs": [],
      "stateMutability": "nonpayable",
      "type": "function"
    },
    {
      "inputs": [
        {
          "internalType": "address",
          "name": "_from",
          "type": "address"
        },
        {
          "internalType": "address",
          "name": "_to",
          "type": "address"
        },
        {
          "internalType": "uint256[]",
          "name": "_ids",
          "type": "uint256[]"
        },
        {
          "internalType": "uint256[]",
          "name": "_values",
          "type": "uint256[]"
        },
        {
          "internalType": "bytes",
          "name": "_data",
          "type": "bytes"
        }
      ],
      "name": "safeBatchTransferFrom",
      "outputs": [],
      "stateMutability": "nonpayable",
      "type": "function"
    },
    {
      "inputs": [
        {
          "internalType": "address",
          "name": "_from",
          "type": "address"
        },
        {
          "internalType": "address",
          "name": "_to",
          "type": "address"
        },
        {
          "internalType": "uint256",
          "name": "_id",
          "type": "uint256"
        },
        {
          "internalType": "uint256",
          "name": "_value",
          "type": "uint256"
        },
        {
          "internalType": "bytes",
          "name": "_data",
          "type": "bytes"
        }
      ],
      "name": "safeTransferFrom",
      "outputs": [],
      "stateMutability": "nonpayable",
      "type": "function"
    },
    {
      "inputs": [
        {
          "internalType": "address",
          "name": "_operator",
          "type": "address"
        },
        {
          "internalType": "bool",
          "name": "_approved",
          "type": "bool"
        }
      ],
      "name": "setApprovalForAll",
      "outputs": [],
      "stateMutability": "nonpayable",
      "type": "function"
    },
    {
      "inputs": [
        {
          "internalType": "string",
          "name": "contractURI",
          "type": "string"
        }
      ],
      "name": "setContractURI",
      "outputs": [],
      "stateMutability": "nonpayable",
      "type": "function"
    },
    {
      "inputs": [
        {
          "internalType": "string",
          "name": "tokenURIPrefix",
          "type": "string"
        }
      ],
      "name": "setTokenURIPrefix",
      "outputs": [],
      "stateMutability": "nonpayable",
      "type": "function"
    },
    {
      "inputs": [
        {
          "internalType": "bytes4",
          "name": "interfaceId",
          "type": "bytes4"
        }
      ],
      "name": "supportsInterface",
      "outputs": [
        {
          "internalType": "bool",
          "name": "",
          "type": "bool"
        }
      ],
      "stateMutability": "view",
      "type": "function"
    },
    {
      "inputs": [],
      "name": "symbol",
      "outputs": [
        {
          "internalType": "string",
          "name": "",
          "type": "string"
        }
      ],
      "stateMutability": "view",
      "type": "function"
    },
    {
      "inputs": [],
      "name": "tokenURIPrefix",
      "outputs": [
        {
          "internalType": "string",
          "name": "",
          "type": "string"
        }
      ],
      "stateMutability": "view",
      "type": "function"
    },
    {
      "inputs": [
        {
          "internalType": "address",
          "name": "newOwner",
          "type": "address"
        }
      ],
      "name": "transferOwnership",
      "outputs": [],
      "stateMutability": "nonpayable",
      "type": "function"
    },
    {
      "inputs": [
        {
          "internalType": "uint256",
          "name": "_id",
          "type": "uint256"
        }
      ],
      "name": "uri",
      "outputs": [
        {
          "internalType": "string",
          "name": "",
          "type": "string"
        }
      ],
      "stateMutability": "view",
      "type": "function"
    },
    {
      "inputs": [
        {
          "internalType": "address",
          "name": "account",
          "type": "address"
        }
      ],
      "name": "addSigner",
      "outputs": [],
      "stateMutability": "nonpayable",
      "type": "function"
    },
    {
      "inputs": [
        {
          "internalType": "address",
          "name": "account",
          "type": "address"
        }
      ],
      "name": "removeSigner",
      "outputs": [],
      "stateMutability": "nonpayable",
      "type": "function"
    },
    {
      "inputs": [
        {
          "internalType": "uint256",
          "name": "id",
          "type": "uint256"
        },
        {
          "internalType": "uint8",
          "name": "v",
          "type": "uint8"
        },
        {
          "internalType": "bytes32",
          "name": "r",
          "type": "bytes32"
        },
        {
          "internalType": "bytes32",
          "name": "s",
          "type": "bytes32"
        },
        {
          "components": [
            {
              "internalType": "address payable",
              "name": "recipient",
              "type": "address"
            },
            {
              "internalType": "uint256",
              "name": "value",
              "type": "uint256"
            }
          ],
          "internalType": "struct ERC1155Base.Fee[]",
          "name": "fees",
          "type": "tuple[]"
        },
        {
          "internalType": "uint256",
          "name": "supply",
          "type": "uint256"
        },
        {
          "internalType": "string",
          "name": "uri",
          "type": "string"
        }
      ],
      "name": "mint",
      "outputs": [],
      "stateMutability": "nonpayable",
      "type": "function"
    }
  ],
  "bytecode": "0x60806040523480156200001157600080fd5b506040516200530c3803806200530c8339818101604052810190620000379190620005fb565b8181818180620000546301ffc9a760e01b6200022360201b60201c565b6200006c63b779958460e01b6200022360201b60201c565b60006200007e620002fb60201b60201c565b905080600160006101000a81548173ffffffffffffffffffffffffffffffffffffffff021916908373ffffffffffffffffffffffffffffffffffffffff1602179055508073ffffffffffffffffffffffffffffffffffffffff16600073ffffffffffffffffffffffffffffffffffffffff167f8be0079c531659141344cd1fd0a4f28419497f9722a3daafe3b4186f6b6457e060405160405180910390a3506200013d62000131620002fb60201b60201c565b6200030360201b60201c565b806003908051906020019062000155929190620004e2565b505050806005908051906020019062000170929190620004e2565b506200018963e8a3d48560e01b6200022360201b60201c565b50620001a263d9b67a2660e01b6200022360201b60201c565b505084600a9080519060200190620001bc929190620004e2565b5083600b9080519060200190620001d5929190620004e2565b50620001e7836200030360201b60201c565b620002187fe37243f27916e395706434720b54132b80ef5cc8c56f39b0df6485e8dfb697cf6200022360201b60201c565b505050505062000923565b63ffffffff60e01b817bffffffffffffffffffffffffffffffffffffffffffffffffffffffff191614156200028f576040517f08c379a00000000000000000000000000000000000000000000000000000000081526004016200028690620007ef565b60405180910390fd5b6001600080837bffffffffffffffffffffffffffffffffffffffffffffffffffffffff19167bffffffffffffffffffffffffffffffffffffffffffffffffffffffff1916815260200190815260200160002060006101000a81548160ff02191690831515021790555050565b600033905090565b6200031e8160026200036460201b6200203d1790919060201c565b8073ffffffffffffffffffffffffffffffffffffffff167f47d1c22a25bb3a5d4e481b9b1e6944c2eade3181a0a20b495ed61d35b5323f2460405160405180910390a250565b6200037682826200041760201b60201c565b15620003b9576040517f08c379a0000000000000000000000000000000000000000000000000000000008152600401620003b090620007cd565b60405180910390fd5b60018260000160008373ffffffffffffffffffffffffffffffffffffffff1673ffffffffffffffffffffffffffffffffffffffff16815260200190815260200160002060006101000a81548160ff0219169083151502179055505050565b60008073ffffffffffffffffffffffffffffffffffffffff168273ffffffffffffffffffffffffffffffffffffffff1614156200048b576040517f08c379a0000000000000000000000000000000000000000000000000000000008152600401620004829062000811565b60405180910390fd5b8260000160008373ffffffffffffffffffffffffffffffffffffffff1673ffffffffffffffffffffffffffffffffffffffff16815260200190815260200160002060009054906101000a900460ff16905092915050565b828054600181600116156101000203166002900490600052602060002090601f016020900481019282601f106200052557805160ff191683800117855562000556565b8280016001018555821562000556579182015b828111156200055557825182559160200191906001019062000538565b5b50905062000565919062000569565b5090565b5b80821115620005845760008160009055506001016200056a565b5090565b600081519050620005998162000909565b92915050565b600082601f830112620005b157600080fd5b8151620005c8620005c28262000861565b62000833565b91508082526020830160208301858383011115620005e557600080fd5b620005f2838284620008d3565b50505092915050565b600080600080600060a086880312156200061457600080fd5b600086015167ffffffffffffffff8111156200062f57600080fd5b6200063d888289016200059f565b955050602086015167ffffffffffffffff8111156200065b57600080fd5b62000669888289016200059f565b94505060406200067c8882890162000588565b935050606086015167ffffffffffffffff8111156200069a57600080fd5b620006a8888289016200059f565b925050608086015167ffffffffffffffff811115620006c657600080fd5b620006d4888289016200059f565b9150509295509295909350565b6000620006f0601f836200088e565b91507f526f6c65733a206163636f756e7420616c72656164792068617320726f6c65006000830152602082019050919050565b600062000732601c836200088e565b91507f4552433136353a20696e76616c696420696e74657266616365206964000000006000830152602082019050919050565b6000620007746022836200088e565b91507f526f6c65733a206163636f756e7420697320746865207a65726f20616464726560008301527f73730000000000000000000000000000000000000000000000000000000000006020830152604082019050919050565b60006020820190508181036000830152620007e881620006e1565b9050919050565b600060208201905081810360008301526200080a8162000723565b9050919050565b600060208201905081810360008301526200082c8162000765565b9050919050565b6000604051905081810181811067ffffffffffffffff821117156200085757600080fd5b8060405250919050565b600067ffffffffffffffff8211156200087957600080fd5b601f19601f8301169050602081019050919050565b600082825260208201905092915050565b6000620008ac82620008b3565b9050919050565b600073ffffffffffffffffffffffffffffffffffffffff82169050919050565b60005b83811015620008f3578082015181840152602081019050620008d6565b8381111562000903576000848401525b50505050565b62000914816200089f565b81146200092057600080fd5b50565b6149d980620009336000396000f3fe608060405234801561001057600080fd5b50600436106101a85760003560e01c806395d89b41116100f9578063e5c8b03d11610097578063eb12d61e11610071578063eb12d61e146104e0578063f242432a146104fc578063f2fde38b14610518578063f5298aca14610534576101a8565b8063e5c8b03d14610488578063e8a3d48514610492578063e985e9c5146104b0576101a8565b8063b9c4d9fb116100d3578063b9c4d9fb146103ee578063c0ac99831461041e578063c6bf32621461043c578063cd53d08e14610458576101a8565b806395d89b411461039857806399e0dd7c146103b6578063a22cb465146103d2576101a8565b80632eb2c2d611610166578063715018a611610140578063715018a6146103245780637df73e271461032e5780638da5cb5b1461035e578063938e3d7b1461037c576101a8565b80632eb2c2d6146102a75780634e1273f4146102c35780636308f1cd146102f3576101a8565b8062fdd58e146101ad57806301ffc9a7146101dd57806306fdde031461020d5780630e316ab71461022b5780630e89341c146102475780630ebd4c7f14610277575b600080fd5b6101c760048036038101906101c291906134b6565b610550565b6040516101d491906145c6565b60405180910390f35b6101f760048036038101906101f291906135b6565b6105ab565b60405161020491906142a4565b60405180910390f35b610215610612565b6040516102229190614304565b60405180910390f35b610245600480360381019061024091906132b7565b6106b0565b005b610261600480360381019061025c9190613649565b610738565b60405161026e9190614304565b60405180910390f35b610291600480360381019061028c9190613649565b61074a565b60405161029e9190614282565b60405180910390f35b6102c160048036038101906102bc919061331c565b6108b8565b005b6102dd60048036038101906102d89190613541565b610db3565b6040516102ea9190614282565b60405180910390f35b61030d60048036038101906103089190613672565b610ed6565b60405161031b92919061413a565b60405180910390f35b61032c610f34565b005b610348600480360381019061034391906132b7565b611071565b60405161035591906142a4565b60405180910390f35b61036661108e565b604051610373919061411f565b60405180910390f35b61039660048036038101906103919190613608565b6110b8565b005b6103a0611140565b6040516103ad9190614304565b60405180910390f35b6103d060048036038101906103cb9190613608565b6111de565b005b6103ec60048036038101906103e7919061347a565b611266565b005b61040860048036038101906104039190613649565b611363565b6040516104159190614225565b60405180910390f35b6104266114ff565b6040516104339190614304565b60405180910390f35b610456600480360381019061045191906136ae565b61159d565b005b610472600480360381019061046d9190613649565b611670565b60405161047f919061411f565b60405180910390f35b6104906116a3565b005b61049a6116b5565b6040516104a79190614304565b60405180910390f35b6104ca60048036038101906104c591906132e0565b611753565b6040516104d791906142a4565b60405180910390f35b6104fa60048036038101906104f591906132b7565b6117e7565b005b610516600480360381019061051191906133e8565b61186f565b005b610532600480360381019061052d91906132b7565b611c50565b005b61054e600480360381019061054991906134f2565b611dfc565b005b60006006600083815260200190815260200160002060008473ffffffffffffffffffffffffffffffffffffffff1673ffffffffffffffffffffffffffffffffffffffff16815260200190815260200160002054905092915050565b6000806000837bffffffffffffffffffffffffffffffffffffffffffffffffffffffff19167bffffffffffffffffffffffffffffffffffffffffffffffffffffffff1916815260200190815260200160002060009054906101000a900460ff169050919050565b600a8054600181600116156101000203166002900480601f0160208091040260200160405190810160405280929190818152602001828054600181600116156101000203166002900480156106a85780601f1061067d576101008083540402835291602001916106a8565b820191906000526020600020905b81548152906001019060200180831161068b57829003601f168201915b505050505081565b6106b86120e5565b73ffffffffffffffffffffffffffffffffffffffff166106d661108e565b73ffffffffffffffffffffffffffffffffffffffff161461072c576040517f08c379a000000000000000000000000000000000000000000000000000000000815260040161072390614486565b60405180910390fd5b610735816120ed565b50565b606061074382612147565b9050919050565b60608060096000848152602001908152602001600020805480602002602001604051908101604052809291908181526020016000905b8282101561081257838290600052602060002090600202016040518060400160405290816000820160009054906101000a900473ffffffffffffffffffffffffffffffffffffffff1673ffffffffffffffffffffffffffffffffffffffff1673ffffffffffffffffffffffffffffffffffffffff16815260200160018201548152505081526020019060010190610780565b5050505090506060815167ffffffffffffffff8111801561083257600080fd5b506040519080825280602002602001820160405280156108615781602001602082028036833780820191505090505b50905060005b82518110156108ad5782818151811061087c57fe5b60200260200101516020015182828151811061089457fe5b6020026020010181815250508080600101915050610867565b508092505050919050565b600073ffffffffffffffffffffffffffffffffffffffff168773ffffffffffffffffffffffffffffffffffffffff161415610928576040517f08c379a000000000000000000000000000000000000000000000000000000000815260040161091f906143e6565b60405180910390fd5b838390508686905014610970576040517f08c379a000000000000000000000000000000000000000000000000000000000815260040161096790614506565b60405180910390fd5b3373ffffffffffffffffffffffffffffffffffffffff168873ffffffffffffffffffffffffffffffffffffffff161480610a37575060011515600760008a73ffffffffffffffffffffffffffffffffffffffff1673ffffffffffffffffffffffffffffffffffffffff16815260200190815260200160002060003373ffffffffffffffffffffffffffffffffffffffff1673ffffffffffffffffffffffffffffffffffffffff16815260200190815260200160002060009054906101000a900460ff161515145b610a76576040517f08c379a0000000000000000000000000000000000000000000000000000000008152600401610a6d90614446565b60405180910390fd5b60005b86869050811015610c2d576000878783818110610a9257fe5b9050602002013590506000868684818110610aa957fe5b905060200201359050610b15816006600085815260200190815260200160002060008e73ffffffffffffffffffffffffffffffffffffffff1673ffffffffffffffffffffffffffffffffffffffff168152602001908152602001600020546122a890919063ffffffff16565b6006600084815260200190815260200160002060008d73ffffffffffffffffffffffffffffffffffffffff1673ffffffffffffffffffffffffffffffffffffffff16815260200190815260200160002081905550610bcc6006600084815260200190815260200160002060008c73ffffffffffffffffffffffffffffffffffffffff1673ffffffffffffffffffffffffffffffffffffffff16815260200190815260200160002054826122f890919063ffffffff16565b6006600084815260200190815260200160002060008c73ffffffffffffffffffffffffffffffffffffffff1673ffffffffffffffffffffffffffffffffffffffff168152602001908152602001600020819055505050806001019050610a79565b508673ffffffffffffffffffffffffffffffffffffffff168873ffffffffffffffffffffffffffffffffffffffff163373ffffffffffffffffffffffffffffffffffffffff167f4a39dc06d4c0dbc64b70af90fd698a233a518aa5d07e595d983b8c0526c8f7fb89898989604051610ca89493929190614247565b60405180910390a4610ccf8773ffffffffffffffffffffffffffffffffffffffff1661234d565b15610da957610da8338989898980806020026020016040519081016040528093929190818152602001838360200280828437600081840152601f19601f82011690508083019250505050505050888880806020026020016040519081016040528093929190818152602001838360200280828437600081840152601f19601f8201169050808301925050505050505087878080601f016020809104026020016040519081016040528093929190818152602001838380828437600081840152601f19601f82011690508083019250505050505050612360565b5b5050505050505050565b6060828290508585905014610dc757600080fd5b60608585905067ffffffffffffffff81118015610de357600080fd5b50604051908082528060200260200182016040528015610e125781602001602082028036833780820191505090505b50905060005b86869050811015610ec95760066000868684818110610e3357fe5b9050602002013581526020019081526020016000206000888884818110610e5657fe5b9050602002016020810190610e6b91906132b7565b73ffffffffffffffffffffffffffffffffffffffff1673ffffffffffffffffffffffffffffffffffffffff16815260200190815260200160002054828281518110610eb257fe5b602002602001018181525050806001019050610e18565b5080915050949350505050565b60096020528160005260406000208181548110610eef57fe5b9060005260206000209060020201600091509150508060000160009054906101000a900473ffffffffffffffffffffffffffffffffffffffff16908060010154905082565b610f3c6120e5565b73ffffffffffffffffffffffffffffffffffffffff16610f5a61108e565b73ffffffffffffffffffffffffffffffffffffffff1614610fb0576040517f08c379a0000000000000000000000000000000000000000000000000000000008152600401610fa790614486565b60405180910390fd5b600073ffffffffffffffffffffffffffffffffffffffff16600160009054906101000a900473ffffffffffffffffffffffffffffffffffffffff1673ffffffffffffffffffffffffffffffffffffffff167f8be0079c531659141344cd1fd0a4f28419497f9722a3daafe3b4186f6b6457e060405160405180910390a36000600160006101000a81548173ffffffffffffffffffffffffffffffffffffffff021916908373ffffffffffffffffffffffffffffffffffffffff160217905550565b600061108782600261248190919063ffffffff16565b9050919050565b6000600160009054906101000a900473ffffffffffffffffffffffffffffffffffffffff16905090565b6110c06120e5565b73ffffffffffffffffffffffffffffffffffffffff166110de61108e565b73ffffffffffffffffffffffffffffffffffffffff1614611134576040517f08c379a000000000000000000000000000000000000000000000000000000000815260040161112b90614486565b60405180910390fd5b61113d81612549565b50565b600b8054600181600116156101000203166002900480601f0160208091040260200160405190810160405280929190818152602001828054600181600116156101000203166002900480156111d65780601f106111ab576101008083540402835291602001916111d6565b820191906000526020600020905b8154815290600101906020018083116111b957829003601f168201915b505050505081565b6111e66120e5565b73ffffffffffffffffffffffffffffffffffffffff1661120461108e565b73ffffffffffffffffffffffffffffffffffffffff161461125a576040517f08c379a000000000000000000000000000000000000000000000000000000000815260040161125190614486565b60405180910390fd5b61126381612563565b50565b80600760003373ffffffffffffffffffffffffffffffffffffffff1673ffffffffffffffffffffffffffffffffffffffff16815260200190815260200160002060008473ffffffffffffffffffffffffffffffffffffffff1673ffffffffffffffffffffffffffffffffffffffff16815260200190815260200160002060006101000a81548160ff0219169083151502179055508173ffffffffffffffffffffffffffffffffffffffff163373ffffffffffffffffffffffffffffffffffffffff167f17307eab39ab6107e8899845ad3d59bd9653f200f220920489ca2b5937696c318360405161135791906142a4565b60405180910390a35050565b60608060096000848152602001908152602001600020805480602002602001604051908101604052809291908181526020016000905b8282101561142b57838290600052602060002090600202016040518060400160405290816000820160009054906101000a900473ffffffffffffffffffffffffffffffffffffffff1673ffffffffffffffffffffffffffffffffffffffff1673ffffffffffffffffffffffffffffffffffffffff16815260200160018201548152505081526020019060010190611399565b5050505090506060815167ffffffffffffffff8111801561144b57600080fd5b5060405190808252806020026020018201604052801561147a5781602001602082028036833780820191505090505b50905060005b82518110156114f45782818151811061149557fe5b6020026020010151600001518282815181106114ad57fe5b602002602001019073ffffffffffffffffffffffffffffffffffffffff16908173ffffffffffffffffffffffffffffffffffffffff16815250508080600101915050611480565b508092505050919050565b60038054600181600116156101000203166002900480601f0160208091040260200160405190810160405280929190818152602001828054600181600116156101000203166002900480156115955780601f1061156a57610100808354040283529160200191611595565b820191906000526020600020905b81548152906001019060200180831161157857829003601f168201915b505050505081565b61161c600130896040516020016115b59291906140f3565b60405160208183030381529060405280519060200120888888604051600081526020016040526040516115eb94939291906142bf565b6020604051602081039080840390855afa15801561160d573d6000803e3d6000fd5b50505060206040510351611071565b61165b576040517f08c379a000000000000000000000000000000000000000000000000000000000815260040161165290614586565b60405180910390fd5b6116678784848461257d565b50505050505050565b60086020528060005260406000206000915054906101000a900473ffffffffffffffffffffffffffffffffffffffff1681565b6116b36116ae6120e5565b6120ed565b565b60058054600181600116156101000203166002900480601f01602080910402602001604051908101604052809291908181526020018280546001816001161561010002031660029004801561174b5780601f106117205761010080835404028352916020019161174b565b820191906000526020600020905b81548152906001019060200180831161172e57829003601f168201915b505050505081565b6000600760008473ffffffffffffffffffffffffffffffffffffffff1673ffffffffffffffffffffffffffffffffffffffff16815260200190815260200160002060008373ffffffffffffffffffffffffffffffffffffffff1673ffffffffffffffffffffffffffffffffffffffff16815260200190815260200160002060009054906101000a900460ff16905092915050565b6117ef6120e5565b73ffffffffffffffffffffffffffffffffffffffff1661180d61108e565b73ffffffffffffffffffffffffffffffffffffffff1614611863576040517f08c379a000000000000000000000000000000000000000000000000000000000815260040161185a90614486565b60405180910390fd5b61186c81612b22565b50565b600073ffffffffffffffffffffffffffffffffffffffff168573ffffffffffffffffffffffffffffffffffffffff1614156118df576040517f08c379a00000000000000000000000000000000000000000000000000000000081526004016118d690614566565b60405180910390fd5b3373ffffffffffffffffffffffffffffffffffffffff168673ffffffffffffffffffffffffffffffffffffffff1614806119a6575060011515600760008873ffffffffffffffffffffffffffffffffffffffff1673ffffffffffffffffffffffffffffffffffffffff16815260200190815260200160002060003373ffffffffffffffffffffffffffffffffffffffff1673ffffffffffffffffffffffffffffffffffffffff16815260200190815260200160002060009054906101000a900460ff161515145b6119e5576040517f08c379a00000000000000000000000000000000000000000000000000000000081526004016119dc90614446565b60405180910390fd5b611a48836006600087815260200190815260200160002060008973ffffffffffffffffffffffffffffffffffffffff1673ffffffffffffffffffffffffffffffffffffffff168152602001908152602001600020546122a890919063ffffffff16565b6006600086815260200190815260200160002060008873ffffffffffffffffffffffffffffffffffffffff1673ffffffffffffffffffffffffffffffffffffffff16815260200190815260200160002081905550611aff6006600086815260200190815260200160002060008773ffffffffffffffffffffffffffffffffffffffff1673ffffffffffffffffffffffffffffffffffffffff16815260200190815260200160002054846122f890919063ffffffff16565b6006600086815260200190815260200160002060008773ffffffffffffffffffffffffffffffffffffffff1673ffffffffffffffffffffffffffffffffffffffff168152602001908152602001600020819055508473ffffffffffffffffffffffffffffffffffffffff168673ffffffffffffffffffffffffffffffffffffffff163373ffffffffffffffffffffffffffffffffffffffff167fc3d58168c5ae7397731d063d5bbf3d657854427343f4c083240f7aacaa2d0f628787604051611bc9929190614626565b60405180910390a4611bf08573ffffffffffffffffffffffffffffffffffffffff1661234d565b15611c4857611c47338787878787878080601f016020809104026020016040519081016040528093929190818152602001838380828437600081840152601f19601f82011690508083019250505050505050612b7c565b5b505050505050565b611c586120e5565b73ffffffffffffffffffffffffffffffffffffffff16611c7661108e565b73ffffffffffffffffffffffffffffffffffffffff1614611ccc576040517f08c379a0000000000000000000000000000000000000000000000000000000008152600401611cc390614486565b60405180910390fd5b600073ffffffffffffffffffffffffffffffffffffffff168173ffffffffffffffffffffffffffffffffffffffff161415611d3c576040517f08c379a0000000000000000000000000000000000000000000000000000000008152600401611d3390614366565b60405180910390fd5b8073ffffffffffffffffffffffffffffffffffffffff16600160009054906101000a900473ffffffffffffffffffffffffffffffffffffffff1673ffffffffffffffffffffffffffffffffffffffff167f8be0079c531659141344cd1fd0a4f28419497f9722a3daafe3b4186f6b6457e060405160405180910390a380600160006101000a81548173ffffffffffffffffffffffffffffffffffffffff021916908373ffffffffffffffffffffffffffffffffffffffff16021790555050565b3373ffffffffffffffffffffffffffffffffffffffff168373ffffffffffffffffffffffffffffffffffffffff161480611ec3575060011515600760008573ffffffffffffffffffffffffffffffffffffffff1673ffffffffffffffffffffffffffffffffffffffff16815260200190815260200160002060003373ffffffffffffffffffffffffffffffffffffffff1673ffffffffffffffffffffffffffffffffffffffff16815260200190815260200160002060009054906101000a900460ff161515145b611f02576040517f08c379a0000000000000000000000000000000000000000000000000000000008152600401611ef990614426565b60405180910390fd5b611f65816006600085815260200190815260200160002060008673ffffffffffffffffffffffffffffffffffffffff1673ffffffffffffffffffffffffffffffffffffffff168152602001908152602001600020546122a890919063ffffffff16565b6006600084815260200190815260200160002060008573ffffffffffffffffffffffffffffffffffffffff1673ffffffffffffffffffffffffffffffffffffffff16815260200190815260200160002081905550600073ffffffffffffffffffffffffffffffffffffffff168373ffffffffffffffffffffffffffffffffffffffff163373ffffffffffffffffffffffffffffffffffffffff167fc3d58168c5ae7397731d063d5bbf3d657854427343f4c083240f7aacaa2d0f628585604051612030929190614626565b60405180910390a4505050565b6120478282612481565b15612087576040517f08c379a000000000000000000000000000000000000000000000000000000000815260040161207e90614346565b60405180910390fd5b60018260000160008373ffffffffffffffffffffffffffffffffffffffff1673ffffffffffffffffffffffffffffffffffffffff16815260200190815260200160002060006101000a81548160ff0219169083151502179055505050565b600033905090565b612101816002612c9d90919063ffffffff16565b8073ffffffffffffffffffffffffffffffffffffffff167f3525e22824a8a7df2c9a6029941c824cf95b6447f1e13d5128fd3826d35afe8b60405160405180910390a250565b60606122a1600460008481526020019081526020016000208054600181600116156101000203166002900480601f0160208091040260200160405190810160405280929190818152602001828054600181600116156101000203166002900480156121f35780601f106121c8576101008083540402835291602001916121f3565b820191906000526020600020905b8154815290600101906020018083116121d657829003601f168201915b505050505060038054600181600116156101000203166002900480601f01602080910402602001604051908101604052809291908181526020018280546001816001161561010002031660029004801561228e5780601f106122635761010080835404028352916020019161228e565b820191906000526020600020905b81548152906001019060200180831161227157829003601f168201915b5050505050612d4490919063ffffffff16565b9050919050565b6000828211156122ed576040517f08c379a00000000000000000000000000000000000000000000000000000000081526004016122e4906143c6565b60405180910390fd5b818303905092915050565b600080828401905083811015612343576040517f08c379a000000000000000000000000000000000000000000000000000000000815260040161233a90614386565b60405180910390fd5b8091505092915050565b600080823b905060008111915050919050565b63bc197c8160e01b7bffffffffffffffffffffffffffffffffffffffffffffffffffffffff19168473ffffffffffffffffffffffffffffffffffffffff1663bc197c8188888787876040518663ffffffff1660e01b81526004016123c8959493929190614163565b602060405180830381600087803b1580156123e257600080fd5b505af11580156123f6573d6000803e3d6000fd5b505050506040513d601f19601f8201168201806040525081019061241a91906135df565b7bffffffffffffffffffffffffffffffffffffffffffffffffffffffff191614612479576040517f08c379a000000000000000000000000000000000000000000000000000000000815260040161247090614466565b60405180910390fd5b505050505050565b60008073ffffffffffffffffffffffffffffffffffffffff168273ffffffffffffffffffffffffffffffffffffffff1614156124f2576040517f08c379a00000000000000000000000000000000000000000000000000000000081526004016124e9906144a6565b60405180910390fd5b8260000160008373ffffffffffffffffffffffffffffffffffffffff1673ffffffffffffffffffffffffffffffffffffffff16815260200190815260200160002060009054906101000a900460ff16905092915050565b806005908051906020019061255f929190612f71565b5050565b8060039080519060200190612579929190612f71565b5050565b600073ffffffffffffffffffffffffffffffffffffffff166008600086815260200190815260200160002060009054906101000a900473ffffffffffffffffffffffffffffffffffffffff1673ffffffffffffffffffffffffffffffffffffffff161461261f576040517f08c379a0000000000000000000000000000000000000000000000000000000008152600401612616906144c6565b60405180910390fd5b6000821415612663576040517f08c379a000000000000000000000000000000000000000000000000000000000815260040161265a906144e6565b60405180910390fd5b60008151116126a7576040517f08c379a000000000000000000000000000000000000000000000000000000000815260040161269e906145a6565b60405180910390fd5b336008600086815260200190815260200160002060006101000a81548173ffffffffffffffffffffffffffffffffffffffff021916908373ffffffffffffffffffffffffffffffffffffffff1602179055506060835167ffffffffffffffff8111801561271357600080fd5b506040519080825280602002602001820160405280156127425781602001602082028036833780820191505090505b5090506060845167ffffffffffffffff8111801561275f57600080fd5b5060405190808252806020026020018201604052801561278e5781602001602082028036833780820191505090505b50905060005b85518110156129bd57600073ffffffffffffffffffffffffffffffffffffffff168682815181106127c157fe5b60200260200101516000015173ffffffffffffffffffffffffffffffffffffffff161415612824576040517f08c379a000000000000000000000000000000000000000000000000000000000815260040161281b90614526565b60405180910390fd5b600086828151811061283257fe5b602002602001015160200151141561287f576040517f08c379a000000000000000000000000000000000000000000000000000000000815260040161287690614326565b60405180910390fd5b6009600088815260200190815260200160002086828151811061289e57fe5b6020026020010151908060018154018082558091505060019003906000526020600020906002020160009091909190915060008201518160000160006101000a81548173ffffffffffffffffffffffffffffffffffffffff021916908373ffffffffffffffffffffffffffffffffffffffff16021790555060208201518160010155505085818151811061292e57fe5b60200260200101516000015183828151811061294657fe5b602002602001019073ffffffffffffffffffffffffffffffffffffffff16908173ffffffffffffffffffffffffffffffffffffffff168152505085818151811061298c57fe5b6020026020010151602001518282815181106129a457fe5b6020026020010181815250508080600101915050612794565b50600085511115612a04577f99aba1d63749cfd5ad1afda7c4663840924d54eb5f005bbbeadedc6ec13674b28683836040516129fb939291906145e1565b60405180910390a15b836006600088815260200190815260200160002060003373ffffffffffffffffffffffffffffffffffffffff1673ffffffffffffffffffffffffffffffffffffffff16815260200190815260200160002081905550612a638684612e94565b3373ffffffffffffffffffffffffffffffffffffffff16600073ffffffffffffffffffffffffffffffffffffffff163373ffffffffffffffffffffffffffffffffffffffff167fc3d58168c5ae7397731d063d5bbf3d657854427343f4c083240f7aacaa2d0f628988604051612ada929190614626565b60405180910390a4857f6bb7ff708619ba0610cba295a58592e0451dee2622938c8755667688daf3529b84604051612b129190614304565b60405180910390a2505050505050565b612b3681600261203d90919063ffffffff16565b8073ffffffffffffffffffffffffffffffffffffffff167f47d1c22a25bb3a5d4e481b9b1e6944c2eade3181a0a20b495ed61d35b5323f2460405160405180910390a250565b63f23a6e6160e01b7bffffffffffffffffffffffffffffffffffffffffffffffffffffffff19168473ffffffffffffffffffffffffffffffffffffffff1663f23a6e6188888787876040518663ffffffff1660e01b8152600401612be49594939291906141cb565b602060405180830381600087803b158015612bfe57600080fd5b505af1158015612c12573d6000803e3d6000fd5b505050506040513d601f19601f82011682018060405250810190612c3691906135df565b7bffffffffffffffffffffffffffffffffffffffffffffffffffffffff191614612c95576040517f08c379a0000000000000000000000000000000000000000000000000000000008152600401612c8c90614546565b60405180910390fd5b505050505050565b612ca78282612481565b612ce6576040517f08c379a0000000000000000000000000000000000000000000000000000000008152600401612cdd90614406565b60405180910390fd5b60008260000160008373ffffffffffffffffffffffffffffffffffffffff1673ffffffffffffffffffffffffffffffffffffffff16815260200190815260200160002060006101000a81548160ff0219169083151502179055505050565b60608083905060608390506060815183510167ffffffffffffffff81118015612d6c57600080fd5b506040519080825280601f01601f191660200182016040528015612d9f5781602001600182028036833780820191505090505b5090506000805b8451811015612e1457848181518110612dbb57fe5b602001015160f81c60f81b838380600101945081518110612dd857fe5b60200101907effffffffffffffffffffffffffffffffffffffffffffffffffffffffffffff1916908160001a9053508080600101915050612da6565b5060005b8351811015612e8657838181518110612e2d57fe5b602001015160f81c60f81b838380600101945081518110612e4a57fe5b60200101907effffffffffffffffffffffffffffffffffffffffffffffffffffffffffffff1916908160001a9053508080600101915050612e18565b508194505050505092915050565b600073ffffffffffffffffffffffffffffffffffffffff166008600084815260200190815260200160002060009054906101000a900473ffffffffffffffffffffffffffffffffffffffff1673ffffffffffffffffffffffffffffffffffffffff161415612f37576040517f08c379a0000000000000000000000000000000000000000000000000000000008152600401612f2e906143a6565b60405180910390fd5b612f418282612f45565b5050565b80600460008481526020019081526020016000209080519060200190612f6c929190612f71565b505050565b828054600181600116156101000203166002900490600052602060002090601f016020900481019282601f10612fb257805160ff1916838001178555612fe0565b82800160010185558215612fe0579182015b82811115612fdf578251825591602001919060010190612fc4565b5b509050612fed9190612ff1565b5090565b5b8082111561300a576000816000905550600101612ff2565b5090565b60008135905061301d81614902565b92915050565b60008135905061303281614919565b92915050565b60008083601f84011261304a57600080fd5b8235905067ffffffffffffffff81111561306357600080fd5b60208301915083602082028301111561307b57600080fd5b9250929050565b600082601f83011261309357600080fd5b81356130a66130a18261467c565b61464f565b915081818352602084019350602081019050838560408402820111156130cb57600080fd5b60005b838110156130fb57816130e18882613241565b8452602084019350604083019250506001810190506130ce565b5050505092915050565b60008083601f84011261311757600080fd5b8235905067ffffffffffffffff81111561313057600080fd5b60208301915083602082028301111561314857600080fd5b9250929050565b60008135905061315e81614930565b92915050565b60008135905061317381614947565b92915050565b6000813590506131888161495e565b92915050565b60008151905061319d8161495e565b92915050565b60008083601f8401126131b557600080fd5b8235905067ffffffffffffffff8111156131ce57600080fd5b6020830191508360018202830111156131e657600080fd5b9250929050565b600082601f8301126131fe57600080fd5b813561321161320c826146a4565b61464f565b9150808252602083016020830185838301111561322d57600080fd5b613238838284614874565b50505092915050565b60006040828403121561325357600080fd5b61325d604061464f565b9050600061326d84828501613023565b60008301525060206132818482850161328d565b60208301525092915050565b60008135905061329c81614975565b92915050565b6000813590506132b18161498c565b92915050565b6000602082840312156132c957600080fd5b60006132d78482850161300e565b91505092915050565b600080604083850312156132f357600080fd5b60006133018582860161300e565b92505060206133128582860161300e565b9150509250929050565b60008060008060008060008060a0898b03121561333857600080fd5b60006133468b828c0161300e565b98505060206133578b828c0161300e565b975050604089013567ffffffffffffffff81111561337457600080fd5b6133808b828c01613105565b9650965050606089013567ffffffffffffffff81111561339f57600080fd5b6133ab8b828c01613105565b9450945050608089013567ffffffffffffffff8111156133ca57600080fd5b6133d68b828c016131a3565b92509250509295985092959890939650565b60008060008060008060a0878903121561340157600080fd5b600061340f89828a0161300e565b965050602061342089828a0161300e565b955050604061343189828a0161328d565b945050606061344289828a0161328d565b935050608087013567ffffffffffffffff81111561345f57600080fd5b61346b89828a016131a3565b92509250509295509295509295565b6000806040838503121561348d57600080fd5b600061349b8582860161300e565b92505060206134ac8582860161314f565b9150509250929050565b600080604083850312156134c957600080fd5b60006134d78582860161300e565b92505060206134e88582860161328d565b9150509250929050565b60008060006060848603121561350757600080fd5b60006135158682870161300e565b93505060206135268682870161328d565b92505060406135378682870161328d565b9150509250925092565b6000806000806040858703121561355757600080fd5b600085013567ffffffffffffffff81111561357157600080fd5b61357d87828801613038565b9450945050602085013567ffffffffffffffff81111561359c57600080fd5b6135a887828801613105565b925092505092959194509250565b6000602082840312156135c857600080fd5b60006135d684828501613179565b91505092915050565b6000602082840312156135f157600080fd5b60006135ff8482850161318e565b91505092915050565b60006020828403121561361a57600080fd5b600082013567ffffffffffffffff81111561363457600080fd5b613640848285016131ed565b91505092915050565b60006020828403121561365b57600080fd5b60006136698482850161328d565b91505092915050565b6000806040838503121561368557600080fd5b60006136938582860161328d565b92505060206136a48582860161328d565b9150509250929050565b600080600080600080600060e0888a0312156136c957600080fd5b60006136d78a828b0161328d565b97505060206136e88a828b016132a2565b96505060406136f98a828b01613164565b955050606061370a8a828b01613164565b945050608088013567ffffffffffffffff81111561372757600080fd5b6137338a828b01613082565b93505060a06137448a828b0161328d565b92505060c088013567ffffffffffffffff81111561376157600080fd5b61376d8a828b016131ed565b91505092959891949750929550565b600061378883836137c4565b60208301905092915050565b60006137a083836137e2565b60208301905092915050565b60006137b883836140af565b60208301905092915050565b6137cd816147c5565b82525050565b6137dc816147c5565b82525050565b6137eb816147b3565b82525050565b6137fa816147b3565b82525050565b600061380b82614700565b613815818561475e565b9350613820836146d0565b8060005b838110156138515781516138388882613794565b975061384383614737565b925050600181019050613824565b5085935050505092915050565b60006138698261470b565b613873818561476f565b935061387e836146e0565b8060005b838110156138af578151613896888261377c565b97506138a183614744565b925050600181019050613882565b5085935050505092915050565b60006138c88385614780565b93507f07ffffffffffffffffffffffffffffffffffffffffffffffffffffffffffffff8311156138f757600080fd5b602083029250613908838584614874565b82840190509392505050565b600061391f82614716565b6139298185614780565b9350613934836146f0565b8060005b8381101561396557815161394c88826137ac565b975061395783614751565b925050600181019050613938565b5085935050505092915050565b61397b816147d7565b82525050565b61398a816147e3565b82525050565b600061399b82614721565b6139a58185614791565b93506139b5818560208601614883565b6139be816148e4565b840191505092915050565b6139da6139d582614850565b6148b6565b82525050565b60006139eb8261472c565b6139f581856147a2565b9350613a05818560208601614883565b613a0e816148e4565b840191505092915050565b6000613a26601c836147a2565b91507f4665652076616c75652073686f756c6420626520706f736974697665000000006000830152602082019050919050565b6000613a66601f836147a2565b91507f526f6c65733a206163636f756e7420616c72656164792068617320726f6c65006000830152602082019050919050565b6000613aa66026836147a2565b91507f4f776e61626c653a206e6577206f776e657220697320746865207a65726f206160008301527f64647265737300000000000000000000000000000000000000000000000000006020830152604082019050919050565b6000613b0c601b836147a2565b91507f536166654d6174683a206164646974696f6e206f766572666c6f7700000000006000830152602082019050919050565b6000613b4c6020836147a2565b91507f5f736574546f6b656e5552493a20546f6b656e2073686f756c642065786973746000830152602082019050919050565b6000613b8c601e836147a2565b91507f536166654d6174683a207375627472616374696f6e206f766572666c6f7700006000830152602082019050919050565b6000613bcc6025836147a2565b91507f64657374696e6174696f6e2061646472657373206d757374206265206e6f6e2d60008301527f7a65726f2e0000000000000000000000000000000000000000000000000000006020830152604082019050919050565b6000613c326021836147a2565b91507f526f6c65733a206163636f756e7420646f6573206e6f74206861766520726f6c60008301527f65000000000000000000000000000000000000000000000000000000000000006020830152604082019050919050565b6000613c98602b836147a2565b91507f4e656564206f70657261746f7220617070726f76616c20666f7220337264207060008301527f61727479206275726e732e0000000000000000000000000000000000000000006020830152604082019050919050565b6000613cfe602f836147a2565b91507f4e656564206f70657261746f7220617070726f76616c20666f7220337264207060008301527f61727479207472616e73666572732e00000000000000000000000000000000006020830152604082019050919050565b6000613d64603e836147a2565b91507f636f6e74726163742072657475726e656420616e20756e6b6e6f776e2076616c60008301527f75652066726f6d206f6e455243313135354261746368526563656976656400006020830152604082019050919050565b6000613dca6020836147a2565b91507f4f776e61626c653a2063616c6c6572206973206e6f7420746865206f776e65726000830152602082019050919050565b6000613e0a6022836147a2565b91507f526f6c65733a206163636f756e7420697320746865207a65726f20616464726560008301527f73730000000000000000000000000000000000000000000000000000000000006020830152604082019050919050565b6000613e706017836147a2565b91507f546f6b656e20697320616c7265616479206d696e7465640000000000000000006000830152602082019050919050565b6000613eb06019836147a2565b91507f537570706c792073686f756c6420626520706f736974697665000000000000006000830152602082019050919050565b6000613ef06029836147a2565b91507f5f69647320616e64205f76616c756573206172726179206c656e676874206d7560008301527f7374206d617463682e00000000000000000000000000000000000000000000006020830152604082019050919050565b6000613f56601b836147a2565b91507f526563697069656e742073686f756c642062652070726573656e7400000000006000830152602082019050919050565b6000613f966039836147a2565b91507f636f6e74726163742072657475726e656420616e20756e6b6e6f776e2076616c60008301527f75652066726f6d206f6e455243313135355265636569766564000000000000006020830152604082019050919050565b6000613ffc6015836147a2565b91507f5f746f206d757374206265206e6f6e2d7a65726f2e00000000000000000000006000830152602082019050919050565b600061403c601a836147a2565b91507f7369676e65722073686f756c64207369676e20746f6b656e49640000000000006000830152602082019050919050565b600061407c6011836147a2565b91507f7572692073686f756c64206265207365740000000000000000000000000000006000830152602082019050919050565b6140b881614839565b82525050565b6140c781614839565b82525050565b6140de6140d982614839565b6148da565b82525050565b6140ed81614843565b82525050565b60006140ff82856139c9565b60148201915061410f82846140cd565b6020820191508190509392505050565b600060208201905061413460008301846137f1565b92915050565b600060408201905061414f60008301856137d3565b61415c60208301846140be565b9392505050565b600060a08201905061417860008301886137f1565b61418560208301876137f1565b81810360408301526141978186613914565b905081810360608301526141ab8185613914565b905081810360808301526141bf8184613990565b90509695505050505050565b600060a0820190506141e060008301886137f1565b6141ed60208301876137f1565b6141fa60408301866140be565b61420760608301856140be565b81810360808301526142198184613990565b90509695505050505050565b6000602082019050818103600083015261423f818461385e565b905092915050565b600060408201905081810360008301526142628186886138bc565b905081810360208301526142778184866138bc565b905095945050505050565b6000602082019050818103600083015261429c8184613914565b905092915050565b60006020820190506142b96000830184613972565b92915050565b60006080820190506142d46000830187613981565b6142e160208301866140e4565b6142ee6040830185613981565b6142fb6060830184613981565b95945050505050565b6000602082019050818103600083015261431e81846139e0565b905092915050565b6000602082019050818103600083015261433f81613a19565b9050919050565b6000602082019050818103600083015261435f81613a59565b9050919050565b6000602082019050818103600083015261437f81613a99565b9050919050565b6000602082019050818103600083015261439f81613aff565b9050919050565b600060208201905081810360008301526143bf81613b3f565b9050919050565b600060208201905081810360008301526143df81613b7f565b9050919050565b600060208201905081810360008301526143ff81613bbf565b9050919050565b6000602082019050818103600083015261441f81613c25565b9050919050565b6000602082019050818103600083015261443f81613c8b565b9050919050565b6000602082019050818103600083015261445f81613cf1565b9050919050565b6000602082019050818103600083015261447f81613d57565b9050919050565b6000602082019050818103600083015261449f81613dbd565b9050919050565b600060208201905081810360008301526144bf81613dfd565b9050919050565b600060208201905081810360008301526144df81613e63565b9050919050565b600060208201905081810360008301526144ff81613ea3565b9050919050565b6000602082019050818103600083015261451f81613ee3565b9050919050565b6000602082019050818103600083015261453f81613f49565b9050919050565b6000602082019050818103600083015261455f81613f89565b9050919050565b6000602082019050818103600083015261457f81613fef565b9050919050565b6000602082019050818103600083015261459f8161402f565b9050919050565b600060208201905081810360008301526145bf8161406f565b9050919050565b60006020820190506145db60008301846140be565b92915050565b60006060820190506145f660008301866140be565b81810360208301526146088185613800565b9050818103604083015261461c8184613914565b9050949350505050565b600060408201905061463b60008301856140be565b61464860208301846140be565b9392505050565b6000604051905081810181811067ffffffffffffffff8211171561467257600080fd5b8060405250919050565b600067ffffffffffffffff82111561469357600080fd5b602082029050602081019050919050565b600067ffffffffffffffff8211156146bb57600080fd5b601f19601f8301169050602081019050919050565b6000819050602082019050919050565b6000819050602082019050919050565b6000819050602082019050919050565b600081519050919050565b600081519050919050565b600081519050919050565b600081519050919050565b600081519050919050565b6000602082019050919050565b6000602082019050919050565b6000602082019050919050565b600082825260208201905092915050565b600082825260208201905092915050565b600082825260208201905092915050565b600082825260208201905092915050565b600082825260208201905092915050565b60006147be82614819565b9050919050565b60006147d082614819565b9050919050565b60008115159050919050565b6000819050919050565b60007fffffffff0000000000000000000000000000000000000000000000000000000082169050919050565b600073ffffffffffffffffffffffffffffffffffffffff82169050919050565b6000819050919050565b600060ff82169050919050565b600061485b82614862565b9050919050565b600061486d82614819565b9050919050565b82818337600083830152505050565b60005b838110156148a1578082015181840152602081019050614886565b838111156148b0576000848401525b50505050565b60006148c1826148c8565b9050919050565b60006148d3826148f5565b9050919050565b6000819050919050565b6000601f19601f8301169050919050565b60008160601b9050919050565b61490b816147b3565b811461491657600080fd5b50565b614922816147c5565b811461492d57600080fd5b50565b614939816147d7565b811461494457600080fd5b50565b614950816147e3565b811461495b57600080fd5b50565b614967816147ed565b811461497257600080fd5b50565b61497e81614839565b811461498957600080fd5b50565b61499581614843565b81146149a057600080fd5b5056fea26469706673582212206f1714eb827877f2661110798e735da1c1d4f47791ed37989a86967f2380016764736f6c634300060c0033",
  "immutableReferences": {},
  "source": "\npragma solidity ^0.6.12;\npragma experimental ABIEncoderV2;\n\nimport \"@openzeppelin/contracts/access/Ownable.sol\";\nimport \"../lib/utils/SignerRole.sol\";\nimport \"../lib/contracts/ERC1155Base.sol\";\n\ncontract DavinciMultipleToken is Ownable, SignerRole, ERC1155Base {\n    string public name;\n    string public symbol;\n\n    constructor(string memory _name, string memory _symbol, address signer, string memory contractURI, string memory tokenURIPrefix) ERC1155Base(contractURI, tokenURIPrefix) public {\n        name = _name;\n        symbol = _symbol;\n\n        _addSigner(signer);\n        _registerInterface(bytes4(keccak256('MINT_WITH_ADDRESS')));\n    }\n\n    function addSigner(address account) public override onlyOwner {\n        _addSigner(account);\n    }\n\n    function removeSigner(address account) public onlyOwner {\n        _removeSigner(account);\n    }\n\n    function mint(uint256 id, uint8 v, bytes32 r, bytes32 s, Fee[] memory fees, uint256 supply, string memory uri) public {\n        require(isSigner(ecrecover(keccak256(abi.encodePacked(this, id)), v, r, s)), \"signer should sign tokenId\");\n        _mint(id, fees, supply, uri);\n    }\n}",
  "sourcePath": "/Users/jenya/IdeaProjects/davinci_nft_marketplace/contracts/token/DavinciMultipleToken.sol",
  "compiler": {
    "name": "solc",
    "version": "0.6.12+commit.27d51765.Emscripten.clang"
  },
  "schemaVersion": "3.3.4",
  "updatedAt": "2021-02-24T18:31:31.698Z",
  "devdoc": {
    "kind": "dev",
    "methods": {
      "balanceOf(address,uint256)": {
        "params": {
          "_id": "ID of the Token",
          "_owner": "The address of the token holder"
        },
        "returns": {
          "_0": "The _owner's balance of the Token type requested"
        }
      },
      "balanceOfBatch(address[],uint256[])": {
        "params": {
          "_ids": "ID of the Tokens",
          "_owners": "The addresses of the token holders"
        },
        "returns": {
          "_0": "The _owner's balance of the Token types requested (i.e. balance for each (owner, id) pair)"
        }
      },
      "isApprovedForAll(address,address)": {
        "params": {
          "_operator": "Address of authorized operator",
          "_owner": "The owner of the Tokens"
        },
        "returns": {
          "_0": "True if the operator is approved, false if not"
        }
      },
      "owner()": {
        "details": "Returns the address of the current owner."
      },
      "renounceOwnership()": {
        "details": "Leaves the contract without owner. It will not be possible to call `onlyOwner` functions anymore. Can only be called by the current owner. NOTE: Renouncing ownership will leave the contract without an owner, thereby removing any functionality that is only available to the owner."
      },
      "safeBatchTransferFrom(address,address,uint256[],uint256[],bytes)": {
        "details": "Caller must be approved to manage the tokens being transferred out of the `_from` account (see \"Approval\" section of the standard). MUST revert if `_to` is the zero address. MUST revert if length of `_ids` is not the same as length of `_values`. MUST revert if any of the balance(s) of the holder(s) for token(s) in `_ids` is lower than the respective amount(s) in `_values` sent to the recipient. MUST revert on any other error. MUST emit `TransferSingle` or `TransferBatch` event(s) such that all the balance changes are reflected (see \"Safe Transfer Rules\" section of the standard). Balance changes and events MUST follow the ordering of the arrays (_ids[0]/_values[0] before _ids[1]/_values[1], etc). After the above conditions for the transfer(s) in the batch are met, this function MUST check if `_to` is a smart contract (e.g. code size > 0). If so, it MUST call the relevant `ERC1155TokenReceiver` hook(s) on `_to` and act appropriately (see \"Safe Transfer Rules\" section of the standard).",
        "params": {
          "_data": "Additional data with no specified format, MUST be sent unaltered in call to the `ERC1155TokenReceiver` hook(s) on `_to`",
          "_from": "Source address",
          "_ids": "IDs of each token type (order and length must match _values array)",
          "_to": "Target address",
          "_values": "Transfer amounts per token type (order and length must match _ids array)"
        }
      },
      "safeTransferFrom(address,address,uint256,uint256,bytes)": {
        "details": "Caller must be approved to manage the tokens being transferred out of the `_from` account (see \"Approval\" section of the standard). MUST revert if `_to` is the zero address. MUST revert if balance of holder for token `_id` is lower than the `_value` sent. MUST revert on any other error. MUST emit the `TransferSingle` event to reflect the balance change (see \"Safe Transfer Rules\" section of the standard). After the above conditions are met, this function MUST check if `_to` is a smart contract (e.g. code size > 0). If so, it MUST call `onERC1155Received` on `_to` and act appropriately (see \"Safe Transfer Rules\" section of the standard).",
        "params": {
          "_data": "Additional data with no specified format, MUST be sent unaltered in call to `onERC1155Received` on `_to`",
          "_from": "Source address",
          "_id": "ID of the token type",
          "_to": "Target address",
          "_value": "Transfer amount"
        }
      },
      "setApprovalForAll(address,bool)": {
        "details": "MUST emit the ApprovalForAll event on success.",
        "params": {
          "_approved": "True if the operator is approved, false to revoke approval",
          "_operator": "Address to add to the set of authorized operators"
        }
      },
      "supportsInterface(bytes4)": {
        "details": "See {IERC165-supportsInterface}. Time complexity O(1), guaranteed to always use less than 30 000 gas."
      },
      "transferOwnership(address)": {
        "details": "Transfers ownership of the contract to a new account (`newOwner`). Can only be called by the current owner."
      },
      "uri(uint256)": {
        "details": "URIs are defined in RFC 3986. The URI may point to a JSON file that conforms to the \"ERC-1155 Metadata URI JSON Schema\".",
        "returns": {
          "_0": "URI string"
        }
      }
    },
    "version": 1
  },
  "userdoc": {
    "kind": "user",
    "methods": {
      "balanceOf(address,uint256)": {
        "notice": "Get the balance of an account's Tokens."
      },
      "balanceOfBatch(address[],uint256[])": {
        "notice": "Get the balance of multiple account/token pairs"
      },
      "isApprovedForAll(address,address)": {
        "notice": "Queries the approval status of an operator for a given owner."
      },
      "safeBatchTransferFrom(address,address,uint256[],uint256[],bytes)": {
        "notice": "Transfers `_values` amount(s) of `_ids` from the `_from` address to the `_to` address specified (with safety call)."
      },
      "safeTransferFrom(address,address,uint256,uint256,bytes)": {
        "notice": "Transfers `_value` amount of an `_id` from the `_from` address to the `_to` address specified (with safety call)."
      },
      "setApprovalForAll(address,bool)": {
        "notice": "Enable or disable approval for a third party (\"operator\") to manage all of the caller's tokens."
      },
      "uri(uint256)": {
        "notice": "A distinct Uniform Resource Identifier (URI) for a given token."
      }
    },
    "version": 1
  }
}